{
	"data": {
		"bytecode": {
			"linkReferences": {},
			"object": "60a06040526007600b55348015610014575f5ffd5b5060405161667338038061667383398181016040528101906100369190610805565b336040518060400160405280601881526020017f546574686572205553442042726964676564205a4544323000000000000000008152506040518060400160405280600681526020017f555344542e7a000000000000000000000000000000000000000000000000000081525081600390816100b29190610a9d565b5080600490816100c29190610a9d565b5050505f73ffffffffffffffffffffffffffffffffffffffff168173ffffffffffffffffffffffffffffffffffffffff1603610135575f6040517f1e4fbdf700000000000000000000000000000000000000000000000000000000815260040161012c9190610b7b565b60405180910390fd5b6101448161041360201b60201c565b5060016006819055505f60075f6101000a81548160ff0219169083151502179055505f73ffffffffffffffffffffffffffffffffffffffff168473ffffffffffffffffffffffffffffffffffffffff16036101d4576040517f08c379a00000000000000000000000000000000000000000000000000000000081526004016101cb90610bee565b60405180910390fd5b5f73ffffffffffffffffffffffffffffffffffffffff168373ffffffffffffffffffffffffffffffffffffffff1603610242576040517f08c379a000000000000000000000000000000000000000000000000000000000815260040161023990610c56565b60405180910390fd5b5f73ffffffffffffffffffffffffffffffffffffffff168173ffffffffffffffffffffffffffffffffffffffff16036102b0576040517f08c379a00000000000000000000000000000000000000000000000000000000081526004016102a790610cbe565b60405180910390fd5b83600a5f6101000a81548173ffffffffffffffffffffffffffffffffffffffff021916908373ffffffffffffffffffffffffffffffffffffffff1602179055508260095f6101000a81548173ffffffffffffffffffffffffffffffffffffffff021916908373ffffffffffffffffffffffffffffffffffffffff160217905550816080818152505080600760016101000a81548173ffffffffffffffffffffffffffffffffffffffff021916908373ffffffffffffffffffffffffffffffffffffffff1602179055505f7a0264f78da190d00ddb8415b9109d86faca532e900000000000000090506103e160095f9054906101000a900473ffffffffffffffffffffffffffffffffffffffff1660646046846103cc9190610d09565b6103d69190610d77565b6104d660201b60201c565b610409306064601e846103f49190610d09565b6103fe9190610d77565b6104d660201b60201c565b5050505050610e37565b5f60055f9054906101000a900473ffffffffffffffffffffffffffffffffffffffff1690508160055f6101000a81548173ffffffffffffffffffffffffffffffffffffffff021916908373ffffffffffffffffffffffffffffffffffffffff1602179055508173ffffffffffffffffffffffffffffffffffffffff168173ffffffffffffffffffffffffffffffffffffffff167f8be0079c531659141344cd1fd0a4f28419497f9722a3daafe3b4186f6b6457e060405160405180910390a35050565b5f73ffffffffffffffffffffffffffffffffffffffff168273ffffffffffffffffffffffffffffffffffffffff1603610546575f6040517fec442f0500000000000000000000000000000000000000000000000000000000815260040161053d9190610b7b565b60405180910390fd5b6105575f838361055b60201b60201c565b5050565b5f73ffffffffffffffffffffffffffffffffffffffff168373ffffffffffffffffffffffffffffffffffffffff16036105ab578060025f82825461059f9190610da7565b92505081905550610679565b5f5f5f8573ffffffffffffffffffffffffffffffffffffffff1673ffffffffffffffffffffffffffffffffffffffff1681526020019081526020015f2054905081811015610634578381836040517fe450d38c00000000000000000000000000000000000000000000000000000000815260040161062b93929190610de9565b60405180910390fd5b8181035f5f8673ffffffffffffffffffffffffffffffffffffffff1673ffffffffffffffffffffffffffffffffffffffff1681526020019081526020015f2081905550505b5f73ffffffffffffffffffffffffffffffffffffffff168273ffffffffffffffffffffffffffffffffffffffff16036106c0578060025f828254039250508190555061070a565b805f5f8473ffffffffffffffffffffffffffffffffffffffff1673ffffffffffffffffffffffffffffffffffffffff1681526020019081526020015f205f82825401925050819055505b8173ffffffffffffffffffffffffffffffffffffffff168373ffffffffffffffffffffffffffffffffffffffff167fddf252ad1be2c89b69c2b068fc378daa952ba7f163c4a11628f55a4df523b3ef836040516107679190610e1e565b60405180910390a3505050565b5f5ffd5b5f73ffffffffffffffffffffffffffffffffffffffff82169050919050565b5f6107a182610778565b9050919050565b6107b181610797565b81146107bb575f5ffd5b50565b5f815190506107cc816107a8565b92915050565b5f819050919050565b6107e4816107d2565b81146107ee575f5ffd5b50565b5f815190506107ff816107db565b92915050565b5f5f5f5f6080858703121561081d5761081c610774565b5b5f61082a878288016107be565b945050602061083b878288016107be565b935050604061084c878288016107f1565b925050606061085d878288016107be565b91505092959194509250565b5f81519050919050565b7f4e487b71000000000000000000000000000000000000000000000000000000005f52604160045260245ffd5b7f4e487b71000000000000000000000000000000000000000000000000000000005f52602260045260245ffd5b5f60028204905060018216806108e457607f821691505b6020821081036108f7576108f66108a0565b5b50919050565b5f819050815f5260205f209050919050565b5f6020601f8301049050919050565b5f82821b905092915050565b5f600883026109597fffffffffffffffffffffffffffffffffffffffffffffffffffffffffffffffff8261091e565b610963868361091e565b95508019841693508086168417925050509392505050565b5f819050919050565b5f61099e610999610994846107d2565b61097b565b6107d2565b9050919050565b5f819050919050565b6109b783610984565b6109cb6109c3826109a5565b84845461092a565b825550505050565b5f5f905090565b6109e26109d3565b6109ed8184846109ae565b505050565b5b81811015610a1057610a055f826109da565b6001810190506109f3565b5050565b601f821115610a5557610a26816108fd565b610a2f8461090f565b81016020851015610a3e578190505b610a52610a4a8561090f565b8301826109f2565b50505b505050565b5f82821c905092915050565b5f610a755f1984600802610a5a565b1980831691505092915050565b5f610a8d8383610a66565b9150826002028217905092915050565b610aa682610869565b67ffffffffffffffff811115610abf57610abe610873565b5b610ac982546108cd565b610ad4828285610a14565b5f60209050601f831160018114610b05575f8415610af3578287015190505b610afd8582610a82565b865550610b64565b601f198416610b13866108fd565b5f5b82811015610b3a57848901518255600182019150602085019450602081019050610b15565b86831015610b575784890151610b53601f891682610a66565b8355505b6001600288020188555050505b505050505050565b610b7581610797565b82525050565b5f602082019050610b8e5f830184610b6c565b92915050565b5f82825260208201905092915050565b7f496e76616c696420737461626c6520746f6b656e2061646472657373000000005f82015250565b5f610bd8601c83610b94565b9150610be382610ba4565b602082019050919050565b5f6020820190508181035f830152610c0581610bcc565b9050919050565b7f496e76616c6964206465706c6f7965722077616c6c65742061646472657373005f82015250565b5f610c40601f83610b94565b9150610c4b82610c0c565b602082019050919050565b5f6020820190508181035f830152610c6d81610c34565b9050919050565b7f496e76616c69642062726964676520636f6e74726163742061646472657373005f82015250565b5f610ca8601f83610b94565b9150610cb382610c74565b602082019050919050565b5f6020820190508181035f830152610cd581610c9c565b9050919050565b7f4e487b71000000000000000000000000000000000000000000000000000000005f52601160045260245ffd5b5f610d13826107d2565b9150610d1e836107d2565b9250828202610d2c816107d2565b91508282048414831517610d4357610d42610cdc565b5b5092915050565b7f4e487b71000000000000000000000000000000000000000000000000000000005f52601260045260245ffd5b5f610d81826107d2565b9150610d8c836107d2565b925082610d9c57610d9b610d4a565b5b828204905092915050565b5f610db1826107d2565b9150610dbc836107d2565b9250828201905080821115610dd457610dd3610cdc565b5b92915050565b610de3816107d2565b82525050565b5f606082019050610dfc5f830186610b6c565b610e096020830185610dda565b610e166040830184610dda565b949350505050565b5f602082019050610e315f830184610dda565b92915050565b60805161581d610e565f395f8181611c540152613673015261581d5ff3fe608060405260043610610275575f3560e01c80637547c7a31161014e578063add68edc116100c0578063dbbdd93511610079578063dbbdd935146109b6578063dd62ed3e146109f2578063ec9c9f8914610a2e578063f2fde38b14610a6a578063f8b2cb4f14610a92578063f993185514610ace576102ca565b8063add68edc146108c2578063ba4c28c3146108ea578063c0c53b8b14610926578063c3a386d31461094e578063c7b8981c14610976578063cd5965831461098c576102ca565b806397feb9261161011257806397feb926146107bc578063a1db9782146107e4578063a201ccf61461080c578063a9059cbb14610834578063a9d75b2b14610870578063aa852a1a1461089a576102ca565b80637547c7a3146106ee5780637b0a47ee146107165780637b97008d146107405780638da5cb5b1461076857806395d89b4114610792576102ca565b8063313ce567116101e75780635d60c7be116101ab5780635d60c7be146105f6578063608e4dd014610620578063665a11ca146106485780636c3b451d1461067257806370a082311461069c578063715018a6146106d8576102ca565b8063313ce5671461052a57806340c10f191461055457806342966c681461057c57806356688700146105a45780635c975abb146105cc576102ca565b80630b26cf66116102395780630b26cf66146104245780630d61b5191461044c578063127f4b2e1461047457806318160ddd1461049c57806323b872dd146104c65780632821ff2614610502576102ca565b8063013cf08b1461031a578063018770201461035a57806306fdde03146103825780630700037d146103ac578063095ea7b3146103e8576102ca565b366102ca573373ffffffffffffffffffffffffffffffffffffffff167f8e7347e5946371bc8248a4d0f5af4c2be6630590ae53fb4e979e4bcdb90a140d346040516102c09190613d8d565b60405180910390a2005b3373ffffffffffffffffffffffffffffffffffffffff167f4fdfaf7cd2ae67f3639149bddef2addc991d3f26e0121df03517ec62523649ca346040516103109190613d8d565b60405180910390a2005b348015610325575f5ffd5b50610340600480360381019061033b9190613de1565b610b0a565b604051610351959493929190613f27565b60405180910390f35b348015610365575f5ffd5b50610380600480360381019061037b9190613fb0565b610c83565b005b34801561038d575f5ffd5b50610396610d7f565b6040516103a39190613fdb565b60405180910390f35b3480156103b7575f5ffd5b506103d260048036038101906103cd9190613fb0565b610e0f565b6040516103df9190613d8d565b60405180910390f35b3480156103f3575f5ffd5b5061040e60048036038101906104099190613ffb565b610e24565b60405161041b9190614039565b60405180910390f35b34801561042f575f5ffd5b5061044a60048036038101906104459190613fb0565b610e46565b005b348015610457575f5ffd5b50610472600480360381019061046d9190613de1565b610f43565b005b34801561047f575f5ffd5b5061049a60048036038101906104959190613de1565b61126a565b005b3480156104a7575f5ffd5b506104b061139c565b6040516104bd9190613d8d565b60405180910390f35b3480156104d1575f5ffd5b506104ec60048036038101906104e79190614052565b6113a5565b6040516104f99190614039565b60405180910390f35b34801561050d575f5ffd5b506105286004803603810190610523919061426c565b6113d3565b005b348015610535575f5ffd5b5061053e611587565b60405161054b919061430f565b60405180910390f35b34801561055f575f5ffd5b5061057a60048036038101906105759190613ffb565b61158f565b005b348015610587575f5ffd5b506105a2600480360381019061059d9190613de1565b61160a565b005b3480156105af575f5ffd5b506105ca60048036038101906105c59190613ffb565b611684565b005b3480156105d7575f5ffd5b506105e06118af565b6040516105ed9190614039565b60405180910390f35b348015610601575f5ffd5b5061060a6118c4565b6040516106179190614328565b60405180910390f35b34801561062b575f5ffd5b5061064660048036038101906106419190613de1565b6118e9565b005b348015610653575f5ffd5b5061065c611a7b565b6040516106699190614328565b60405180910390f35b34801561067d575f5ffd5b50610686611aa0565b6040516106939190613d8d565b60405180910390f35b3480156106a7575f5ffd5b506106c260048036038101906106bd9190613fb0565b611aa6565b6040516106cf9190613d8d565b60405180910390f35b3480156106e3575f5ffd5b506106ec611aeb565b005b3480156106f9575f5ffd5b50610714600480360381019061070f9190613de1565b611afe565b005b348015610721575f5ffd5b5061072a611c52565b6040516107379190613d8d565b60405180910390f35b34801561074b575f5ffd5b5061076660048036038101906107619190613de1565b611c76565b005b348015610773575f5ffd5b5061077c611e5b565b6040516107899190614328565b60405180910390f35b34801561079d575f5ffd5b506107a6611e83565b6040516107b39190613fdb565b60405180910390f35b3480156107c7575f5ffd5b506107e260048036038101906107dd9190613ffb565b611f13565b005b3480156107ef575f5ffd5b5061080a60048036038101906108059190613ffb565b612071565b005b348015610817575f5ffd5b50610832600480360381019061082d9190613ffb565b6121cd565b005b34801561083f575f5ffd5b5061085a60048036038101906108559190613ffb565b612462565b6040516108679190614039565b60405180910390f35b34801561087b575f5ffd5b50610884612484565b6040516108919190614328565b60405180910390f35b3480156108a5575f5ffd5b506108c060048036038101906108bb9190614341565b6124a9565b005b3480156108cd575f5ffd5b506108e860048036038101906108e39190613de1565b612640565b005b3480156108f5575f5ffd5b50610910600480360381019061090b9190613fb0565b612848565b60405161091d9190613d8d565b60405180910390f35b348015610931575f5ffd5b5061094c60048036038101906109479190614391565b61285d565b005b348015610959575f5ffd5b50610974600480360381019061096f9190614341565b612be2565b005b348015610981575f5ffd5b5061098a612ef3565b005b348015610997575f5ffd5b506109a061302b565b6040516109ad919061443c565b60405180910390f35b3480156109c1575f5ffd5b506109dc60048036038101906109d79190613fb0565b613051565b6040516109e99190613d8d565b60405180910390f35b3480156109fd575f5ffd5b50610a186004803603810190610a139190614455565b613097565b604051610a259190613d8d565b60405180910390f35b348015610a39575f5ffd5b50610a546004803603810190610a4f9190613fb0565b613119565b604051610a619190613d8d565b60405180910390f35b348015610a75575f5ffd5b50610a906004803603810190610a8b9190613fb0565b61312e565b005b348015610a9d575f5ffd5b50610ab86004803603810190610ab39190613fb0565b6131b2565b604051610ac59190613d8d565b60405180910390f35b348015610ad9575f5ffd5b50610af46004803603810190610aef9190613fb0565b6131c3565b604051610b019190613d8d565b60405180910390f35b600d8181548110610b19575f80fd5b905f5260205f2090600502015f91509050805f018054610b38906144c0565b80601f0160208091040260200160405190810160405280929190818152602001828054610b64906144c0565b8015610baf5780601f10610b8657610100808354040283529160200191610baf565b820191905f5260205f20905b815481529060010190602001808311610b9257829003601f168201915b505050505090806001015490806003015f9054906101000a900460ff16908060030160019054906101000a900473ffffffffffffffffffffffffffffffffffffffff1690806004018054610c02906144c0565b80601f0160208091040260200160405190810160405280929190818152602001828054610c2e906144c0565b8015610c795780601f10610c5057610100808354040283529160200191610c79565b820191905f5260205f20905b815481529060010190602001808311610c5c57829003601f168201915b5050505050905085565b610c8b6131d8565b5f73ffffffffffffffffffffffffffffffffffffffff168173ffffffffffffffffffffffffffffffffffffffff1603610cf9576040517f08c379a0000000000000000000000000000000000000000000000000000000008152600401610cf09061453a565b60405180910390fd5b8060085f6101000a81548173ffffffffffffffffffffffffffffffffffffffff021916908373ffffffffffffffffffffffffffffffffffffffff1602179055508073ffffffffffffffffffffffffffffffffffffffff167fedf1a035d265f6321083031b40acf4e5e06cd3e2e2025192fd308409b13b44c660405160405180910390a250565b606060038054610d8e906144c0565b80601f0160208091040260200160405190810160405280929190818152602001828054610dba906144c0565b8015610e055780601f10610ddc57610100808354040283529160200191610e05565b820191905f5260205f20905b815481529060010190602001808311610de857829003601f168201915b5050505050905090565b600f602052805f5260405f205f915090505481565b5f5f610e2e61325f565b9050610e3b818585613266565b600191505092915050565b610e4e6131d8565b5f73ffffffffffffffffffffffffffffffffffffffff168173ffffffffffffffffffffffffffffffffffffffff1603610ebc576040517f08c379a0000000000000000000000000000000000000000000000000000000008152600401610eb3906145a2565b60405180910390fd5b80600760016101000a81548173ffffffffffffffffffffffffffffffffffffffff021916908373ffffffffffffffffffffffffffffffffffffffff1602179055508073ffffffffffffffffffffffffffffffffffffffff167f5cbd8a0bb00196365d5eb3457c6734e7f06666c3c78e5469b4c9deec7edae04860405160405180910390a250565b610f4b6131d8565b600d805490508110610f92576040517f08c379a0000000000000000000000000000000000000000000000000000000008152600401610f899061460a565b60405180910390fd5b5f600d8281548110610fa757610fa6614628565b5b905f5260205f2090600502019050806003015f9054906101000a900460ff1615611006576040517f08c379a0000000000000000000000000000000000000000000000000000000008152600401610ffd9061469f565b60405180910390fd5b600261101061139c565b61101a9190614717565b81600101541161105f576040517f08c379a000000000000000000000000000000000000000000000000000000000815260040161105690614791565b60405180910390fd5b5f73ffffffffffffffffffffffffffffffffffffffff168160030160019054906101000a900473ffffffffffffffffffffffffffffffffffffffff1673ffffffffffffffffffffffffffffffffffffffff16036110f1576040517f08c379a00000000000000000000000000000000000000000000000000000000081526004016110e8906147f9565b60405180910390fd5b5f816004018054611101906144c0565b905011611143576040517f08c379a000000000000000000000000000000000000000000000000000000000815260040161113a90614861565b60405180910390fd5b5f8160030160019054906101000a900473ffffffffffffffffffffffffffffffffffffffff1673ffffffffffffffffffffffffffffffffffffffff1682600401604051611190919061491b565b5f604051808303815f865af19150503d805f81146111c9576040519150601f19603f3d011682016040523d82523d5f602084013e6111ce565b606091505b5050905080611212576040517f08c379a00000000000000000000000000000000000000000000000000000000081526004016112099061497b565b60405180910390fd5b6001826003015f6101000a81548160ff0219169083151502179055507f712ae1383f79ac853f8d882153778e0260ef8f03b504e2866e0593e04d2b291f8360405161125d9190613d8d565b60405180910390a1505050565b611272613278565b61127a6131d8565b5f81116112bc576040517f08c379a00000000000000000000000000000000000000000000000000000000081526004016112b3906149e3565b60405180910390fd5b804710156112ff576040517f08c379a00000000000000000000000000000000000000000000000000000000081526004016112f690614a4b565b60405180910390fd5b3373ffffffffffffffffffffffffffffffffffffffff166108fc8290811502906040515f60405180830381858888f19350505050158015611342573d5f5f3e3d5ffd5b503373ffffffffffffffffffffffffffffffffffffffff167f3453150aa1e6da6bba12930d5c776e24c722785c752a9c3ead60cbc188d18215826040516113899190613d8d565b60405180910390a26113996132c7565b50565b5f600254905090565b5f5f6113af61325f565b90506113bc8582856132d1565b6113c7858585613364565b60019150509392505050565b6113db6131d8565b5f73ffffffffffffffffffffffffffffffffffffffff168273ffffffffffffffffffffffffffffffffffffffff1603611449576040517f08c379a0000000000000000000000000000000000000000000000000000000008152600401611440906147f9565b60405180910390fd5b5f81511161148c576040517f08c379a000000000000000000000000000000000000000000000000000000000815260040161148390614861565b60405180910390fd5b5f600d60018160018154018082558091505003905f5260205f209060050201905083815f0190816114bd9190614c00565b505f81600101819055505f816003015f6101000a81548160ff021916908315150217905550828160030160016101000a81548173ffffffffffffffffffffffffffffffffffffffff021916908373ffffffffffffffffffffffffffffffffffffffff160217905550818160040190816115369190614d15565b507f9c770c289ab5bf7e57cb1d23c8ceae993aea46eb64847072fd3d78ca60d3e4326001600d8054905061156a9190614de4565b85604051611579929190614e17565b60405180910390a150505050565b5f6012905090565b6115976131d8565b6115a18282613454565b8173ffffffffffffffffffffffffffffffffffffffff165f73ffffffffffffffffffffffffffffffffffffffff167fddf252ad1be2c89b69c2b068fc378daa952ba7f163c4a11628f55a4df523b3ef836040516115fe9190613d8d565b60405180910390a35050565b6116126131d8565b61161c33826134d3565b5f73ffffffffffffffffffffffffffffffffffffffff163373ffffffffffffffffffffffffffffffffffffffff167fddf252ad1be2c89b69c2b068fc378daa952ba7f163c4a11628f55a4df523b3ef836040516116799190613d8d565b60405180910390a350565b61168c613278565b611694613552565b5f73ffffffffffffffffffffffffffffffffffffffff168273ffffffffffffffffffffffffffffffffffffffff1603611702576040517f08c379a00000000000000000000000000000000000000000000000000000000081526004016116f990614e8f565b60405180910390fd5b5f8111611744576040517f08c379a000000000000000000000000000000000000000000000000000000000815260040161173b906149e3565b60405180910390fd5b5f73ffffffffffffffffffffffffffffffffffffffff1660085f9054906101000a900473ffffffffffffffffffffffffffffffffffffffff1673ffffffffffffffffffffffffffffffffffffffff16036117d3576040517f08c379a00000000000000000000000000000000000000000000000000000000081526004016117ca90614ef7565b60405180910390fd5b6118003330838573ffffffffffffffffffffffffffffffffffffffff1661359c909392919063ffffffff16565b80600c5f3373ffffffffffffffffffffffffffffffffffffffff1673ffffffffffffffffffffffffffffffffffffffff1681526020019081526020015f205f82825461184c9190614f15565b925050819055503373ffffffffffffffffffffffffffffffffffffffff167fa21288bdd948f634bcd5a8bfc9825db1b01914f370ef82149e123b7c8dc3b65b828460405161189b929190614f48565b60405180910390a26118ab6132c7565b5050565b5f60075f9054906101000a900460ff16905090565b60095f9054906101000a900473ffffffffffffffffffffffffffffffffffffffff1681565b6118f1613278565b6118f9613552565b5f811161193b576040517f08c379a0000000000000000000000000000000000000000000000000000000008152600401611932906149e3565b60405180910390fd5b80600e5f3373ffffffffffffffffffffffffffffffffffffffff1673ffffffffffffffffffffffffffffffffffffffff1681526020019081526020015f205410156119bb576040517f08c379a00000000000000000000000000000000000000000000000000000000081526004016119b290614fb9565b60405180910390fd5b6119c43361361e565b80600e5f3373ffffffffffffffffffffffffffffffffffffffff1673ffffffffffffffffffffffffffffffffffffffff1681526020019081526020015f205f828254611a109190614de4565b92505081905550611a22303383613364565b3373ffffffffffffffffffffffffffffffffffffffff167f0f5bb82176feb1b5e747e28471aa92156a04d9f3ab9f45f28e2d704232b93f7582604051611a689190613d8d565b60405180910390a2611a786132c7565b50565b60085f9054906101000a900473ffffffffffffffffffffffffffffffffffffffff1681565b600b5481565b5f5f5f8373ffffffffffffffffffffffffffffffffffffffff1673ffffffffffffffffffffffffffffffffffffffff1681526020019081526020015f20549050919050565b611af36131d8565b611afc5f613789565b565b611b06613278565b611b0e613552565b5f8111611b50576040517f08c379a0000000000000000000000000000000000000000000000000000000008152600401611b47906149e3565b60405180910390fd5b611b5b333083613364565b80600e5f3373ffffffffffffffffffffffffffffffffffffffff1673ffffffffffffffffffffffffffffffffffffffff1681526020019081526020015f205f828254611ba79190614f15565b92505081905550611bb73361361e565b4260105f3373ffffffffffffffffffffffffffffffffffffffff1673ffffffffffffffffffffffffffffffffffffffff1681526020019081526020015f20819055503373ffffffffffffffffffffffffffffffffffffffff167f9e71bc8eea02a63969f509818f2dafb9254532904319f9dbda79b67bd34a5f3d82604051611c3f9190613d8d565b60405180910390a2611c4f6132c7565b50565b7f000000000000000000000000000000000000000000000000000000000000000081565b611c7e613278565b611c86613552565b5f8111611cc8576040517f08c379a0000000000000000000000000000000000000000000000000000000008152600401611cbf906149e3565b60405180910390fd5b80600a5f9054906101000a900473ffffffffffffffffffffffffffffffffffffffff1673ffffffffffffffffffffffffffffffffffffffff166370a08231336040518263ffffffff1660e01b8152600401611d239190614328565b602060405180830381865afa158015611d3e573d5f5f3e3d5ffd5b505050506040513d601f19601f82011682018060405250810190611d629190614feb565b1015611da3576040517f08c379a0000000000000000000000000000000000000000000000000000000008152600401611d9a90615060565b60405180910390fd5b5f819050611df5333084600a5f9054906101000a900473ffffffffffffffffffffffffffffffffffffffff1673ffffffffffffffffffffffffffffffffffffffff1661359c909392919063ffffffff16565b611dff3382613454565b3373ffffffffffffffffffffffffffffffffffffffff167f8fafebcaf9d154343dad25669bfa277f4fbacd7ac6b0c4fed522580e040a0f338383604051611e4792919061507e565b60405180910390a250611e586132c7565b50565b5f60055f9054906101000a900473ffffffffffffffffffffffffffffffffffffffff16905090565b606060048054611e92906144c0565b80601f0160208091040260200160405190810160405280929190818152602001828054611ebe906144c0565b8015611f095780601f10611ee057610100808354040283529160200191611f09565b820191905f5260205f20905b815481529060010190602001808311611eec57829003601f168201915b5050505050905090565b611f1b613278565b611f23613552565b5f73ffffffffffffffffffffffffffffffffffffffff168273ffffffffffffffffffffffffffffffffffffffff1603611f91576040517f08c379a0000000000000000000000000000000000000000000000000000000008152600401611f8890614e8f565b60405180910390fd5b5f8111611fd3576040517f08c379a0000000000000000000000000000000000000000000000000000000008152600401611fca906149e3565b60405180910390fd5b6120003330838573ffffffffffffffffffffffffffffffffffffffff1661359c909392919063ffffffff16565b8173ffffffffffffffffffffffffffffffffffffffff163373ffffffffffffffffffffffffffffffffffffffff167f4443cceffa8ceb24d29e02832f21ab488c147192d25858cb0b55dc492ff57ef48360405161205d9190613d8d565b60405180910390a361206d6132c7565b5050565b612079613278565b6120816131d8565b5f73ffffffffffffffffffffffffffffffffffffffff168273ffffffffffffffffffffffffffffffffffffffff16036120ef576040517f08c379a00000000000000000000000000000000000000000000000000000000081526004016120e690614e8f565b60405180910390fd5b5f8111612131576040517f08c379a0000000000000000000000000000000000000000000000000000000008152600401612128906149e3565b60405180910390fd5b61215c33828473ffffffffffffffffffffffffffffffffffffffff1661384c9092919063ffffffff16565b8173ffffffffffffffffffffffffffffffffffffffff163373ffffffffffffffffffffffffffffffffffffffff167f31e3f58fbb760a4c31ae5c6416229fca813390b5fa0de533ee4cef14b2b344db836040516121b99190613d8d565b60405180910390a36121c96132c7565b5050565b6121d5613278565b6121dd613552565b5f73ffffffffffffffffffffffffffffffffffffffff168273ffffffffffffffffffffffffffffffffffffffff160361224b576040517f08c379a000000000000000000000000000000000000000000000000000000000815260040161224290614e8f565b60405180910390fd5b5f811161228d576040517f08c379a0000000000000000000000000000000000000000000000000000000008152600401612284906149e3565b60405180910390fd5b80600c5f3373ffffffffffffffffffffffffffffffffffffffff1673ffffffffffffffffffffffffffffffffffffffff1681526020019081526020015f2054101561230d576040517f08c379a0000000000000000000000000000000000000000000000000000000008152600401612304906150ef565b60405180910390fd5b5f6103e8600b548361231f919061510d565b6123299190614717565b90505f81836123389190614de4565b905082600c5f3373ffffffffffffffffffffffffffffffffffffffff1673ffffffffffffffffffffffffffffffffffffffff1681526020019081526020015f205f8282546123869190614de4565b925050819055506123b833828673ffffffffffffffffffffffffffffffffffffffff1661384c9092919063ffffffff16565b61240460095f9054906101000a900473ffffffffffffffffffffffffffffffffffffffff16838673ffffffffffffffffffffffffffffffffffffffff1661384c9092919063ffffffff16565b3373ffffffffffffffffffffffffffffffffffffffff167f70516e69d9b3069ff3184583d867f7a832772e850ba89b554ae06ff752474f9e828660405161244c929190614f48565b60405180910390a2505061245e6132c7565b5050565b5f5f61246c61325f565b9050612479818585613364565b600191505092915050565b600a5f9054906101000a900473ffffffffffffffffffffffffffffffffffffffff1681565b6124b16131d8565b5f73ffffffffffffffffffffffffffffffffffffffff168173ffffffffffffffffffffffffffffffffffffffff160361251f576040517f08c379a000000000000000000000000000000000000000000000000000000000815260040161251690615198565b60405180910390fd5b5f8211612561576040517f08c379a0000000000000000000000000000000000000000000000000000000008152600401612558906149e3565b60405180910390fd5b600760019054906101000a900473ffffffffffffffffffffffffffffffffffffffff1673ffffffffffffffffffffffffffffffffffffffff16637e9216ca84836040518363ffffffff1660e01b81526004016125be9291906151d6565b5f604051808303815f87803b1580156125d5575f5ffd5b505af11580156125e7573d5f5f3e3d5ffd5b505050508073ffffffffffffffffffffffffffffffffffffffff167f89882ad382a3742d4db24e4dabc5000c5852aed762904db28442e4e1630a1d07834660405161263392919061507e565b60405180910390a2505050565b600d805490508110612687576040517f08c379a000000000000000000000000000000000000000000000000000000000815260040161267e9061460a565b60405180910390fd5b5f600d828154811061269c5761269b614628565b5b905f5260205f2090600502019050806002015f3373ffffffffffffffffffffffffffffffffffffffff1673ffffffffffffffffffffffffffffffffffffffff1681526020019081526020015f205f9054906101000a900460ff1615612736576040517f08c379a000000000000000000000000000000000000000000000000000000000815260040161272d90615247565b60405180910390fd5b5f61274033611aa6565b90505f8111612784576040517f08c379a000000000000000000000000000000000000000000000000000000000815260040161277b906152af565b60405180910390fd5b6001826002015f3373ffffffffffffffffffffffffffffffffffffffff1673ffffffffffffffffffffffffffffffffffffffff1681526020019081526020015f205f6101000a81548160ff02191690831515021790555080826001015f8282546127ee9190614f15565b925050819055503373ffffffffffffffffffffffffffffffffffffffff167f030b0f8dcd86a031eddb071f91882edeac8173663ba775713b677b42b51be44b8460405161283b9190613d8d565b60405180910390a2505050565b600c602052805f5260405f205f915090505481565b5f6128666138cb565b90505f815f0160089054906101000a900460ff161590505f825f015f9054906101000a900467ffffffffffffffff1690505f5f8267ffffffffffffffff161480156128ae5750825b90505f60018367ffffffffffffffff161480156128e157505f3073ffffffffffffffffffffffffffffffffffffffff163b145b9050811580156128ef575080155b15612926576040517ff92ee8a900000000000000000000000000000000000000000000000000000000815260040160405180910390fd5b6001855f015f6101000a81548167ffffffffffffffff021916908367ffffffffffffffff1602179055508315612973576001855f0160086101000a81548160ff0219169083151502179055505b5f73ffffffffffffffffffffffffffffffffffffffff168873ffffffffffffffffffffffffffffffffffffffff16036129e1576040517f08c379a00000000000000000000000000000000000000000000000000000000081526004016129d890615317565b60405180910390fd5b5f73ffffffffffffffffffffffffffffffffffffffff168773ffffffffffffffffffffffffffffffffffffffff1603612a4f576040517f08c379a0000000000000000000000000000000000000000000000000000000008152600401612a469061537f565b60405180910390fd5b5f73ffffffffffffffffffffffffffffffffffffffff168673ffffffffffffffffffffffffffffffffffffffff1603612abd576040517f08c379a0000000000000000000000000000000000000000000000000000000008152600401612ab4906145a2565b60405180910390fd5b87600a5f6101000a81548173ffffffffffffffffffffffffffffffffffffffff021916908373ffffffffffffffffffffffffffffffffffffffff1602179055508660095f6101000a81548173ffffffffffffffffffffffffffffffffffffffff021916908373ffffffffffffffffffffffffffffffffffffffff16021790555085600760016101000a81548173ffffffffffffffffffffffffffffffffffffffff021916908373ffffffffffffffffffffffffffffffffffffffff1602179055508315612bd8575f855f0160086101000a81548160ff0219169083151502179055507fc7f505b2f371ae2175ee4913f4499e1f2633a7b5936321eed1cdaeb6115181d26001604051612bcf91906153e9565b60405180910390a15b5050505050505050565b612bea613278565b612bf2613552565b5f73ffffffffffffffffffffffffffffffffffffffff16600760019054906101000a900473ffffffffffffffffffffffffffffffffffffffff1673ffffffffffffffffffffffffffffffffffffffff1603612c82576040517f08c379a0000000000000000000000000000000000000000000000000000000008152600401612c799061544c565b60405180910390fd5b81600a5f9054906101000a900473ffffffffffffffffffffffffffffffffffffffff1673ffffffffffffffffffffffffffffffffffffffff166370a08231336040518263ffffffff1660e01b8152600401612cdd9190614328565b602060405180830381865afa158015612cf8573d5f5f3e3d5ffd5b505050506040513d601f19601f82011682018060405250810190612d1c9190614feb565b1015612d5d576040517f08c379a0000000000000000000000000000000000000000000000000000000008152600401612d54906154b4565b60405180910390fd5b612dab333084600a5f9054906101000a900473ffffffffffffffffffffffffffffffffffffffff1673ffffffffffffffffffffffffffffffffffffffff1661359c909392919063ffffffff16565b5f60405180606001604052808373ffffffffffffffffffffffffffffffffffffffff168152602001848152602001338542604051602001612dee93929190615537565b604051602081830303815290604052805190602001208152509050600760019054906101000a900473ffffffffffffffffffffffffffffffffffffffff1673ffffffffffffffffffffffffffffffffffffffff16634018a87e8533846040518463ffffffff1660e01b8152600401612e68939291906155e9565b5f604051808303815f87803b158015612e7f575f5ffd5b505af1158015612e91573d5f5f3e3d5ffd5b505050503373ffffffffffffffffffffffffffffffffffffffff167fd741e738a23fd18a03a26522320d9fc6cac1fed483e215ea9150fbc2fc43385d8446604051612edd92919061507e565b60405180910390a250612eee6132c7565b505050565b612efb613278565b612f03613552565b5f600f5f3373ffffffffffffffffffffffffffffffffffffffff1673ffffffffffffffffffffffffffffffffffffffff1681526020019081526020015f205490505f8111612f86576040517f08c379a0000000000000000000000000000000000000000000000000000000008152600401612f7d90615668565b60405180910390fd5b5f600f5f3373ffffffffffffffffffffffffffffffffffffffff1673ffffffffffffffffffffffffffffffffffffffff1681526020019081526020015f2081905550612fd23382613454565b3373ffffffffffffffffffffffffffffffffffffffff167f1d3eee4ca001cff39eec6ec7615aacf2f2bd61791273830728ba00ccbd6e1337826040516130189190613d8d565b60405180910390a2506130296132c7565b565b600760019054906101000a900473ffffffffffffffffffffffffffffffffffffffff1681565b5f600c5f8373ffffffffffffffffffffffffffffffffffffffff1673ffffffffffffffffffffffffffffffffffffffff1681526020019081526020015f20549050919050565b5f60015f8473ffffffffffffffffffffffffffffffffffffffff1673ffffffffffffffffffffffffffffffffffffffff1681526020019081526020015f205f8373ffffffffffffffffffffffffffffffffffffffff1673ffffffffffffffffffffffffffffffffffffffff1681526020019081526020015f2054905092915050565b6010602052805f5260405f205f915090505481565b6131366131d8565b5f73ffffffffffffffffffffffffffffffffffffffff168173ffffffffffffffffffffffffffffffffffffffff16036131a6575f6040517f1e4fbdf700000000000000000000000000000000000000000000000000000000815260040161319d9190614328565b60405180910390fd5b6131af81613789565b50565b5f6131bc82611aa6565b9050919050565b600e602052805f5260405f205f915090505481565b6131e061325f565b73ffffffffffffffffffffffffffffffffffffffff166131fe611e5b565b73ffffffffffffffffffffffffffffffffffffffff161461325d5761322161325f565b6040517f118cdaa70000000000000000000000000000000000000000000000000000000081526004016132549190614328565b60405180910390fd5b565b5f33905090565b61327383838360016138f2565b505050565b6002600654036132bd576040517f08c379a00000000000000000000000000000000000000000000000000000000081526004016132b4906156d0565b60405180910390fd5b6002600681905550565b6001600681905550565b5f6132dc8484613097565b90507fffffffffffffffffffffffffffffffffffffffffffffffffffffffffffffffff81101561335e578181101561334f578281836040517ffb8f41b2000000000000000000000000000000000000000000000000000000008152600401613346939291906156ee565b60405180910390fd5b61335d84848484035f6138f2565b5b50505050565b5f73ffffffffffffffffffffffffffffffffffffffff168373ffffffffffffffffffffffffffffffffffffffff16036133d4575f6040517f96c6fd1e0000000000000000000000000000000000000000000000000000000081526004016133cb9190614328565b60405180910390fd5b5f73ffffffffffffffffffffffffffffffffffffffff168273ffffffffffffffffffffffffffffffffffffffff1603613444575f6040517fec442f0500000000000000000000000000000000000000000000000000000000815260040161343b9190614328565b60405180910390fd5b61344f838383613ac1565b505050565b5f73ffffffffffffffffffffffffffffffffffffffff168273ffffffffffffffffffffffffffffffffffffffff16036134c4575f6040517fec442f050000000000000000000000000000000000000000000000000000000081526004016134bb9190614328565b60405180910390fd5b6134cf5f8383613ac1565b5050565b5f73ffffffffffffffffffffffffffffffffffffffff168273ffffffffffffffffffffffffffffffffffffffff1603613543575f6040517f96c6fd1e00000000000000000000000000000000000000000000000000000000815260040161353a9190614328565b60405180910390fd5b61354e825f83613ac1565b5050565b61355a6118af565b1561359a576040517f08c379a00000000000000000000000000000000000000000000000000000000081526004016135919061576d565b60405180910390fd5b565b613618848573ffffffffffffffffffffffffffffffffffffffff166323b872dd8686866040516024016135d19392919061578b565b604051602081830303815290604052915060e01b6020820180517bffffffffffffffffffffffffffffffffffffffffffffffffffffffff8381831617835250505050613cda565b50505050565b5f670de0b6b3a764000060105f8473ffffffffffffffffffffffffffffffffffffffff1673ffffffffffffffffffffffffffffffffffffffff1681526020019081526020015f2054426136719190614de4565b7f0000000000000000000000000000000000000000000000000000000000000000600e5f8673ffffffffffffffffffffffffffffffffffffffff1673ffffffffffffffffffffffffffffffffffffffff1681526020019081526020015f20546136da919061510d565b6136e4919061510d565b6136ee9190614717565b905080600f5f8473ffffffffffffffffffffffffffffffffffffffff1673ffffffffffffffffffffffffffffffffffffffff1681526020019081526020015f205f82825461373c9190614f15565b925050819055504260105f8473ffffffffffffffffffffffffffffffffffffffff1673ffffffffffffffffffffffffffffffffffffffff1681526020019081526020015f20819055505050565b5f60055f9054906101000a900473ffffffffffffffffffffffffffffffffffffffff1690508160055f6101000a81548173ffffffffffffffffffffffffffffffffffffffff021916908373ffffffffffffffffffffffffffffffffffffffff1602179055508173ffffffffffffffffffffffffffffffffffffffff168173ffffffffffffffffffffffffffffffffffffffff167f8be0079c531659141344cd1fd0a4f28419497f9722a3daafe3b4186f6b6457e060405160405180910390a35050565b6138c6838473ffffffffffffffffffffffffffffffffffffffff1663a9059cbb858560405160240161387f9291906157c0565b604051602081830303815290604052915060e01b6020820180517bffffffffffffffffffffffffffffffffffffffffffffffffffffffff8381831617835250505050613cda565b505050565b5f7ff0c57e16840df040f15088dc2f81fe391c3923bec73e23a9662efc9c229c6a00905090565b5f73ffffffffffffffffffffffffffffffffffffffff168473ffffffffffffffffffffffffffffffffffffffff1603613962575f6040517fe602df050000000000000000000000000000000000000000000000000000000081526004016139599190614328565b60405180910390fd5b5f73ffffffffffffffffffffffffffffffffffffffff168373ffffffffffffffffffffffffffffffffffffffff16036139d2575f6040517f94280d620000000000000000000000000000000000000000000000000000000081526004016139c99190614328565b60405180910390fd5b8160015f8673ffffffffffffffffffffffffffffffffffffffff1673ffffffffffffffffffffffffffffffffffffffff1681526020019081526020015f205f8573ffffffffffffffffffffffffffffffffffffffff1673ffffffffffffffffffffffffffffffffffffffff1681526020019081526020015f20819055508015613abb578273ffffffffffffffffffffffffffffffffffffffff168473ffffffffffffffffffffffffffffffffffffffff167f8c5be1e5ebec7d5bd14f71427d1e84f3dd0314c0f7b2291e5b200ac8c7c3b92584604051613ab29190613d8d565b60405180910390a35b50505050565b5f73ffffffffffffffffffffffffffffffffffffffff168373ffffffffffffffffffffffffffffffffffffffff1603613b11578060025f828254613b059190614f15565b92505081905550613bdf565b5f5f5f8573ffffffffffffffffffffffffffffffffffffffff1673ffffffffffffffffffffffffffffffffffffffff1681526020019081526020015f2054905081811015613b9a578381836040517fe450d38c000000000000000000000000000000000000000000000000000000008152600401613b91939291906156ee565b60405180910390fd5b8181035f5f8673ffffffffffffffffffffffffffffffffffffffff1673ffffffffffffffffffffffffffffffffffffffff1681526020019081526020015f2081905550505b5f73ffffffffffffffffffffffffffffffffffffffff168273ffffffffffffffffffffffffffffffffffffffff1603613c26578060025f8282540392505081905550613c70565b805f5f8473ffffffffffffffffffffffffffffffffffffffff1673ffffffffffffffffffffffffffffffffffffffff1681526020019081526020015f205f82825401925050819055505b8173ffffffffffffffffffffffffffffffffffffffff168373ffffffffffffffffffffffffffffffffffffffff167fddf252ad1be2c89b69c2b068fc378daa952ba7f163c4a11628f55a4df523b3ef83604051613ccd9190613d8d565b60405180910390a3505050565b5f5f60205f8451602086015f885af180613cf9576040513d5f823e3d81fd5b3d92505f519150505f8214613d12576001811415613d2d565b5f8473ffffffffffffffffffffffffffffffffffffffff163b145b15613d6f57836040517f5274afe7000000000000000000000000000000000000000000000000000000008152600401613d669190614328565b60405180910390fd5b50505050565b5f819050919050565b613d8781613d75565b82525050565b5f602082019050613da05f830184613d7e565b92915050565b5f604051905090565b5f5ffd5b5f5ffd5b613dc081613d75565b8114613dca575f5ffd5b50565b5f81359050613ddb81613db7565b92915050565b5f60208284031215613df657613df5613daf565b5b5f613e0384828501613dcd565b91505092915050565b5f81519050919050565b5f82825260208201905092915050565b8281835e5f83830152505050565b5f601f19601f8301169050919050565b5f613e4e82613e0c565b613e588185613e16565b9350613e68818560208601613e26565b613e7181613e34565b840191505092915050565b5f8115159050919050565b613e9081613e7c565b82525050565b5f73ffffffffffffffffffffffffffffffffffffffff82169050919050565b5f613ebf82613e96565b9050919050565b613ecf81613eb5565b82525050565b5f81519050919050565b5f82825260208201905092915050565b5f613ef982613ed5565b613f038185613edf565b9350613f13818560208601613e26565b613f1c81613e34565b840191505092915050565b5f60a0820190508181035f830152613f3f8188613e44565b9050613f4e6020830187613d7e565b613f5b6040830186613e87565b613f686060830185613ec6565b8181036080830152613f7a8184613eef565b90509695505050505050565b613f8f81613eb5565b8114613f99575f5ffd5b50565b5f81359050613faa81613f86565b92915050565b5f60208284031215613fc557613fc4613daf565b5b5f613fd284828501613f9c565b91505092915050565b5f6020820190508181035f830152613ff38184613e44565b905092915050565b5f5f6040838503121561401157614010613daf565b5b5f61401e85828601613f9c565b925050602061402f85828601613dcd565b9150509250929050565b5f60208201905061404c5f830184613e87565b92915050565b5f5f5f6060848603121561406957614068613daf565b5b5f61407686828701613f9c565b935050602061408786828701613f9c565b925050604061409886828701613dcd565b9150509250925092565b5f5ffd5b5f5ffd5b7f4e487b71000000000000000000000000000000000000000000000000000000005f52604160045260245ffd5b6140e082613e34565b810181811067ffffffffffffffff821117156140ff576140fe6140aa565b5b80604052505050565b5f614111613da6565b905061411d82826140d7565b919050565b5f67ffffffffffffffff82111561413c5761413b6140aa565b5b61414582613e34565b9050602081019050919050565b828183375f83830152505050565b5f61417261416d84614122565b614108565b90508281526020810184848401111561418e5761418d6140a6565b5b614199848285614152565b509392505050565b5f82601f8301126141b5576141b46140a2565b5b81356141c5848260208601614160565b91505092915050565b5f67ffffffffffffffff8211156141e8576141e76140aa565b5b6141f182613e34565b9050602081019050919050565b5f61421061420b846141ce565b614108565b90508281526020810184848401111561422c5761422b6140a6565b5b614237848285614152565b509392505050565b5f82601f830112614253576142526140a2565b5b81356142638482602086016141fe565b91505092915050565b5f5f5f6060848603121561428357614282613daf565b5b5f84013567ffffffffffffffff8111156142a05761429f613db3565b5b6142ac868287016141a1565b93505060206142bd86828701613f9c565b925050604084013567ffffffffffffffff8111156142de576142dd613db3565b5b6142ea8682870161423f565b9150509250925092565b5f60ff82169050919050565b614309816142f4565b82525050565b5f6020820190506143225f830184614300565b92915050565b5f60208201905061433b5f830184613ec6565b92915050565b5f5f5f6060848603121561435857614357613daf565b5b5f61436586828701613dcd565b935050602061437686828701613dcd565b925050604061438786828701613f9c565b9150509250925092565b5f5f5f606084860312156143a8576143a7613daf565b5b5f6143b586828701613f9c565b93505060206143c686828701613f9c565b92505060406143d786828701613f9c565b9150509250925092565b5f819050919050565b5f6144046143ff6143fa84613e96565b6143e1565b613e96565b9050919050565b5f614415826143ea565b9050919050565b5f6144268261440b565b9050919050565b6144368161441c565b82525050565b5f60208201905061444f5f83018461442d565b92915050565b5f5f6040838503121561446b5761446a613daf565b5b5f61447885828601613f9c565b925050602061448985828601613f9c565b9150509250929050565b7f4e487b71000000000000000000000000000000000000000000000000000000005f52602260045260245ffd5b5f60028204905060018216806144d757607f821691505b6020821081036144ea576144e9614493565b5b50919050565b7f496e76616c6964206c697175696469747920706f6f6c206164647265737300005f82015250565b5f614524601e83613e16565b915061452f826144f0565b602082019050919050565b5f6020820190508181035f83015261455181614518565b9050919050565b7f496e76616c69642062726964676520636f6e74726163742061646472657373005f82015250565b5f61458c601f83613e16565b915061459782614558565b602082019050919050565b5f6020820190508181035f8301526145b981614580565b9050919050565b7f496e76616c69642070726f706f73616c204944000000000000000000000000005f82015250565b5f6145f4601383613e16565b91506145ff826145c0565b602082019050919050565b5f6020820190508181035f830152614621816145e8565b9050919050565b7f4e487b71000000000000000000000000000000000000000000000000000000005f52603260045260245ffd5b7f50726f706f73616c20616c7265616479206578656375746564000000000000005f82015250565b5f614689601983613e16565b915061469482614655565b602082019050919050565b5f6020820190508181035f8301526146b68161467d565b9050919050565b7f4e487b71000000000000000000000000000000000000000000000000000000005f52601260045260245ffd5b7f4e487b71000000000000000000000000000000000000000000000000000000005f52601160045260245ffd5b5f61472182613d75565b915061472c83613d75565b92508261473c5761473b6146bd565b5b828204905092915050565b7f496e73756666696369656e7420766f74657300000000000000000000000000005f82015250565b5f61477b601283613e16565b915061478682614747565b602082019050919050565b5f6020820190508181035f8301526147a88161476f565b9050919050565b7f496e76616c6964207461726765742061646472657373000000000000000000005f82015250565b5f6147e3601683613e16565b91506147ee826147af565b602082019050919050565b5f6020820190508181035f830152614810816147d7565b9050919050565b7f496e76616c6964206461746100000000000000000000000000000000000000005f82015250565b5f61484b600c83613e16565b915061485682614817565b602082019050919050565b5f6020820190508181035f8301526148788161483f565b9050919050565b5f81905092915050565b5f819050815f5260205f209050919050565b5f81546148a7816144c0565b6148b1818661487f565b9450600182165f81146148cb57600181146148e057614912565b60ff1983168652811515820286019350614912565b6148e985614889565b5f5b8381101561490a578154818901526001820191506020810190506148eb565b838801955050505b50505092915050565b5f614926828461489b565b915081905092915050565b7f50726f706f73616c20657865637574696f6e206661696c6564000000000000005f82015250565b5f614965601983613e16565b915061497082614931565b602082019050919050565b5f6020820190508181035f83015261499281614959565b9050919050565b7f416d6f756e74206d7573742062652067726561746572207468616e207a65726f5f82015250565b5f6149cd602083613e16565b91506149d882614999565b602082019050919050565b5f6020820190508181035f8301526149fa816149c1565b9050919050565b7f496e73756666696369656e7420424e422062616c616e636500000000000000005f82015250565b5f614a35601883613e16565b9150614a4082614a01565b602082019050919050565b5f6020820190508181035f830152614a6281614a29565b9050919050565b5f819050815f5260205f209050919050565b5f6020601f8301049050919050565b5f82821b905092915050565b5f60088302614ac57fffffffffffffffffffffffffffffffffffffffffffffffffffffffffffffffff82614a8a565b614acf8683614a8a565b95508019841693508086168417925050509392505050565b5f614b01614afc614af784613d75565b6143e1565b613d75565b9050919050565b5f819050919050565b614b1a83614ae7565b614b2e614b2682614b08565b848454614a96565b825550505050565b5f5f905090565b614b45614b36565b614b50818484614b11565b505050565b5b81811015614b7357614b685f82614b3d565b600181019050614b56565b5050565b601f821115614bb857614b8981614a69565b614b9284614a7b565b81016020851015614ba1578190505b614bb5614bad85614a7b565b830182614b55565b50505b505050565b5f82821c905092915050565b5f614bd85f1984600802614bbd565b1980831691505092915050565b5f614bf08383614bc9565b9150826002028217905092915050565b614c0982613e0c565b67ffffffffffffffff811115614c2257614c216140aa565b5b614c2c82546144c0565b614c37828285614b77565b5f60209050601f831160018114614c68575f8415614c56578287015190505b614c608582614be5565b865550614cc7565b601f198416614c7686614a69565b5f5b82811015614c9d57848901518255600182019150602085019450602081019050614c78565b86831015614cba5784890151614cb6601f891682614bc9565b8355505b6001600288020188555050505b505050505050565b601f821115614d1057614ce181614889565b614cea84614a7b565b81016020851015614cf9578190505b614d0d614d0585614a7b565b830182614b55565b50505b505050565b614d1e82613ed5565b67ffffffffffffffff811115614d3757614d366140aa565b5b614d4182546144c0565b614d4c828285614ccf565b5f60209050601f831160018114614d7d575f8415614d6b578287015190505b614d758582614be5565b865550614ddc565b601f198416614d8b86614889565b5f5b82811015614db257848901518255600182019150602085019450602081019050614d8d565b86831015614dcf5784890151614dcb601f891682614bc9565b8355505b6001600288020188555050505b505050505050565b5f614dee82613d75565b9150614df983613d75565b9250828203905081811115614e1157614e106146ea565b5b92915050565b5f604082019050614e2a5f830185613d7e565b8181036020830152614e3c8184613e44565b90509392505050565b7f496e76616c696420746f6b656e206164647265737300000000000000000000005f82015250565b5f614e79601583613e16565b9150614e8482614e45565b602082019050919050565b5f6020820190508181035f830152614ea681614e6d565b9050919050565b7f4c697175696469747920706f6f6c206e6f7420736574000000000000000000005f82015250565b5f614ee1601683613e16565b9150614eec82614ead565b602082019050919050565b5f6020820190508181035f830152614f0e81614ed5565b9050919050565b5f614f1f82613d75565b9150614f2a83613d75565b9250828201905080821115614f4257614f416146ea565b5b92915050565b5f604082019050614f5b5f830185613d7e565b614f686020830184613ec6565b9392505050565b7f496e73756666696369656e74207374616b656420616d6f756e740000000000005f82015250565b5f614fa3601a83613e16565b9150614fae82614f6f565b602082019050919050565b5f6020820190508181035f830152614fd081614f97565b9050919050565b5f81519050614fe581613db7565b92915050565b5f6020828403121561500057614fff613daf565b5b5f61500d84828501614fd7565b91505092915050565b7f496e73756666696369656e7420737461626c65636f696e2062616c616e6365005f82015250565b5f61504a601f83613e16565b915061505582615016565b602082019050919050565b5f6020820190508181035f8301526150778161503e565b9050919050565b5f6040820190506150915f830185613d7e565b61509e6020830184613d7e565b9392505050565b7f496e73756666696369656e74206c6971756964697479000000000000000000005f82015250565b5f6150d9601683613e16565b91506150e4826150a5565b602082019050919050565b5f6020820190508181035f830152615106816150cd565b9050919050565b5f61511782613d75565b915061512283613d75565b925082820261513081613d75565b91508282048414831517615147576151466146ea565b5b5092915050565b7f496e76616c696420726563697069656e742061646472657373000000000000005f82015250565b5f615182601983613e16565b915061518d8261514e565b602082019050919050565b5f6020820190508181035f8301526151af81615176565b9050919050565b5f6151c082613e96565b9050919050565b6151d0816151b6565b82525050565b5f6040820190506151e95f830185613d7e565b6151f660208301846151c7565b9392505050565b7f596f75206861766520616c726561647920766f746564000000000000000000005f82015250565b5f615231601683613e16565b915061523c826151fd565b602082019050919050565b5f6020820190508181035f83015261525e81615225565b9050919050565b7f4e6f20766f74696e6720706f77657200000000000000000000000000000000005f82015250565b5f615299600f83613e16565b91506152a482615265565b602082019050919050565b5f6020820190508181035f8301526152c68161528d565b9050919050565b7f496e76616c696420737461626c6520746f6b656e2061646472657373000000005f82015250565b5f615301601c83613e16565b915061530c826152cd565b602082019050919050565b5f6020820190508181035f83015261532e816152f5565b9050919050565b7f496e76616c6964206465706c6f7965722077616c6c65742061646472657373005f82015250565b5f615369601f83613e16565b915061537482615335565b602082019050919050565b5f6020820190508181035f8301526153968161535d565b9050919050565b5f819050919050565b5f67ffffffffffffffff82169050919050565b5f6153d36153ce6153c98461539d565b6143e1565b6153a6565b9050919050565b6153e3816153b9565b82525050565b5f6020820190506153fc5f8301846153da565b92915050565b7f42726964676520636f6e7472616374206e6f74207365740000000000000000005f82015250565b5f615436601783613e16565b915061544182615402565b602082019050919050565b5f6020820190508181035f8301526154638161542a565b9050919050565b7f496e73756666696369656e742062616c616e63650000000000000000000000005f82015250565b5f61549e601483613e16565b91506154a98261546a565b602082019050919050565b5f6020820190508181035f8301526154cb81615492565b9050919050565b5f8160601b9050919050565b5f6154e8826154d2565b9050919050565b5f6154f9826154de565b9050919050565b61551161550c82613eb5565b6154ef565b82525050565b5f819050919050565b61553161552c82613d75565b615517565b82525050565b5f6155428286615500565b6014820191506155528285615520565b6020820191506155628284615520565b602082019150819050949350505050565b61557c81613eb5565b82525050565b61558b81613d75565b82525050565b5f819050919050565b6155a381615591565b82525050565b606082015f8201516155bd5f850182615573565b5060208201516155d06020850182615582565b5060408201516155e3604085018261559a565b50505050565b5f60a0820190506155fc5f830186613d7e565b61560960208301856151c7565b61561660408301846155a9565b949350505050565b7f4e6f207265776172647320746f207769746864726177000000000000000000005f82015250565b5f615652601683613e16565b915061565d8261561e565b602082019050919050565b5f6020820190508181035f83015261567f81615646565b9050919050565b7f5265656e7472616e637947756172643a207265656e7472616e742063616c6c005f82015250565b5f6156ba601f83613e16565b91506156c582615686565b602082019050919050565b5f6020820190508181035f8301526156e7816156ae565b9050919050565b5f6060820190506157015f830186613ec6565b61570e6020830185613d7e565b61571b6040830184613d7e565b949350505050565b7f5061757361626c653a20706175736564000000000000000000000000000000005f82015250565b5f615757601083613e16565b915061576282615723565b602082019050919050565b5f6020820190508181035f8301526157848161574b565b9050919050565b5f60608201905061579e5f830186613ec6565b6157ab6020830185613ec6565b6157b86040830184613d7e565b949350505050565b5f6040820190506157d35f830185613ec6565b6157e06020830184613d7e565b939250505056fea2646970667358221220921bd9e2970092eb087b45dd1b0cb2d49ba565a346940ab207014272496f94a664736f6c634300081c0033",
			"opcodes": "PUSH1 0xA0 PUSH1 0x40 MSTORE PUSH1 0x7 PUSH1 0xB SSTORE CALLVALUE DUP1 ISZERO PUSH2 0x14 JUMPI PUSH0 PUSH0 REVERT JUMPDEST POP PUSH1 0x40 MLOAD PUSH2 0x6673 CODESIZE SUB DUP1 PUSH2 0x6673 DUP4 CODECOPY DUP2 DUP2 ADD PUSH1 0x40 MSTORE DUP2 ADD SWAP1 PUSH2 0x36 SWAP2 SWAP1 PUSH2 0x805 JUMP JUMPDEST CALLER PUSH1 0x40 MLOAD DUP1 PUSH1 0x40 ADD PUSH1 0x40 MSTORE DUP1 PUSH1 0x18 DUP2 MSTORE PUSH1 0x20 ADD PUSH32 0x546574686572205553442042726964676564205A454432300000000000000000 DUP2 MSTORE POP PUSH1 0x40 MLOAD DUP1 PUSH1 0x40 ADD PUSH1 0x40 MSTORE DUP1 PUSH1 0x6 DUP2 MSTORE PUSH1 0x20 ADD PUSH32 0x555344542E7A0000000000000000000000000000000000000000000000000000 DUP2 MSTORE POP DUP2 PUSH1 0x3 SWAP1 DUP2 PUSH2 0xB2 SWAP2 SWAP1 PUSH2 0xA9D JUMP JUMPDEST POP DUP1 PUSH1 0x4 SWAP1 DUP2 PUSH2 0xC2 SWAP2 SWAP1 PUSH2 0xA9D JUMP JUMPDEST POP POP POP PUSH0 PUSH20 0xFFFFFFFFFFFFFFFFFFFFFFFFFFFFFFFFFFFFFFFF AND DUP2 PUSH20 0xFFFFFFFFFFFFFFFFFFFFFFFFFFFFFFFFFFFFFFFF AND SUB PUSH2 0x135 JUMPI PUSH0 PUSH1 0x40 MLOAD PUSH32 0x1E4FBDF700000000000000000000000000000000000000000000000000000000 DUP2 MSTORE PUSH1 0x4 ADD PUSH2 0x12C SWAP2 SWAP1 PUSH2 0xB7B JUMP JUMPDEST PUSH1 0x40 MLOAD DUP1 SWAP2 SUB SWAP1 REVERT JUMPDEST PUSH2 0x144 DUP2 PUSH2 0x413 PUSH1 0x20 SHL PUSH1 0x20 SHR JUMP JUMPDEST POP PUSH1 0x1 PUSH1 0x6 DUP2 SWAP1 SSTORE POP PUSH0 PUSH1 0x7 PUSH0 PUSH2 0x100 EXP DUP2 SLOAD DUP2 PUSH1 0xFF MUL NOT AND SWAP1 DUP4 ISZERO ISZERO MUL OR SWAP1 SSTORE POP PUSH0 PUSH20 0xFFFFFFFFFFFFFFFFFFFFFFFFFFFFFFFFFFFFFFFF AND DUP5 PUSH20 0xFFFFFFFFFFFFFFFFFFFFFFFFFFFFFFFFFFFFFFFF AND SUB PUSH2 0x1D4 JUMPI PUSH1 0x40 MLOAD PUSH32 0x8C379A000000000000000000000000000000000000000000000000000000000 DUP2 MSTORE PUSH1 0x4 ADD PUSH2 0x1CB SWAP1 PUSH2 0xBEE JUMP JUMPDEST PUSH1 0x40 MLOAD DUP1 SWAP2 SUB SWAP1 REVERT JUMPDEST PUSH0 PUSH20 0xFFFFFFFFFFFFFFFFFFFFFFFFFFFFFFFFFFFFFFFF AND DUP4 PUSH20 0xFFFFFFFFFFFFFFFFFFFFFFFFFFFFFFFFFFFFFFFF AND SUB PUSH2 0x242 JUMPI PUSH1 0x40 MLOAD PUSH32 0x8C379A000000000000000000000000000000000000000000000000000000000 DUP2 MSTORE PUSH1 0x4 ADD PUSH2 0x239 SWAP1 PUSH2 0xC56 JUMP JUMPDEST PUSH1 0x40 MLOAD DUP1 SWAP2 SUB SWAP1 REVERT JUMPDEST PUSH0 PUSH20 0xFFFFFFFFFFFFFFFFFFFFFFFFFFFFFFFFFFFFFFFF AND DUP2 PUSH20 0xFFFFFFFFFFFFFFFFFFFFFFFFFFFFFFFFFFFFFFFF AND SUB PUSH2 0x2B0 JUMPI PUSH1 0x40 MLOAD PUSH32 0x8C379A000000000000000000000000000000000000000000000000000000000 DUP2 MSTORE PUSH1 0x4 ADD PUSH2 0x2A7 SWAP1 PUSH2 0xCBE JUMP JUMPDEST PUSH1 0x40 MLOAD DUP1 SWAP2 SUB SWAP1 REVERT JUMPDEST DUP4 PUSH1 0xA PUSH0 PUSH2 0x100 EXP DUP2 SLOAD DUP2 PUSH20 0xFFFFFFFFFFFFFFFFFFFFFFFFFFFFFFFFFFFFFFFF MUL NOT AND SWAP1 DUP4 PUSH20 0xFFFFFFFFFFFFFFFFFFFFFFFFFFFFFFFFFFFFFFFF AND MUL OR SWAP1 SSTORE POP DUP3 PUSH1 0x9 PUSH0 PUSH2 0x100 EXP DUP2 SLOAD DUP2 PUSH20 0xFFFFFFFFFFFFFFFFFFFFFFFFFFFFFFFFFFFFFFFF MUL NOT AND SWAP1 DUP4 PUSH20 0xFFFFFFFFFFFFFFFFFFFFFFFFFFFFFFFFFFFFFFFF AND MUL OR SWAP1 SSTORE POP DUP2 PUSH1 0x80 DUP2 DUP2 MSTORE POP POP DUP1 PUSH1 0x7 PUSH1 0x1 PUSH2 0x100 EXP DUP2 SLOAD DUP2 PUSH20 0xFFFFFFFFFFFFFFFFFFFFFFFFFFFFFFFFFFFFFFFF MUL NOT AND SWAP1 DUP4 PUSH20 0xFFFFFFFFFFFFFFFFFFFFFFFFFFFFFFFFFFFFFFFF AND MUL OR SWAP1 SSTORE POP PUSH0 PUSH27 0x264F78DA190D00DDB8415B9109D86FACA532E9000000000000000 SWAP1 POP PUSH2 0x3E1 PUSH1 0x9 PUSH0 SWAP1 SLOAD SWAP1 PUSH2 0x100 EXP SWAP1 DIV PUSH20 0xFFFFFFFFFFFFFFFFFFFFFFFFFFFFFFFFFFFFFFFF AND PUSH1 0x64 PUSH1 0x46 DUP5 PUSH2 0x3CC SWAP2 SWAP1 PUSH2 0xD09 JUMP JUMPDEST PUSH2 0x3D6 SWAP2 SWAP1 PUSH2 0xD77 JUMP JUMPDEST PUSH2 0x4D6 PUSH1 0x20 SHL PUSH1 0x20 SHR JUMP JUMPDEST PUSH2 0x409 ADDRESS PUSH1 0x64 PUSH1 0x1E DUP5 PUSH2 0x3F4 SWAP2 SWAP1 PUSH2 0xD09 JUMP JUMPDEST PUSH2 0x3FE SWAP2 SWAP1 PUSH2 0xD77 JUMP JUMPDEST PUSH2 0x4D6 PUSH1 0x20 SHL PUSH1 0x20 SHR JUMP JUMPDEST POP POP POP POP POP PUSH2 0xE37 JUMP JUMPDEST PUSH0 PUSH1 0x5 PUSH0 SWAP1 SLOAD SWAP1 PUSH2 0x100 EXP SWAP1 DIV PUSH20 0xFFFFFFFFFFFFFFFFFFFFFFFFFFFFFFFFFFFFFFFF AND SWAP1 POP DUP2 PUSH1 0x5 PUSH0 PUSH2 0x100 EXP DUP2 SLOAD DUP2 PUSH20 0xFFFFFFFFFFFFFFFFFFFFFFFFFFFFFFFFFFFFFFFF MUL NOT AND SWAP1 DUP4 PUSH20 0xFFFFFFFFFFFFFFFFFFFFFFFFFFFFFFFFFFFFFFFF AND MUL OR SWAP1 SSTORE POP DUP2 PUSH20 0xFFFFFFFFFFFFFFFFFFFFFFFFFFFFFFFFFFFFFFFF AND DUP2 PUSH20 0xFFFFFFFFFFFFFFFFFFFFFFFFFFFFFFFFFFFFFFFF AND PUSH32 0x8BE0079C531659141344CD1FD0A4F28419497F9722A3DAAFE3B4186F6B6457E0 PUSH1 0x40 MLOAD PUSH1 0x40 MLOAD DUP1 SWAP2 SUB SWAP1 LOG3 POP POP JUMP JUMPDEST PUSH0 PUSH20 0xFFFFFFFFFFFFFFFFFFFFFFFFFFFFFFFFFFFFFFFF AND DUP3 PUSH20 0xFFFFFFFFFFFFFFFFFFFFFFFFFFFFFFFFFFFFFFFF AND SUB PUSH2 0x546 JUMPI PUSH0 PUSH1 0x40 MLOAD PUSH32 0xEC442F0500000000000000000000000000000000000000000000000000000000 DUP2 MSTORE PUSH1 0x4 ADD PUSH2 0x53D SWAP2 SWAP1 PUSH2 0xB7B JUMP JUMPDEST PUSH1 0x40 MLOAD DUP1 SWAP2 SUB SWAP1 REVERT JUMPDEST PUSH2 0x557 PUSH0 DUP4 DUP4 PUSH2 0x55B PUSH1 0x20 SHL PUSH1 0x20 SHR JUMP JUMPDEST POP POP JUMP JUMPDEST PUSH0 PUSH20 0xFFFFFFFFFFFFFFFFFFFFFFFFFFFFFFFFFFFFFFFF AND DUP4 PUSH20 0xFFFFFFFFFFFFFFFFFFFFFFFFFFFFFFFFFFFFFFFF AND SUB PUSH2 0x5AB JUMPI DUP1 PUSH1 0x2 PUSH0 DUP3 DUP3 SLOAD PUSH2 0x59F SWAP2 SWAP1 PUSH2 0xDA7 JUMP JUMPDEST SWAP3 POP POP DUP2 SWAP1 SSTORE POP PUSH2 0x679 JUMP JUMPDEST PUSH0 PUSH0 PUSH0 DUP6 PUSH20 0xFFFFFFFFFFFFFFFFFFFFFFFFFFFFFFFFFFFFFFFF AND PUSH20 0xFFFFFFFFFFFFFFFFFFFFFFFFFFFFFFFFFFFFFFFF AND DUP2 MSTORE PUSH1 0x20 ADD SWAP1 DUP2 MSTORE PUSH1 0x20 ADD PUSH0 KECCAK256 SLOAD SWAP1 POP DUP2 DUP2 LT ISZERO PUSH2 0x634 JUMPI DUP4 DUP2 DUP4 PUSH1 0x40 MLOAD PUSH32 0xE450D38C00000000000000000000000000000000000000000000000000000000 DUP2 MSTORE PUSH1 0x4 ADD PUSH2 0x62B SWAP4 SWAP3 SWAP2 SWAP1 PUSH2 0xDE9 JUMP JUMPDEST PUSH1 0x40 MLOAD DUP1 SWAP2 SUB SWAP1 REVERT JUMPDEST DUP2 DUP2 SUB PUSH0 PUSH0 DUP7 PUSH20 0xFFFFFFFFFFFFFFFFFFFFFFFFFFFFFFFFFFFFFFFF AND PUSH20 0xFFFFFFFFFFFFFFFFFFFFFFFFFFFFFFFFFFFFFFFF AND DUP2 MSTORE PUSH1 0x20 ADD SWAP1 DUP2 MSTORE PUSH1 0x20 ADD PUSH0 KECCAK256 DUP2 SWAP1 SSTORE POP POP JUMPDEST PUSH0 PUSH20 0xFFFFFFFFFFFFFFFFFFFFFFFFFFFFFFFFFFFFFFFF AND DUP3 PUSH20 0xFFFFFFFFFFFFFFFFFFFFFFFFFFFFFFFFFFFFFFFF AND SUB PUSH2 0x6C0 JUMPI DUP1 PUSH1 0x2 PUSH0 DUP3 DUP3 SLOAD SUB SWAP3 POP POP DUP2 SWAP1 SSTORE POP PUSH2 0x70A JUMP JUMPDEST DUP1 PUSH0 PUSH0 DUP5 PUSH20 0xFFFFFFFFFFFFFFFFFFFFFFFFFFFFFFFFFFFFFFFF AND PUSH20 0xFFFFFFFFFFFFFFFFFFFFFFFFFFFFFFFFFFFFFFFF AND DUP2 MSTORE PUSH1 0x20 ADD SWAP1 DUP2 MSTORE PUSH1 0x20 ADD PUSH0 KECCAK256 PUSH0 DUP3 DUP3 SLOAD ADD SWAP3 POP POP DUP2 SWAP1 SSTORE POP JUMPDEST DUP2 PUSH20 0xFFFFFFFFFFFFFFFFFFFFFFFFFFFFFFFFFFFFFFFF AND DUP4 PUSH20 0xFFFFFFFFFFFFFFFFFFFFFFFFFFFFFFFFFFFFFFFF AND PUSH32 0xDDF252AD1BE2C89B69C2B068FC378DAA952BA7F163C4A11628F55A4DF523B3EF DUP4 PUSH1 0x40 MLOAD PUSH2 0x767 SWAP2 SWAP1 PUSH2 0xE1E JUMP JUMPDEST PUSH1 0x40 MLOAD DUP1 SWAP2 SUB SWAP1 LOG3 POP POP POP JUMP JUMPDEST PUSH0 PUSH0 REVERT JUMPDEST PUSH0 PUSH20 0xFFFFFFFFFFFFFFFFFFFFFFFFFFFFFFFFFFFFFFFF DUP3 AND SWAP1 POP SWAP2 SWAP1 POP JUMP JUMPDEST PUSH0 PUSH2 0x7A1 DUP3 PUSH2 0x778 JUMP JUMPDEST SWAP1 POP SWAP2 SWAP1 POP JUMP JUMPDEST PUSH2 0x7B1 DUP2 PUSH2 0x797 JUMP JUMPDEST DUP2 EQ PUSH2 0x7BB JUMPI PUSH0 PUSH0 REVERT JUMPDEST POP JUMP JUMPDEST PUSH0 DUP2 MLOAD SWAP1 POP PUSH2 0x7CC DUP2 PUSH2 0x7A8 JUMP JUMPDEST SWAP3 SWAP2 POP POP JUMP JUMPDEST PUSH0 DUP2 SWAP1 POP SWAP2 SWAP1 POP JUMP JUMPDEST PUSH2 0x7E4 DUP2 PUSH2 0x7D2 JUMP JUMPDEST DUP2 EQ PUSH2 0x7EE JUMPI PUSH0 PUSH0 REVERT JUMPDEST POP JUMP JUMPDEST PUSH0 DUP2 MLOAD SWAP1 POP PUSH2 0x7FF DUP2 PUSH2 0x7DB JUMP JUMPDEST SWAP3 SWAP2 POP POP JUMP JUMPDEST PUSH0 PUSH0 PUSH0 PUSH0 PUSH1 0x80 DUP6 DUP8 SUB SLT ISZERO PUSH2 0x81D JUMPI PUSH2 0x81C PUSH2 0x774 JUMP JUMPDEST JUMPDEST PUSH0 PUSH2 0x82A DUP8 DUP3 DUP9 ADD PUSH2 0x7BE JUMP JUMPDEST SWAP5 POP POP PUSH1 0x20 PUSH2 0x83B DUP8 DUP3 DUP9 ADD PUSH2 0x7BE JUMP JUMPDEST SWAP4 POP POP PUSH1 0x40 PUSH2 0x84C DUP8 DUP3 DUP9 ADD PUSH2 0x7F1 JUMP JUMPDEST SWAP3 POP POP PUSH1 0x60 PUSH2 0x85D DUP8 DUP3 DUP9 ADD PUSH2 0x7BE JUMP JUMPDEST SWAP2 POP POP SWAP3 SWAP6 SWAP2 SWAP5 POP SWAP3 POP JUMP JUMPDEST PUSH0 DUP2 MLOAD SWAP1 POP SWAP2 SWAP1 POP JUMP JUMPDEST PUSH32 0x4E487B7100000000000000000000000000000000000000000000000000000000 PUSH0 MSTORE PUSH1 0x41 PUSH1 0x4 MSTORE PUSH1 0x24 PUSH0 REVERT JUMPDEST PUSH32 0x4E487B7100000000000000000000000000000000000000000000000000000000 PUSH0 MSTORE PUSH1 0x22 PUSH1 0x4 MSTORE PUSH1 0x24 PUSH0 REVERT JUMPDEST PUSH0 PUSH1 0x2 DUP3 DIV SWAP1 POP PUSH1 0x1 DUP3 AND DUP1 PUSH2 0x8E4 JUMPI PUSH1 0x7F DUP3 AND SWAP2 POP JUMPDEST PUSH1 0x20 DUP3 LT DUP2 SUB PUSH2 0x8F7 JUMPI PUSH2 0x8F6 PUSH2 0x8A0 JUMP JUMPDEST JUMPDEST POP SWAP2 SWAP1 POP JUMP JUMPDEST PUSH0 DUP2 SWAP1 POP DUP2 PUSH0 MSTORE PUSH1 0x20 PUSH0 KECCAK256 SWAP1 POP SWAP2 SWAP1 POP JUMP JUMPDEST PUSH0 PUSH1 0x20 PUSH1 0x1F DUP4 ADD DIV SWAP1 POP SWAP2 SWAP1 POP JUMP JUMPDEST PUSH0 DUP3 DUP3 SHL SWAP1 POP SWAP3 SWAP2 POP POP JUMP JUMPDEST PUSH0 PUSH1 0x8 DUP4 MUL PUSH2 0x959 PUSH32 0xFFFFFFFFFFFFFFFFFFFFFFFFFFFFFFFFFFFFFFFFFFFFFFFFFFFFFFFFFFFFFFFF DUP3 PUSH2 0x91E JUMP JUMPDEST PUSH2 0x963 DUP7 DUP4 PUSH2 0x91E JUMP JUMPDEST SWAP6 POP DUP1 NOT DUP5 AND SWAP4 POP DUP1 DUP7 AND DUP5 OR SWAP3 POP POP POP SWAP4 SWAP3 POP POP POP JUMP JUMPDEST PUSH0 DUP2 SWAP1 POP SWAP2 SWAP1 POP JUMP JUMPDEST PUSH0 PUSH2 0x99E PUSH2 0x999 PUSH2 0x994 DUP5 PUSH2 0x7D2 JUMP JUMPDEST PUSH2 0x97B JUMP JUMPDEST PUSH2 0x7D2 JUMP JUMPDEST SWAP1 POP SWAP2 SWAP1 POP JUMP JUMPDEST PUSH0 DUP2 SWAP1 POP SWAP2 SWAP1 POP JUMP JUMPDEST PUSH2 0x9B7 DUP4 PUSH2 0x984 JUMP JUMPDEST PUSH2 0x9CB PUSH2 0x9C3 DUP3 PUSH2 0x9A5 JUMP JUMPDEST DUP5 DUP5 SLOAD PUSH2 0x92A JUMP JUMPDEST DUP3 SSTORE POP POP POP POP JUMP JUMPDEST PUSH0 PUSH0 SWAP1 POP SWAP1 JUMP JUMPDEST PUSH2 0x9E2 PUSH2 0x9D3 JUMP JUMPDEST PUSH2 0x9ED DUP2 DUP5 DUP5 PUSH2 0x9AE JUMP JUMPDEST POP POP POP JUMP JUMPDEST JUMPDEST DUP2 DUP2 LT ISZERO PUSH2 0xA10 JUMPI PUSH2 0xA05 PUSH0 DUP3 PUSH2 0x9DA JUMP JUMPDEST PUSH1 0x1 DUP2 ADD SWAP1 POP PUSH2 0x9F3 JUMP JUMPDEST POP POP JUMP JUMPDEST PUSH1 0x1F DUP3 GT ISZERO PUSH2 0xA55 JUMPI PUSH2 0xA26 DUP2 PUSH2 0x8FD JUMP JUMPDEST PUSH2 0xA2F DUP5 PUSH2 0x90F JUMP JUMPDEST DUP2 ADD PUSH1 0x20 DUP6 LT ISZERO PUSH2 0xA3E JUMPI DUP2 SWAP1 POP JUMPDEST PUSH2 0xA52 PUSH2 0xA4A DUP6 PUSH2 0x90F JUMP JUMPDEST DUP4 ADD DUP3 PUSH2 0x9F2 JUMP JUMPDEST POP POP JUMPDEST POP POP POP JUMP JUMPDEST PUSH0 DUP3 DUP3 SHR SWAP1 POP SWAP3 SWAP2 POP POP JUMP JUMPDEST PUSH0 PUSH2 0xA75 PUSH0 NOT DUP5 PUSH1 0x8 MUL PUSH2 0xA5A JUMP JUMPDEST NOT DUP1 DUP4 AND SWAP2 POP POP SWAP3 SWAP2 POP POP JUMP JUMPDEST PUSH0 PUSH2 0xA8D DUP4 DUP4 PUSH2 0xA66 JUMP JUMPDEST SWAP2 POP DUP3 PUSH1 0x2 MUL DUP3 OR SWAP1 POP SWAP3 SWAP2 POP POP JUMP JUMPDEST PUSH2 0xAA6 DUP3 PUSH2 0x869 JUMP JUMPDEST PUSH8 0xFFFFFFFFFFFFFFFF DUP2 GT ISZERO PUSH2 0xABF JUMPI PUSH2 0xABE PUSH2 0x873 JUMP JUMPDEST JUMPDEST PUSH2 0xAC9 DUP3 SLOAD PUSH2 0x8CD JUMP JUMPDEST PUSH2 0xAD4 DUP3 DUP3 DUP6 PUSH2 0xA14 JUMP JUMPDEST PUSH0 PUSH1 0x20 SWAP1 POP PUSH1 0x1F DUP4 GT PUSH1 0x1 DUP2 EQ PUSH2 0xB05 JUMPI PUSH0 DUP5 ISZERO PUSH2 0xAF3 JUMPI DUP3 DUP8 ADD MLOAD SWAP1 POP JUMPDEST PUSH2 0xAFD DUP6 DUP3 PUSH2 0xA82 JUMP JUMPDEST DUP7 SSTORE POP PUSH2 0xB64 JUMP JUMPDEST PUSH1 0x1F NOT DUP5 AND PUSH2 0xB13 DUP7 PUSH2 0x8FD JUMP JUMPDEST PUSH0 JUMPDEST DUP3 DUP2 LT ISZERO PUSH2 0xB3A JUMPI DUP5 DUP10 ADD MLOAD DUP3 SSTORE PUSH1 0x1 DUP3 ADD SWAP2 POP PUSH1 0x20 DUP6 ADD SWAP5 POP PUSH1 0x20 DUP2 ADD SWAP1 POP PUSH2 0xB15 JUMP JUMPDEST DUP7 DUP4 LT ISZERO PUSH2 0xB57 JUMPI DUP5 DUP10 ADD MLOAD PUSH2 0xB53 PUSH1 0x1F DUP10 AND DUP3 PUSH2 0xA66 JUMP JUMPDEST DUP4 SSTORE POP JUMPDEST PUSH1 0x1 PUSH1 0x2 DUP9 MUL ADD DUP9 SSTORE POP POP POP JUMPDEST POP POP POP POP POP POP JUMP JUMPDEST PUSH2 0xB75 DUP2 PUSH2 0x797 JUMP JUMPDEST DUP3 MSTORE POP POP JUMP JUMPDEST PUSH0 PUSH1 0x20 DUP3 ADD SWAP1 POP PUSH2 0xB8E PUSH0 DUP4 ADD DUP5 PUSH2 0xB6C JUMP JUMPDEST SWAP3 SWAP2 POP POP JUMP JUMPDEST PUSH0 DUP3 DUP3 MSTORE PUSH1 0x20 DUP3 ADD SWAP1 POP SWAP3 SWAP2 POP POP JUMP JUMPDEST PUSH32 0x496E76616C696420737461626C6520746F6B656E206164647265737300000000 PUSH0 DUP3 ADD MSTORE POP JUMP JUMPDEST PUSH0 PUSH2 0xBD8 PUSH1 0x1C DUP4 PUSH2 0xB94 JUMP JUMPDEST SWAP2 POP PUSH2 0xBE3 DUP3 PUSH2 0xBA4 JUMP JUMPDEST PUSH1 0x20 DUP3 ADD SWAP1 POP SWAP2 SWAP1 POP JUMP JUMPDEST PUSH0 PUSH1 0x20 DUP3 ADD SWAP1 POP DUP2 DUP2 SUB PUSH0 DUP4 ADD MSTORE PUSH2 0xC05 DUP2 PUSH2 0xBCC JUMP JUMPDEST SWAP1 POP SWAP2 SWAP1 POP JUMP JUMPDEST PUSH32 0x496E76616C6964206465706C6F7965722077616C6C6574206164647265737300 PUSH0 DUP3 ADD MSTORE POP JUMP JUMPDEST PUSH0 PUSH2 0xC40 PUSH1 0x1F DUP4 PUSH2 0xB94 JUMP JUMPDEST SWAP2 POP PUSH2 0xC4B DUP3 PUSH2 0xC0C JUMP JUMPDEST PUSH1 0x20 DUP3 ADD SWAP1 POP SWAP2 SWAP1 POP JUMP JUMPDEST PUSH0 PUSH1 0x20 DUP3 ADD SWAP1 POP DUP2 DUP2 SUB PUSH0 DUP4 ADD MSTORE PUSH2 0xC6D DUP2 PUSH2 0xC34 JUMP JUMPDEST SWAP1 POP SWAP2 SWAP1 POP JUMP JUMPDEST PUSH32 0x496E76616C69642062726964676520636F6E7472616374206164647265737300 PUSH0 DUP3 ADD MSTORE POP JUMP JUMPDEST PUSH0 PUSH2 0xCA8 PUSH1 0x1F DUP4 PUSH2 0xB94 JUMP JUMPDEST SWAP2 POP PUSH2 0xCB3 DUP3 PUSH2 0xC74 JUMP JUMPDEST PUSH1 0x20 DUP3 ADD SWAP1 POP SWAP2 SWAP1 POP JUMP JUMPDEST PUSH0 PUSH1 0x20 DUP3 ADD SWAP1 POP DUP2 DUP2 SUB PUSH0 DUP4 ADD MSTORE PUSH2 0xCD5 DUP2 PUSH2 0xC9C JUMP JUMPDEST SWAP1 POP SWAP2 SWAP1 POP JUMP JUMPDEST PUSH32 0x4E487B7100000000000000000000000000000000000000000000000000000000 PUSH0 MSTORE PUSH1 0x11 PUSH1 0x4 MSTORE PUSH1 0x24 PUSH0 REVERT JUMPDEST PUSH0 PUSH2 0xD13 DUP3 PUSH2 0x7D2 JUMP JUMPDEST SWAP2 POP PUSH2 0xD1E DUP4 PUSH2 0x7D2 JUMP JUMPDEST SWAP3 POP DUP3 DUP3 MUL PUSH2 0xD2C DUP2 PUSH2 0x7D2 JUMP JUMPDEST SWAP2 POP DUP3 DUP3 DIV DUP5 EQ DUP4 ISZERO OR PUSH2 0xD43 JUMPI PUSH2 0xD42 PUSH2 0xCDC JUMP JUMPDEST JUMPDEST POP SWAP3 SWAP2 POP POP JUMP JUMPDEST PUSH32 0x4E487B7100000000000000000000000000000000000000000000000000000000 PUSH0 MSTORE PUSH1 0x12 PUSH1 0x4 MSTORE PUSH1 0x24 PUSH0 REVERT JUMPDEST PUSH0 PUSH2 0xD81 DUP3 PUSH2 0x7D2 JUMP JUMPDEST SWAP2 POP PUSH2 0xD8C DUP4 PUSH2 0x7D2 JUMP JUMPDEST SWAP3 POP DUP3 PUSH2 0xD9C JUMPI PUSH2 0xD9B PUSH2 0xD4A JUMP JUMPDEST JUMPDEST DUP3 DUP3 DIV SWAP1 POP SWAP3 SWAP2 POP POP JUMP JUMPDEST PUSH0 PUSH2 0xDB1 DUP3 PUSH2 0x7D2 JUMP JUMPDEST SWAP2 POP PUSH2 0xDBC DUP4 PUSH2 0x7D2 JUMP JUMPDEST SWAP3 POP DUP3 DUP3 ADD SWAP1 POP DUP1 DUP3 GT ISZERO PUSH2 0xDD4 JUMPI PUSH2 0xDD3 PUSH2 0xCDC JUMP JUMPDEST JUMPDEST SWAP3 SWAP2 POP POP JUMP JUMPDEST PUSH2 0xDE3 DUP2 PUSH2 0x7D2 JUMP JUMPDEST DUP3 MSTORE POP POP JUMP JUMPDEST PUSH0 PUSH1 0x60 DUP3 ADD SWAP1 POP PUSH2 0xDFC PUSH0 DUP4 ADD DUP7 PUSH2 0xB6C JUMP JUMPDEST PUSH2 0xE09 PUSH1 0x20 DUP4 ADD DUP6 PUSH2 0xDDA JUMP JUMPDEST PUSH2 0xE16 PUSH1 0x40 DUP4 ADD DUP5 PUSH2 0xDDA JUMP JUMPDEST SWAP5 SWAP4 POP POP POP POP JUMP JUMPDEST PUSH0 PUSH1 0x20 DUP3 ADD SWAP1 POP PUSH2 0xE31 PUSH0 DUP4 ADD DUP5 PUSH2 0xDDA JUMP JUMPDEST SWAP3 SWAP2 POP POP JUMP JUMPDEST PUSH1 0x80 MLOAD PUSH2 0x581D PUSH2 0xE56 PUSH0 CODECOPY PUSH0 DUP2 DUP2 PUSH2 0x1C54 ADD MSTORE PUSH2 0x3673 ADD MSTORE PUSH2 0x581D PUSH0 RETURN INVALID PUSH1 0x80 PUSH1 0x40 MSTORE PUSH1 0x4 CALLDATASIZE LT PUSH2 0x275 JUMPI PUSH0 CALLDATALOAD PUSH1 0xE0 SHR DUP1 PUSH4 0x7547C7A3 GT PUSH2 0x14E JUMPI DUP1 PUSH4 0xADD68EDC GT PUSH2 0xC0 JUMPI DUP1 PUSH4 0xDBBDD935 GT PUSH2 0x79 JUMPI DUP1 PUSH4 0xDBBDD935 EQ PUSH2 0x9B6 JUMPI DUP1 PUSH4 0xDD62ED3E EQ PUSH2 0x9F2 JUMPI DUP1 PUSH4 0xEC9C9F89 EQ PUSH2 0xA2E JUMPI DUP1 PUSH4 0xF2FDE38B EQ PUSH2 0xA6A JUMPI DUP1 PUSH4 0xF8B2CB4F EQ PUSH2 0xA92 JUMPI DUP1 PUSH4 0xF9931855 EQ PUSH2 0xACE JUMPI PUSH2 0x2CA JUMP JUMPDEST DUP1 PUSH4 0xADD68EDC EQ PUSH2 0x8C2 JUMPI DUP1 PUSH4 0xBA4C28C3 EQ PUSH2 0x8EA JUMPI DUP1 PUSH4 0xC0C53B8B EQ PUSH2 0x926 JUMPI DUP1 PUSH4 0xC3A386D3 EQ PUSH2 0x94E JUMPI DUP1 PUSH4 0xC7B8981C EQ PUSH2 0x976 JUMPI DUP1 PUSH4 0xCD596583 EQ PUSH2 0x98C JUMPI PUSH2 0x2CA JUMP JUMPDEST DUP1 PUSH4 0x97FEB926 GT PUSH2 0x112 JUMPI DUP1 PUSH4 0x97FEB926 EQ PUSH2 0x7BC JUMPI DUP1 PUSH4 0xA1DB9782 EQ PUSH2 0x7E4 JUMPI DUP1 PUSH4 0xA201CCF6 EQ PUSH2 0x80C JUMPI DUP1 PUSH4 0xA9059CBB EQ PUSH2 0x834 JUMPI DUP1 PUSH4 0xA9D75B2B EQ PUSH2 0x870 JUMPI DUP1 PUSH4 0xAA852A1A EQ PUSH2 0x89A JUMPI PUSH2 0x2CA JUMP JUMPDEST DUP1 PUSH4 0x7547C7A3 EQ PUSH2 0x6EE JUMPI DUP1 PUSH4 0x7B0A47EE EQ PUSH2 0x716 JUMPI DUP1 PUSH4 0x7B97008D EQ PUSH2 0x740 JUMPI DUP1 PUSH4 0x8DA5CB5B EQ PUSH2 0x768 JUMPI DUP1 PUSH4 0x95D89B41 EQ PUSH2 0x792 JUMPI PUSH2 0x2CA JUMP JUMPDEST DUP1 PUSH4 0x313CE567 GT PUSH2 0x1E7 JUMPI DUP1 PUSH4 0x5D60C7BE GT PUSH2 0x1AB JUMPI DUP1 PUSH4 0x5D60C7BE EQ PUSH2 0x5F6 JUMPI DUP1 PUSH4 0x608E4DD0 EQ PUSH2 0x620 JUMPI DUP1 PUSH4 0x665A11CA EQ PUSH2 0x648 JUMPI DUP1 PUSH4 0x6C3B451D EQ PUSH2 0x672 JUMPI DUP1 PUSH4 0x70A08231 EQ PUSH2 0x69C JUMPI DUP1 PUSH4 0x715018A6 EQ PUSH2 0x6D8 JUMPI PUSH2 0x2CA JUMP JUMPDEST DUP1 PUSH4 0x313CE567 EQ PUSH2 0x52A JUMPI DUP1 PUSH4 0x40C10F19 EQ PUSH2 0x554 JUMPI DUP1 PUSH4 0x42966C68 EQ PUSH2 0x57C JUMPI DUP1 PUSH4 0x56688700 EQ PUSH2 0x5A4 JUMPI DUP1 PUSH4 0x5C975ABB EQ PUSH2 0x5CC JUMPI PUSH2 0x2CA JUMP JUMPDEST DUP1 PUSH4 0xB26CF66 GT PUSH2 0x239 JUMPI DUP1 PUSH4 0xB26CF66 EQ PUSH2 0x424 JUMPI DUP1 PUSH4 0xD61B519 EQ PUSH2 0x44C JUMPI DUP1 PUSH4 0x127F4B2E EQ PUSH2 0x474 JUMPI DUP1 PUSH4 0x18160DDD EQ PUSH2 0x49C JUMPI DUP1 PUSH4 0x23B872DD EQ PUSH2 0x4C6 JUMPI DUP1 PUSH4 0x2821FF26 EQ PUSH2 0x502 JUMPI PUSH2 0x2CA JUMP JUMPDEST DUP1 PUSH4 0x13CF08B EQ PUSH2 0x31A JUMPI DUP1 PUSH4 0x1877020 EQ PUSH2 0x35A JUMPI DUP1 PUSH4 0x6FDDE03 EQ PUSH2 0x382 JUMPI DUP1 PUSH4 0x700037D EQ PUSH2 0x3AC JUMPI DUP1 PUSH4 0x95EA7B3 EQ PUSH2 0x3E8 JUMPI PUSH2 0x2CA JUMP JUMPDEST CALLDATASIZE PUSH2 0x2CA JUMPI CALLER PUSH20 0xFFFFFFFFFFFFFFFFFFFFFFFFFFFFFFFFFFFFFFFF AND PUSH32 0x8E7347E5946371BC8248A4D0F5AF4C2BE6630590AE53FB4E979E4BCDB90A140D CALLVALUE PUSH1 0x40 MLOAD PUSH2 0x2C0 SWAP2 SWAP1 PUSH2 0x3D8D JUMP JUMPDEST PUSH1 0x40 MLOAD DUP1 SWAP2 SUB SWAP1 LOG2 STOP JUMPDEST CALLER PUSH20 0xFFFFFFFFFFFFFFFFFFFFFFFFFFFFFFFFFFFFFFFF AND PUSH32 0x4FDFAF7CD2AE67F3639149BDDEF2ADDC991D3F26E0121DF03517EC62523649CA CALLVALUE PUSH1 0x40 MLOAD PUSH2 0x310 SWAP2 SWAP1 PUSH2 0x3D8D JUMP JUMPDEST PUSH1 0x40 MLOAD DUP1 SWAP2 SUB SWAP1 LOG2 STOP JUMPDEST CALLVALUE DUP1 ISZERO PUSH2 0x325 JUMPI PUSH0 PUSH0 REVERT JUMPDEST POP PUSH2 0x340 PUSH1 0x4 DUP1 CALLDATASIZE SUB DUP2 ADD SWAP1 PUSH2 0x33B SWAP2 SWAP1 PUSH2 0x3DE1 JUMP JUMPDEST PUSH2 0xB0A JUMP JUMPDEST PUSH1 0x40 MLOAD PUSH2 0x351 SWAP6 SWAP5 SWAP4 SWAP3 SWAP2 SWAP1 PUSH2 0x3F27 JUMP JUMPDEST PUSH1 0x40 MLOAD DUP1 SWAP2 SUB SWAP1 RETURN JUMPDEST CALLVALUE DUP1 ISZERO PUSH2 0x365 JUMPI PUSH0 PUSH0 REVERT JUMPDEST POP PUSH2 0x380 PUSH1 0x4 DUP1 CALLDATASIZE SUB DUP2 ADD SWAP1 PUSH2 0x37B SWAP2 SWAP1 PUSH2 0x3FB0 JUMP JUMPDEST PUSH2 0xC83 JUMP JUMPDEST STOP JUMPDEST CALLVALUE DUP1 ISZERO PUSH2 0x38D JUMPI PUSH0 PUSH0 REVERT JUMPDEST POP PUSH2 0x396 PUSH2 0xD7F JUMP JUMPDEST PUSH1 0x40 MLOAD PUSH2 0x3A3 SWAP2 SWAP1 PUSH2 0x3FDB JUMP JUMPDEST PUSH1 0x40 MLOAD DUP1 SWAP2 SUB SWAP1 RETURN JUMPDEST CALLVALUE DUP1 ISZERO PUSH2 0x3B7 JUMPI PUSH0 PUSH0 REVERT JUMPDEST POP PUSH2 0x3D2 PUSH1 0x4 DUP1 CALLDATASIZE SUB DUP2 ADD SWAP1 PUSH2 0x3CD SWAP2 SWAP1 PUSH2 0x3FB0 JUMP JUMPDEST PUSH2 0xE0F JUMP JUMPDEST PUSH1 0x40 MLOAD PUSH2 0x3DF SWAP2 SWAP1 PUSH2 0x3D8D JUMP JUMPDEST PUSH1 0x40 MLOAD DUP1 SWAP2 SUB SWAP1 RETURN JUMPDEST CALLVALUE DUP1 ISZERO PUSH2 0x3F3 JUMPI PUSH0 PUSH0 REVERT JUMPDEST POP PUSH2 0x40E PUSH1 0x4 DUP1 CALLDATASIZE SUB DUP2 ADD SWAP1 PUSH2 0x409 SWAP2 SWAP1 PUSH2 0x3FFB JUMP JUMPDEST PUSH2 0xE24 JUMP JUMPDEST PUSH1 0x40 MLOAD PUSH2 0x41B SWAP2 SWAP1 PUSH2 0x4039 JUMP JUMPDEST PUSH1 0x40 MLOAD DUP1 SWAP2 SUB SWAP1 RETURN JUMPDEST CALLVALUE DUP1 ISZERO PUSH2 0x42F JUMPI PUSH0 PUSH0 REVERT JUMPDEST POP PUSH2 0x44A PUSH1 0x4 DUP1 CALLDATASIZE SUB DUP2 ADD SWAP1 PUSH2 0x445 SWAP2 SWAP1 PUSH2 0x3FB0 JUMP JUMPDEST PUSH2 0xE46 JUMP JUMPDEST STOP JUMPDEST CALLVALUE DUP1 ISZERO PUSH2 0x457 JUMPI PUSH0 PUSH0 REVERT JUMPDEST POP PUSH2 0x472 PUSH1 0x4 DUP1 CALLDATASIZE SUB DUP2 ADD SWAP1 PUSH2 0x46D SWAP2 SWAP1 PUSH2 0x3DE1 JUMP JUMPDEST PUSH2 0xF43 JUMP JUMPDEST STOP JUMPDEST CALLVALUE DUP1 ISZERO PUSH2 0x47F JUMPI PUSH0 PUSH0 REVERT JUMPDEST POP PUSH2 0x49A PUSH1 0x4 DUP1 CALLDATASIZE SUB DUP2 ADD SWAP1 PUSH2 0x495 SWAP2 SWAP1 PUSH2 0x3DE1 JUMP JUMPDEST PUSH2 0x126A JUMP JUMPDEST STOP JUMPDEST CALLVALUE DUP1 ISZERO PUSH2 0x4A7 JUMPI PUSH0 PUSH0 REVERT JUMPDEST POP PUSH2 0x4B0 PUSH2 0x139C JUMP JUMPDEST PUSH1 0x40 MLOAD PUSH2 0x4BD SWAP2 SWAP1 PUSH2 0x3D8D JUMP JUMPDEST PUSH1 0x40 MLOAD DUP1 SWAP2 SUB SWAP1 RETURN JUMPDEST CALLVALUE DUP1 ISZERO PUSH2 0x4D1 JUMPI PUSH0 PUSH0 REVERT JUMPDEST POP PUSH2 0x4EC PUSH1 0x4 DUP1 CALLDATASIZE SUB DUP2 ADD SWAP1 PUSH2 0x4E7 SWAP2 SWAP1 PUSH2 0x4052 JUMP JUMPDEST PUSH2 0x13A5 JUMP JUMPDEST PUSH1 0x40 MLOAD PUSH2 0x4F9 SWAP2 SWAP1 PUSH2 0x4039 JUMP JUMPDEST PUSH1 0x40 MLOAD DUP1 SWAP2 SUB SWAP1 RETURN JUMPDEST CALLVALUE DUP1 ISZERO PUSH2 0x50D JUMPI PUSH0 PUSH0 REVERT JUMPDEST POP PUSH2 0x528 PUSH1 0x4 DUP1 CALLDATASIZE SUB DUP2 ADD SWAP1 PUSH2 0x523 SWAP2 SWAP1 PUSH2 0x426C JUMP JUMPDEST PUSH2 0x13D3 JUMP JUMPDEST STOP JUMPDEST CALLVALUE DUP1 ISZERO PUSH2 0x535 JUMPI PUSH0 PUSH0 REVERT JUMPDEST POP PUSH2 0x53E PUSH2 0x1587 JUMP JUMPDEST PUSH1 0x40 MLOAD PUSH2 0x54B SWAP2 SWAP1 PUSH2 0x430F JUMP JUMPDEST PUSH1 0x40 MLOAD DUP1 SWAP2 SUB SWAP1 RETURN JUMPDEST CALLVALUE DUP1 ISZERO PUSH2 0x55F JUMPI PUSH0 PUSH0 REVERT JUMPDEST POP PUSH2 0x57A PUSH1 0x4 DUP1 CALLDATASIZE SUB DUP2 ADD SWAP1 PUSH2 0x575 SWAP2 SWAP1 PUSH2 0x3FFB JUMP JUMPDEST PUSH2 0x158F JUMP JUMPDEST STOP JUMPDEST CALLVALUE DUP1 ISZERO PUSH2 0x587 JUMPI PUSH0 PUSH0 REVERT JUMPDEST POP PUSH2 0x5A2 PUSH1 0x4 DUP1 CALLDATASIZE SUB DUP2 ADD SWAP1 PUSH2 0x59D SWAP2 SWAP1 PUSH2 0x3DE1 JUMP JUMPDEST PUSH2 0x160A JUMP JUMPDEST STOP JUMPDEST CALLVALUE DUP1 ISZERO PUSH2 0x5AF JUMPI PUSH0 PUSH0 REVERT JUMPDEST POP PUSH2 0x5CA PUSH1 0x4 DUP1 CALLDATASIZE SUB DUP2 ADD SWAP1 PUSH2 0x5C5 SWAP2 SWAP1 PUSH2 0x3FFB JUMP JUMPDEST PUSH2 0x1684 JUMP JUMPDEST STOP JUMPDEST CALLVALUE DUP1 ISZERO PUSH2 0x5D7 JUMPI PUSH0 PUSH0 REVERT JUMPDEST POP PUSH2 0x5E0 PUSH2 0x18AF JUMP JUMPDEST PUSH1 0x40 MLOAD PUSH2 0x5ED SWAP2 SWAP1 PUSH2 0x4039 JUMP JUMPDEST PUSH1 0x40 MLOAD DUP1 SWAP2 SUB SWAP1 RETURN JUMPDEST CALLVALUE DUP1 ISZERO PUSH2 0x601 JUMPI PUSH0 PUSH0 REVERT JUMPDEST POP PUSH2 0x60A PUSH2 0x18C4 JUMP JUMPDEST PUSH1 0x40 MLOAD PUSH2 0x617 SWAP2 SWAP1 PUSH2 0x4328 JUMP JUMPDEST PUSH1 0x40 MLOAD DUP1 SWAP2 SUB SWAP1 RETURN JUMPDEST CALLVALUE DUP1 ISZERO PUSH2 0x62B JUMPI PUSH0 PUSH0 REVERT JUMPDEST POP PUSH2 0x646 PUSH1 0x4 DUP1 CALLDATASIZE SUB DUP2 ADD SWAP1 PUSH2 0x641 SWAP2 SWAP1 PUSH2 0x3DE1 JUMP JUMPDEST PUSH2 0x18E9 JUMP JUMPDEST STOP JUMPDEST CALLVALUE DUP1 ISZERO PUSH2 0x653 JUMPI PUSH0 PUSH0 REVERT JUMPDEST POP PUSH2 0x65C PUSH2 0x1A7B JUMP JUMPDEST PUSH1 0x40 MLOAD PUSH2 0x669 SWAP2 SWAP1 PUSH2 0x4328 JUMP JUMPDEST PUSH1 0x40 MLOAD DUP1 SWAP2 SUB SWAP1 RETURN JUMPDEST CALLVALUE DUP1 ISZERO PUSH2 0x67D JUMPI PUSH0 PUSH0 REVERT JUMPDEST POP PUSH2 0x686 PUSH2 0x1AA0 JUMP JUMPDEST PUSH1 0x40 MLOAD PUSH2 0x693 SWAP2 SWAP1 PUSH2 0x3D8D JUMP JUMPDEST PUSH1 0x40 MLOAD DUP1 SWAP2 SUB SWAP1 RETURN JUMPDEST CALLVALUE DUP1 ISZERO PUSH2 0x6A7 JUMPI PUSH0 PUSH0 REVERT JUMPDEST POP PUSH2 0x6C2 PUSH1 0x4 DUP1 CALLDATASIZE SUB DUP2 ADD SWAP1 PUSH2 0x6BD SWAP2 SWAP1 PUSH2 0x3FB0 JUMP JUMPDEST PUSH2 0x1AA6 JUMP JUMPDEST PUSH1 0x40 MLOAD PUSH2 0x6CF SWAP2 SWAP1 PUSH2 0x3D8D JUMP JUMPDEST PUSH1 0x40 MLOAD DUP1 SWAP2 SUB SWAP1 RETURN JUMPDEST CALLVALUE DUP1 ISZERO PUSH2 0x6E3 JUMPI PUSH0 PUSH0 REVERT JUMPDEST POP PUSH2 0x6EC PUSH2 0x1AEB JUMP JUMPDEST STOP JUMPDEST CALLVALUE DUP1 ISZERO PUSH2 0x6F9 JUMPI PUSH0 PUSH0 REVERT JUMPDEST POP PUSH2 0x714 PUSH1 0x4 DUP1 CALLDATASIZE SUB DUP2 ADD SWAP1 PUSH2 0x70F SWAP2 SWAP1 PUSH2 0x3DE1 JUMP JUMPDEST PUSH2 0x1AFE JUMP JUMPDEST STOP JUMPDEST CALLVALUE DUP1 ISZERO PUSH2 0x721 JUMPI PUSH0 PUSH0 REVERT JUMPDEST POP PUSH2 0x72A PUSH2 0x1C52 JUMP JUMPDEST PUSH1 0x40 MLOAD PUSH2 0x737 SWAP2 SWAP1 PUSH2 0x3D8D JUMP JUMPDEST PUSH1 0x40 MLOAD DUP1 SWAP2 SUB SWAP1 RETURN JUMPDEST CALLVALUE DUP1 ISZERO PUSH2 0x74B JUMPI PUSH0 PUSH0 REVERT JUMPDEST POP PUSH2 0x766 PUSH1 0x4 DUP1 CALLDATASIZE SUB DUP2 ADD SWAP1 PUSH2 0x761 SWAP2 SWAP1 PUSH2 0x3DE1 JUMP JUMPDEST PUSH2 0x1C76 JUMP JUMPDEST STOP JUMPDEST CALLVALUE DUP1 ISZERO PUSH2 0x773 JUMPI PUSH0 PUSH0 REVERT JUMPDEST POP PUSH2 0x77C PUSH2 0x1E5B JUMP JUMPDEST PUSH1 0x40 MLOAD PUSH2 0x789 SWAP2 SWAP1 PUSH2 0x4328 JUMP JUMPDEST PUSH1 0x40 MLOAD DUP1 SWAP2 SUB SWAP1 RETURN JUMPDEST CALLVALUE DUP1 ISZERO PUSH2 0x79D JUMPI PUSH0 PUSH0 REVERT JUMPDEST POP PUSH2 0x7A6 PUSH2 0x1E83 JUMP JUMPDEST PUSH1 0x40 MLOAD PUSH2 0x7B3 SWAP2 SWAP1 PUSH2 0x3FDB JUMP JUMPDEST PUSH1 0x40 MLOAD DUP1 SWAP2 SUB SWAP1 RETURN JUMPDEST CALLVALUE DUP1 ISZERO PUSH2 0x7C7 JUMPI PUSH0 PUSH0 REVERT JUMPDEST POP PUSH2 0x7E2 PUSH1 0x4 DUP1 CALLDATASIZE SUB DUP2 ADD SWAP1 PUSH2 0x7DD SWAP2 SWAP1 PUSH2 0x3FFB JUMP JUMPDEST PUSH2 0x1F13 JUMP JUMPDEST STOP JUMPDEST CALLVALUE DUP1 ISZERO PUSH2 0x7EF JUMPI PUSH0 PUSH0 REVERT JUMPDEST POP PUSH2 0x80A PUSH1 0x4 DUP1 CALLDATASIZE SUB DUP2 ADD SWAP1 PUSH2 0x805 SWAP2 SWAP1 PUSH2 0x3FFB JUMP JUMPDEST PUSH2 0x2071 JUMP JUMPDEST STOP JUMPDEST CALLVALUE DUP1 ISZERO PUSH2 0x817 JUMPI PUSH0 PUSH0 REVERT JUMPDEST POP PUSH2 0x832 PUSH1 0x4 DUP1 CALLDATASIZE SUB DUP2 ADD SWAP1 PUSH2 0x82D SWAP2 SWAP1 PUSH2 0x3FFB JUMP JUMPDEST PUSH2 0x21CD JUMP JUMPDEST STOP JUMPDEST CALLVALUE DUP1 ISZERO PUSH2 0x83F JUMPI PUSH0 PUSH0 REVERT JUMPDEST POP PUSH2 0x85A PUSH1 0x4 DUP1 CALLDATASIZE SUB DUP2 ADD SWAP1 PUSH2 0x855 SWAP2 SWAP1 PUSH2 0x3FFB JUMP JUMPDEST PUSH2 0x2462 JUMP JUMPDEST PUSH1 0x40 MLOAD PUSH2 0x867 SWAP2 SWAP1 PUSH2 0x4039 JUMP JUMPDEST PUSH1 0x40 MLOAD DUP1 SWAP2 SUB SWAP1 RETURN JUMPDEST CALLVALUE DUP1 ISZERO PUSH2 0x87B JUMPI PUSH0 PUSH0 REVERT JUMPDEST POP PUSH2 0x884 PUSH2 0x2484 JUMP JUMPDEST PUSH1 0x40 MLOAD PUSH2 0x891 SWAP2 SWAP1 PUSH2 0x4328 JUMP JUMPDEST PUSH1 0x40 MLOAD DUP1 SWAP2 SUB SWAP1 RETURN JUMPDEST CALLVALUE DUP1 ISZERO PUSH2 0x8A5 JUMPI PUSH0 PUSH0 REVERT JUMPDEST POP PUSH2 0x8C0 PUSH1 0x4 DUP1 CALLDATASIZE SUB DUP2 ADD SWAP1 PUSH2 0x8BB SWAP2 SWAP1 PUSH2 0x4341 JUMP JUMPDEST PUSH2 0x24A9 JUMP JUMPDEST STOP JUMPDEST CALLVALUE DUP1 ISZERO PUSH2 0x8CD JUMPI PUSH0 PUSH0 REVERT JUMPDEST POP PUSH2 0x8E8 PUSH1 0x4 DUP1 CALLDATASIZE SUB DUP2 ADD SWAP1 PUSH2 0x8E3 SWAP2 SWAP1 PUSH2 0x3DE1 JUMP JUMPDEST PUSH2 0x2640 JUMP JUMPDEST STOP JUMPDEST CALLVALUE DUP1 ISZERO PUSH2 0x8F5 JUMPI PUSH0 PUSH0 REVERT JUMPDEST POP PUSH2 0x910 PUSH1 0x4 DUP1 CALLDATASIZE SUB DUP2 ADD SWAP1 PUSH2 0x90B SWAP2 SWAP1 PUSH2 0x3FB0 JUMP JUMPDEST PUSH2 0x2848 JUMP JUMPDEST PUSH1 0x40 MLOAD PUSH2 0x91D SWAP2 SWAP1 PUSH2 0x3D8D JUMP JUMPDEST PUSH1 0x40 MLOAD DUP1 SWAP2 SUB SWAP1 RETURN JUMPDEST CALLVALUE DUP1 ISZERO PUSH2 0x931 JUMPI PUSH0 PUSH0 REVERT JUMPDEST POP PUSH2 0x94C PUSH1 0x4 DUP1 CALLDATASIZE SUB DUP2 ADD SWAP1 PUSH2 0x947 SWAP2 SWAP1 PUSH2 0x4391 JUMP JUMPDEST PUSH2 0x285D JUMP JUMPDEST STOP JUMPDEST CALLVALUE DUP1 ISZERO PUSH2 0x959 JUMPI PUSH0 PUSH0 REVERT JUMPDEST POP PUSH2 0x974 PUSH1 0x4 DUP1 CALLDATASIZE SUB DUP2 ADD SWAP1 PUSH2 0x96F SWAP2 SWAP1 PUSH2 0x4341 JUMP JUMPDEST PUSH2 0x2BE2 JUMP JUMPDEST STOP JUMPDEST CALLVALUE DUP1 ISZERO PUSH2 0x981 JUMPI PUSH0 PUSH0 REVERT JUMPDEST POP PUSH2 0x98A PUSH2 0x2EF3 JUMP JUMPDEST STOP JUMPDEST CALLVALUE DUP1 ISZERO PUSH2 0x997 JUMPI PUSH0 PUSH0 REVERT JUMPDEST POP PUSH2 0x9A0 PUSH2 0x302B JUMP JUMPDEST PUSH1 0x40 MLOAD PUSH2 0x9AD SWAP2 SWAP1 PUSH2 0x443C JUMP JUMPDEST PUSH1 0x40 MLOAD DUP1 SWAP2 SUB SWAP1 RETURN JUMPDEST CALLVALUE DUP1 ISZERO PUSH2 0x9C1 JUMPI PUSH0 PUSH0 REVERT JUMPDEST POP PUSH2 0x9DC PUSH1 0x4 DUP1 CALLDATASIZE SUB DUP2 ADD SWAP1 PUSH2 0x9D7 SWAP2 SWAP1 PUSH2 0x3FB0 JUMP JUMPDEST PUSH2 0x3051 JUMP JUMPDEST PUSH1 0x40 MLOAD PUSH2 0x9E9 SWAP2 SWAP1 PUSH2 0x3D8D JUMP JUMPDEST PUSH1 0x40 MLOAD DUP1 SWAP2 SUB SWAP1 RETURN JUMPDEST CALLVALUE DUP1 ISZERO PUSH2 0x9FD JUMPI PUSH0 PUSH0 REVERT JUMPDEST POP PUSH2 0xA18 PUSH1 0x4 DUP1 CALLDATASIZE SUB DUP2 ADD SWAP1 PUSH2 0xA13 SWAP2 SWAP1 PUSH2 0x4455 JUMP JUMPDEST PUSH2 0x3097 JUMP JUMPDEST PUSH1 0x40 MLOAD PUSH2 0xA25 SWAP2 SWAP1 PUSH2 0x3D8D JUMP JUMPDEST PUSH1 0x40 MLOAD DUP1 SWAP2 SUB SWAP1 RETURN JUMPDEST CALLVALUE DUP1 ISZERO PUSH2 0xA39 JUMPI PUSH0 PUSH0 REVERT JUMPDEST POP PUSH2 0xA54 PUSH1 0x4 DUP1 CALLDATASIZE SUB DUP2 ADD SWAP1 PUSH2 0xA4F SWAP2 SWAP1 PUSH2 0x3FB0 JUMP JUMPDEST PUSH2 0x3119 JUMP JUMPDEST PUSH1 0x40 MLOAD PUSH2 0xA61 SWAP2 SWAP1 PUSH2 0x3D8D JUMP JUMPDEST PUSH1 0x40 MLOAD DUP1 SWAP2 SUB SWAP1 RETURN JUMPDEST CALLVALUE DUP1 ISZERO PUSH2 0xA75 JUMPI PUSH0 PUSH0 REVERT JUMPDEST POP PUSH2 0xA90 PUSH1 0x4 DUP1 CALLDATASIZE SUB DUP2 ADD SWAP1 PUSH2 0xA8B SWAP2 SWAP1 PUSH2 0x3FB0 JUMP JUMPDEST PUSH2 0x312E JUMP JUMPDEST STOP JUMPDEST CALLVALUE DUP1 ISZERO PUSH2 0xA9D JUMPI PUSH0 PUSH0 REVERT JUMPDEST POP PUSH2 0xAB8 PUSH1 0x4 DUP1 CALLDATASIZE SUB DUP2 ADD SWAP1 PUSH2 0xAB3 SWAP2 SWAP1 PUSH2 0x3FB0 JUMP JUMPDEST PUSH2 0x31B2 JUMP JUMPDEST PUSH1 0x40 MLOAD PUSH2 0xAC5 SWAP2 SWAP1 PUSH2 0x3D8D JUMP JUMPDEST PUSH1 0x40 MLOAD DUP1 SWAP2 SUB SWAP1 RETURN JUMPDEST CALLVALUE DUP1 ISZERO PUSH2 0xAD9 JUMPI PUSH0 PUSH0 REVERT JUMPDEST POP PUSH2 0xAF4 PUSH1 0x4 DUP1 CALLDATASIZE SUB DUP2 ADD SWAP1 PUSH2 0xAEF SWAP2 SWAP1 PUSH2 0x3FB0 JUMP JUMPDEST PUSH2 0x31C3 JUMP JUMPDEST PUSH1 0x40 MLOAD PUSH2 0xB01 SWAP2 SWAP1 PUSH2 0x3D8D JUMP JUMPDEST PUSH1 0x40 MLOAD DUP1 SWAP2 SUB SWAP1 RETURN JUMPDEST PUSH1 0xD DUP2 DUP2 SLOAD DUP2 LT PUSH2 0xB19 JUMPI PUSH0 DUP1 REVERT JUMPDEST SWAP1 PUSH0 MSTORE PUSH1 0x20 PUSH0 KECCAK256 SWAP1 PUSH1 0x5 MUL ADD PUSH0 SWAP2 POP SWAP1 POP DUP1 PUSH0 ADD DUP1 SLOAD PUSH2 0xB38 SWAP1 PUSH2 0x44C0 JUMP JUMPDEST DUP1 PUSH1 0x1F ADD PUSH1 0x20 DUP1 SWAP2 DIV MUL PUSH1 0x20 ADD PUSH1 0x40 MLOAD SWAP1 DUP2 ADD PUSH1 0x40 MSTORE DUP1 SWAP3 SWAP2 SWAP1 DUP2 DUP2 MSTORE PUSH1 0x20 ADD DUP3 DUP1 SLOAD PUSH2 0xB64 SWAP1 PUSH2 0x44C0 JUMP JUMPDEST DUP1 ISZERO PUSH2 0xBAF JUMPI DUP1 PUSH1 0x1F LT PUSH2 0xB86 JUMPI PUSH2 0x100 DUP1 DUP4 SLOAD DIV MUL DUP4 MSTORE SWAP2 PUSH1 0x20 ADD SWAP2 PUSH2 0xBAF JUMP JUMPDEST DUP3 ADD SWAP2 SWAP1 PUSH0 MSTORE PUSH1 0x20 PUSH0 KECCAK256 SWAP1 JUMPDEST DUP2 SLOAD DUP2 MSTORE SWAP1 PUSH1 0x1 ADD SWAP1 PUSH1 0x20 ADD DUP1 DUP4 GT PUSH2 0xB92 JUMPI DUP3 SWAP1 SUB PUSH1 0x1F AND DUP3 ADD SWAP2 JUMPDEST POP POP POP POP POP SWAP1 DUP1 PUSH1 0x1 ADD SLOAD SWAP1 DUP1 PUSH1 0x3 ADD PUSH0 SWAP1 SLOAD SWAP1 PUSH2 0x100 EXP SWAP1 DIV PUSH1 0xFF AND SWAP1 DUP1 PUSH1 0x3 ADD PUSH1 0x1 SWAP1 SLOAD SWAP1 PUSH2 0x100 EXP SWAP1 DIV PUSH20 0xFFFFFFFFFFFFFFFFFFFFFFFFFFFFFFFFFFFFFFFF AND SWAP1 DUP1 PUSH1 0x4 ADD DUP1 SLOAD PUSH2 0xC02 SWAP1 PUSH2 0x44C0 JUMP JUMPDEST DUP1 PUSH1 0x1F ADD PUSH1 0x20 DUP1 SWAP2 DIV MUL PUSH1 0x20 ADD PUSH1 0x40 MLOAD SWAP1 DUP2 ADD PUSH1 0x40 MSTORE DUP1 SWAP3 SWAP2 SWAP1 DUP2 DUP2 MSTORE PUSH1 0x20 ADD DUP3 DUP1 SLOAD PUSH2 0xC2E SWAP1 PUSH2 0x44C0 JUMP JUMPDEST DUP1 ISZERO PUSH2 0xC79 JUMPI DUP1 PUSH1 0x1F LT PUSH2 0xC50 JUMPI PUSH2 0x100 DUP1 DUP4 SLOAD DIV MUL DUP4 MSTORE SWAP2 PUSH1 0x20 ADD SWAP2 PUSH2 0xC79 JUMP JUMPDEST DUP3 ADD SWAP2 SWAP1 PUSH0 MSTORE PUSH1 0x20 PUSH0 KECCAK256 SWAP1 JUMPDEST DUP2 SLOAD DUP2 MSTORE SWAP1 PUSH1 0x1 ADD SWAP1 PUSH1 0x20 ADD DUP1 DUP4 GT PUSH2 0xC5C JUMPI DUP3 SWAP1 SUB PUSH1 0x1F AND DUP3 ADD SWAP2 JUMPDEST POP POP POP POP POP SWAP1 POP DUP6 JUMP JUMPDEST PUSH2 0xC8B PUSH2 0x31D8 JUMP JUMPDEST PUSH0 PUSH20 0xFFFFFFFFFFFFFFFFFFFFFFFFFFFFFFFFFFFFFFFF AND DUP2 PUSH20 0xFFFFFFFFFFFFFFFFFFFFFFFFFFFFFFFFFFFFFFFF AND SUB PUSH2 0xCF9 JUMPI PUSH1 0x40 MLOAD PUSH32 0x8C379A000000000000000000000000000000000000000000000000000000000 DUP2 MSTORE PUSH1 0x4 ADD PUSH2 0xCF0 SWAP1 PUSH2 0x453A JUMP JUMPDEST PUSH1 0x40 MLOAD DUP1 SWAP2 SUB SWAP1 REVERT JUMPDEST DUP1 PUSH1 0x8 PUSH0 PUSH2 0x100 EXP DUP2 SLOAD DUP2 PUSH20 0xFFFFFFFFFFFFFFFFFFFFFFFFFFFFFFFFFFFFFFFF MUL NOT AND SWAP1 DUP4 PUSH20 0xFFFFFFFFFFFFFFFFFFFFFFFFFFFFFFFFFFFFFFFF AND MUL OR SWAP1 SSTORE POP DUP1 PUSH20 0xFFFFFFFFFFFFFFFFFFFFFFFFFFFFFFFFFFFFFFFF AND PUSH32 0xEDF1A035D265F6321083031B40ACF4E5E06CD3E2E2025192FD308409B13B44C6 PUSH1 0x40 MLOAD PUSH1 0x40 MLOAD DUP1 SWAP2 SUB SWAP1 LOG2 POP JUMP JUMPDEST PUSH1 0x60 PUSH1 0x3 DUP1 SLOAD PUSH2 0xD8E SWAP1 PUSH2 0x44C0 JUMP JUMPDEST DUP1 PUSH1 0x1F ADD PUSH1 0x20 DUP1 SWAP2 DIV MUL PUSH1 0x20 ADD PUSH1 0x40 MLOAD SWAP1 DUP2 ADD PUSH1 0x40 MSTORE DUP1 SWAP3 SWAP2 SWAP1 DUP2 DUP2 MSTORE PUSH1 0x20 ADD DUP3 DUP1 SLOAD PUSH2 0xDBA SWAP1 PUSH2 0x44C0 JUMP JUMPDEST DUP1 ISZERO PUSH2 0xE05 JUMPI DUP1 PUSH1 0x1F LT PUSH2 0xDDC JUMPI PUSH2 0x100 DUP1 DUP4 SLOAD DIV MUL DUP4 MSTORE SWAP2 PUSH1 0x20 ADD SWAP2 PUSH2 0xE05 JUMP JUMPDEST DUP3 ADD SWAP2 SWAP1 PUSH0 MSTORE PUSH1 0x20 PUSH0 KECCAK256 SWAP1 JUMPDEST DUP2 SLOAD DUP2 MSTORE SWAP1 PUSH1 0x1 ADD SWAP1 PUSH1 0x20 ADD DUP1 DUP4 GT PUSH2 0xDE8 JUMPI DUP3 SWAP1 SUB PUSH1 0x1F AND DUP3 ADD SWAP2 JUMPDEST POP POP POP POP POP SWAP1 POP SWAP1 JUMP JUMPDEST PUSH1 0xF PUSH1 0x20 MSTORE DUP1 PUSH0 MSTORE PUSH1 0x40 PUSH0 KECCAK256 PUSH0 SWAP2 POP SWAP1 POP SLOAD DUP2 JUMP JUMPDEST PUSH0 PUSH0 PUSH2 0xE2E PUSH2 0x325F JUMP JUMPDEST SWAP1 POP PUSH2 0xE3B DUP2 DUP6 DUP6 PUSH2 0x3266 JUMP JUMPDEST PUSH1 0x1 SWAP2 POP POP SWAP3 SWAP2 POP POP JUMP JUMPDEST PUSH2 0xE4E PUSH2 0x31D8 JUMP JUMPDEST PUSH0 PUSH20 0xFFFFFFFFFFFFFFFFFFFFFFFFFFFFFFFFFFFFFFFF AND DUP2 PUSH20 0xFFFFFFFFFFFFFFFFFFFFFFFFFFFFFFFFFFFFFFFF AND SUB PUSH2 0xEBC JUMPI PUSH1 0x40 MLOAD PUSH32 0x8C379A000000000000000000000000000000000000000000000000000000000 DUP2 MSTORE PUSH1 0x4 ADD PUSH2 0xEB3 SWAP1 PUSH2 0x45A2 JUMP JUMPDEST PUSH1 0x40 MLOAD DUP1 SWAP2 SUB SWAP1 REVERT JUMPDEST DUP1 PUSH1 0x7 PUSH1 0x1 PUSH2 0x100 EXP DUP2 SLOAD DUP2 PUSH20 0xFFFFFFFFFFFFFFFFFFFFFFFFFFFFFFFFFFFFFFFF MUL NOT AND SWAP1 DUP4 PUSH20 0xFFFFFFFFFFFFFFFFFFFFFFFFFFFFFFFFFFFFFFFF AND MUL OR SWAP1 SSTORE POP DUP1 PUSH20 0xFFFFFFFFFFFFFFFFFFFFFFFFFFFFFFFFFFFFFFFF AND PUSH32 0x5CBD8A0BB00196365D5EB3457C6734E7F06666C3C78E5469B4C9DEEC7EDAE048 PUSH1 0x40 MLOAD PUSH1 0x40 MLOAD DUP1 SWAP2 SUB SWAP1 LOG2 POP JUMP JUMPDEST PUSH2 0xF4B PUSH2 0x31D8 JUMP JUMPDEST PUSH1 0xD DUP1 SLOAD SWAP1 POP DUP2 LT PUSH2 0xF92 JUMPI PUSH1 0x40 MLOAD PUSH32 0x8C379A000000000000000000000000000000000000000000000000000000000 DUP2 MSTORE PUSH1 0x4 ADD PUSH2 0xF89 SWAP1 PUSH2 0x460A JUMP JUMPDEST PUSH1 0x40 MLOAD DUP1 SWAP2 SUB SWAP1 REVERT JUMPDEST PUSH0 PUSH1 0xD DUP3 DUP2 SLOAD DUP2 LT PUSH2 0xFA7 JUMPI PUSH2 0xFA6 PUSH2 0x4628 JUMP JUMPDEST JUMPDEST SWAP1 PUSH0 MSTORE PUSH1 0x20 PUSH0 KECCAK256 SWAP1 PUSH1 0x5 MUL ADD SWAP1 POP DUP1 PUSH1 0x3 ADD PUSH0 SWAP1 SLOAD SWAP1 PUSH2 0x100 EXP SWAP1 DIV PUSH1 0xFF AND ISZERO PUSH2 0x1006 JUMPI PUSH1 0x40 MLOAD PUSH32 0x8C379A000000000000000000000000000000000000000000000000000000000 DUP2 MSTORE PUSH1 0x4 ADD PUSH2 0xFFD SWAP1 PUSH2 0x469F JUMP JUMPDEST PUSH1 0x40 MLOAD DUP1 SWAP2 SUB SWAP1 REVERT JUMPDEST PUSH1 0x2 PUSH2 0x1010 PUSH2 0x139C JUMP JUMPDEST PUSH2 0x101A SWAP2 SWAP1 PUSH2 0x4717 JUMP JUMPDEST DUP2 PUSH1 0x1 ADD SLOAD GT PUSH2 0x105F JUMPI PUSH1 0x40 MLOAD PUSH32 0x8C379A000000000000000000000000000000000000000000000000000000000 DUP2 MSTORE PUSH1 0x4 ADD PUSH2 0x1056 SWAP1 PUSH2 0x4791 JUMP JUMPDEST PUSH1 0x40 MLOAD DUP1 SWAP2 SUB SWAP1 REVERT JUMPDEST PUSH0 PUSH20 0xFFFFFFFFFFFFFFFFFFFFFFFFFFFFFFFFFFFFFFFF AND DUP2 PUSH1 0x3 ADD PUSH1 0x1 SWAP1 SLOAD SWAP1 PUSH2 0x100 EXP SWAP1 DIV PUSH20 0xFFFFFFFFFFFFFFFFFFFFFFFFFFFFFFFFFFFFFFFF AND PUSH20 0xFFFFFFFFFFFFFFFFFFFFFFFFFFFFFFFFFFFFFFFF AND SUB PUSH2 0x10F1 JUMPI PUSH1 0x40 MLOAD PUSH32 0x8C379A000000000000000000000000000000000000000000000000000000000 DUP2 MSTORE PUSH1 0x4 ADD PUSH2 0x10E8 SWAP1 PUSH2 0x47F9 JUMP JUMPDEST PUSH1 0x40 MLOAD DUP1 SWAP2 SUB SWAP1 REVERT JUMPDEST PUSH0 DUP2 PUSH1 0x4 ADD DUP1 SLOAD PUSH2 0x1101 SWAP1 PUSH2 0x44C0 JUMP JUMPDEST SWAP1 POP GT PUSH2 0x1143 JUMPI PUSH1 0x40 MLOAD PUSH32 0x8C379A000000000000000000000000000000000000000000000000000000000 DUP2 MSTORE PUSH1 0x4 ADD PUSH2 0x113A SWAP1 PUSH2 0x4861 JUMP JUMPDEST PUSH1 0x40 MLOAD DUP1 SWAP2 SUB SWAP1 REVERT JUMPDEST PUSH0 DUP2 PUSH1 0x3 ADD PUSH1 0x1 SWAP1 SLOAD SWAP1 PUSH2 0x100 EXP SWAP1 DIV PUSH20 0xFFFFFFFFFFFFFFFFFFFFFFFFFFFFFFFFFFFFFFFF AND PUSH20 0xFFFFFFFFFFFFFFFFFFFFFFFFFFFFFFFFFFFFFFFF AND DUP3 PUSH1 0x4 ADD PUSH1 0x40 MLOAD PUSH2 0x1190 SWAP2 SWAP1 PUSH2 0x491B JUMP JUMPDEST PUSH0 PUSH1 0x40 MLOAD DUP1 DUP4 SUB DUP2 PUSH0 DUP7 GAS CALL SWAP2 POP POP RETURNDATASIZE DUP1 PUSH0 DUP2 EQ PUSH2 0x11C9 JUMPI PUSH1 0x40 MLOAD SWAP2 POP PUSH1 0x1F NOT PUSH1 0x3F RETURNDATASIZE ADD AND DUP3 ADD PUSH1 0x40 MSTORE RETURNDATASIZE DUP3 MSTORE RETURNDATASIZE PUSH0 PUSH1 0x20 DUP5 ADD RETURNDATACOPY PUSH2 0x11CE JUMP JUMPDEST PUSH1 0x60 SWAP2 POP JUMPDEST POP POP SWAP1 POP DUP1 PUSH2 0x1212 JUMPI PUSH1 0x40 MLOAD PUSH32 0x8C379A000000000000000000000000000000000000000000000000000000000 DUP2 MSTORE PUSH1 0x4 ADD PUSH2 0x1209 SWAP1 PUSH2 0x497B JUMP JUMPDEST PUSH1 0x40 MLOAD DUP1 SWAP2 SUB SWAP1 REVERT JUMPDEST PUSH1 0x1 DUP3 PUSH1 0x3 ADD PUSH0 PUSH2 0x100 EXP DUP2 SLOAD DUP2 PUSH1 0xFF MUL NOT AND SWAP1 DUP4 ISZERO ISZERO MUL OR SWAP1 SSTORE POP PUSH32 0x712AE1383F79AC853F8D882153778E0260EF8F03B504E2866E0593E04D2B291F DUP4 PUSH1 0x40 MLOAD PUSH2 0x125D SWAP2 SWAP1 PUSH2 0x3D8D JUMP JUMPDEST PUSH1 0x40 MLOAD DUP1 SWAP2 SUB SWAP1 LOG1 POP POP POP JUMP JUMPDEST PUSH2 0x1272 PUSH2 0x3278 JUMP JUMPDEST PUSH2 0x127A PUSH2 0x31D8 JUMP JUMPDEST PUSH0 DUP2 GT PUSH2 0x12BC JUMPI PUSH1 0x40 MLOAD PUSH32 0x8C379A000000000000000000000000000000000000000000000000000000000 DUP2 MSTORE PUSH1 0x4 ADD PUSH2 0x12B3 SWAP1 PUSH2 0x49E3 JUMP JUMPDEST PUSH1 0x40 MLOAD DUP1 SWAP2 SUB SWAP1 REVERT JUMPDEST DUP1 SELFBALANCE LT ISZERO PUSH2 0x12FF JUMPI PUSH1 0x40 MLOAD PUSH32 0x8C379A000000000000000000000000000000000000000000000000000000000 DUP2 MSTORE PUSH1 0x4 ADD PUSH2 0x12F6 SWAP1 PUSH2 0x4A4B JUMP JUMPDEST PUSH1 0x40 MLOAD DUP1 SWAP2 SUB SWAP1 REVERT JUMPDEST CALLER PUSH20 0xFFFFFFFFFFFFFFFFFFFFFFFFFFFFFFFFFFFFFFFF AND PUSH2 0x8FC DUP3 SWAP1 DUP2 ISZERO MUL SWAP1 PUSH1 0x40 MLOAD PUSH0 PUSH1 0x40 MLOAD DUP1 DUP4 SUB DUP2 DUP6 DUP9 DUP9 CALL SWAP4 POP POP POP POP ISZERO DUP1 ISZERO PUSH2 0x1342 JUMPI RETURNDATASIZE PUSH0 PUSH0 RETURNDATACOPY RETURNDATASIZE PUSH0 REVERT JUMPDEST POP CALLER PUSH20 0xFFFFFFFFFFFFFFFFFFFFFFFFFFFFFFFFFFFFFFFF AND PUSH32 0x3453150AA1E6DA6BBA12930D5C776E24C722785C752A9C3EAD60CBC188D18215 DUP3 PUSH1 0x40 MLOAD PUSH2 0x1389 SWAP2 SWAP1 PUSH2 0x3D8D JUMP JUMPDEST PUSH1 0x40 MLOAD DUP1 SWAP2 SUB SWAP1 LOG2 PUSH2 0x1399 PUSH2 0x32C7 JUMP JUMPDEST POP JUMP JUMPDEST PUSH0 PUSH1 0x2 SLOAD SWAP1 POP SWAP1 JUMP JUMPDEST PUSH0 PUSH0 PUSH2 0x13AF PUSH2 0x325F JUMP JUMPDEST SWAP1 POP PUSH2 0x13BC DUP6 DUP3 DUP6 PUSH2 0x32D1 JUMP JUMPDEST PUSH2 0x13C7 DUP6 DUP6 DUP6 PUSH2 0x3364 JUMP JUMPDEST PUSH1 0x1 SWAP2 POP POP SWAP4 SWAP3 POP POP POP JUMP JUMPDEST PUSH2 0x13DB PUSH2 0x31D8 JUMP JUMPDEST PUSH0 PUSH20 0xFFFFFFFFFFFFFFFFFFFFFFFFFFFFFFFFFFFFFFFF AND DUP3 PUSH20 0xFFFFFFFFFFFFFFFFFFFFFFFFFFFFFFFFFFFFFFFF AND SUB PUSH2 0x1449 JUMPI PUSH1 0x40 MLOAD PUSH32 0x8C379A000000000000000000000000000000000000000000000000000000000 DUP2 MSTORE PUSH1 0x4 ADD PUSH2 0x1440 SWAP1 PUSH2 0x47F9 JUMP JUMPDEST PUSH1 0x40 MLOAD DUP1 SWAP2 SUB SWAP1 REVERT JUMPDEST PUSH0 DUP2 MLOAD GT PUSH2 0x148C JUMPI PUSH1 0x40 MLOAD PUSH32 0x8C379A000000000000000000000000000000000000000000000000000000000 DUP2 MSTORE PUSH1 0x4 ADD PUSH2 0x1483 SWAP1 PUSH2 0x4861 JUMP JUMPDEST PUSH1 0x40 MLOAD DUP1 SWAP2 SUB SWAP1 REVERT JUMPDEST PUSH0 PUSH1 0xD PUSH1 0x1 DUP2 PUSH1 0x1 DUP2 SLOAD ADD DUP1 DUP3 SSTORE DUP1 SWAP2 POP POP SUB SWAP1 PUSH0 MSTORE PUSH1 0x20 PUSH0 KECCAK256 SWAP1 PUSH1 0x5 MUL ADD SWAP1 POP DUP4 DUP2 PUSH0 ADD SWAP1 DUP2 PUSH2 0x14BD SWAP2 SWAP1 PUSH2 0x4C00 JUMP JUMPDEST POP PUSH0 DUP2 PUSH1 0x1 ADD DUP2 SWAP1 SSTORE POP PUSH0 DUP2 PUSH1 0x3 ADD PUSH0 PUSH2 0x100 EXP DUP2 SLOAD DUP2 PUSH1 0xFF MUL NOT AND SWAP1 DUP4 ISZERO ISZERO MUL OR SWAP1 SSTORE POP DUP3 DUP2 PUSH1 0x3 ADD PUSH1 0x1 PUSH2 0x100 EXP DUP2 SLOAD DUP2 PUSH20 0xFFFFFFFFFFFFFFFFFFFFFFFFFFFFFFFFFFFFFFFF MUL NOT AND SWAP1 DUP4 PUSH20 0xFFFFFFFFFFFFFFFFFFFFFFFFFFFFFFFFFFFFFFFF AND MUL OR SWAP1 SSTORE POP DUP2 DUP2 PUSH1 0x4 ADD SWAP1 DUP2 PUSH2 0x1536 SWAP2 SWAP1 PUSH2 0x4D15 JUMP JUMPDEST POP PUSH32 0x9C770C289AB5BF7E57CB1D23C8CEAE993AEA46EB64847072FD3D78CA60D3E432 PUSH1 0x1 PUSH1 0xD DUP1 SLOAD SWAP1 POP PUSH2 0x156A SWAP2 SWAP1 PUSH2 0x4DE4 JUMP JUMPDEST DUP6 PUSH1 0x40 MLOAD PUSH2 0x1579 SWAP3 SWAP2 SWAP1 PUSH2 0x4E17 JUMP JUMPDEST PUSH1 0x40 MLOAD DUP1 SWAP2 SUB SWAP1 LOG1 POP POP POP POP JUMP JUMPDEST PUSH0 PUSH1 0x12 SWAP1 POP SWAP1 JUMP JUMPDEST PUSH2 0x1597 PUSH2 0x31D8 JUMP JUMPDEST PUSH2 0x15A1 DUP3 DUP3 PUSH2 0x3454 JUMP JUMPDEST DUP2 PUSH20 0xFFFFFFFFFFFFFFFFFFFFFFFFFFFFFFFFFFFFFFFF AND PUSH0 PUSH20 0xFFFFFFFFFFFFFFFFFFFFFFFFFFFFFFFFFFFFFFFF AND PUSH32 0xDDF252AD1BE2C89B69C2B068FC378DAA952BA7F163C4A11628F55A4DF523B3EF DUP4 PUSH1 0x40 MLOAD PUSH2 0x15FE SWAP2 SWAP1 PUSH2 0x3D8D JUMP JUMPDEST PUSH1 0x40 MLOAD DUP1 SWAP2 SUB SWAP1 LOG3 POP POP JUMP JUMPDEST PUSH2 0x1612 PUSH2 0x31D8 JUMP JUMPDEST PUSH2 0x161C CALLER DUP3 PUSH2 0x34D3 JUMP JUMPDEST PUSH0 PUSH20 0xFFFFFFFFFFFFFFFFFFFFFFFFFFFFFFFFFFFFFFFF AND CALLER PUSH20 0xFFFFFFFFFFFFFFFFFFFFFFFFFFFFFFFFFFFFFFFF AND PUSH32 0xDDF252AD1BE2C89B69C2B068FC378DAA952BA7F163C4A11628F55A4DF523B3EF DUP4 PUSH1 0x40 MLOAD PUSH2 0x1679 SWAP2 SWAP1 PUSH2 0x3D8D JUMP JUMPDEST PUSH1 0x40 MLOAD DUP1 SWAP2 SUB SWAP1 LOG3 POP JUMP JUMPDEST PUSH2 0x168C PUSH2 0x3278 JUMP JUMPDEST PUSH2 0x1694 PUSH2 0x3552 JUMP JUMPDEST PUSH0 PUSH20 0xFFFFFFFFFFFFFFFFFFFFFFFFFFFFFFFFFFFFFFFF AND DUP3 PUSH20 0xFFFFFFFFFFFFFFFFFFFFFFFFFFFFFFFFFFFFFFFF AND SUB PUSH2 0x1702 JUMPI PUSH1 0x40 MLOAD PUSH32 0x8C379A000000000000000000000000000000000000000000000000000000000 DUP2 MSTORE PUSH1 0x4 ADD PUSH2 0x16F9 SWAP1 PUSH2 0x4E8F JUMP JUMPDEST PUSH1 0x40 MLOAD DUP1 SWAP2 SUB SWAP1 REVERT JUMPDEST PUSH0 DUP2 GT PUSH2 0x1744 JUMPI PUSH1 0x40 MLOAD PUSH32 0x8C379A000000000000000000000000000000000000000000000000000000000 DUP2 MSTORE PUSH1 0x4 ADD PUSH2 0x173B SWAP1 PUSH2 0x49E3 JUMP JUMPDEST PUSH1 0x40 MLOAD DUP1 SWAP2 SUB SWAP1 REVERT JUMPDEST PUSH0 PUSH20 0xFFFFFFFFFFFFFFFFFFFFFFFFFFFFFFFFFFFFFFFF AND PUSH1 0x8 PUSH0 SWAP1 SLOAD SWAP1 PUSH2 0x100 EXP SWAP1 DIV PUSH20 0xFFFFFFFFFFFFFFFFFFFFFFFFFFFFFFFFFFFFFFFF AND PUSH20 0xFFFFFFFFFFFFFFFFFFFFFFFFFFFFFFFFFFFFFFFF AND SUB PUSH2 0x17D3 JUMPI PUSH1 0x40 MLOAD PUSH32 0x8C379A000000000000000000000000000000000000000000000000000000000 DUP2 MSTORE PUSH1 0x4 ADD PUSH2 0x17CA SWAP1 PUSH2 0x4EF7 JUMP JUMPDEST PUSH1 0x40 MLOAD DUP1 SWAP2 SUB SWAP1 REVERT JUMPDEST PUSH2 0x1800 CALLER ADDRESS DUP4 DUP6 PUSH20 0xFFFFFFFFFFFFFFFFFFFFFFFFFFFFFFFFFFFFFFFF AND PUSH2 0x359C SWAP1 SWAP4 SWAP3 SWAP2 SWAP1 PUSH4 0xFFFFFFFF AND JUMP JUMPDEST DUP1 PUSH1 0xC PUSH0 CALLER PUSH20 0xFFFFFFFFFFFFFFFFFFFFFFFFFFFFFFFFFFFFFFFF AND PUSH20 0xFFFFFFFFFFFFFFFFFFFFFFFFFFFFFFFFFFFFFFFF AND DUP2 MSTORE PUSH1 0x20 ADD SWAP1 DUP2 MSTORE PUSH1 0x20 ADD PUSH0 KECCAK256 PUSH0 DUP3 DUP3 SLOAD PUSH2 0x184C SWAP2 SWAP1 PUSH2 0x4F15 JUMP JUMPDEST SWAP3 POP POP DUP2 SWAP1 SSTORE POP CALLER PUSH20 0xFFFFFFFFFFFFFFFFFFFFFFFFFFFFFFFFFFFFFFFF AND PUSH32 0xA21288BDD948F634BCD5A8BFC9825DB1B01914F370EF82149E123B7C8DC3B65B DUP3 DUP5 PUSH1 0x40 MLOAD PUSH2 0x189B SWAP3 SWAP2 SWAP1 PUSH2 0x4F48 JUMP JUMPDEST PUSH1 0x40 MLOAD DUP1 SWAP2 SUB SWAP1 LOG2 PUSH2 0x18AB PUSH2 0x32C7 JUMP JUMPDEST POP POP JUMP JUMPDEST PUSH0 PUSH1 0x7 PUSH0 SWAP1 SLOAD SWAP1 PUSH2 0x100 EXP SWAP1 DIV PUSH1 0xFF AND SWAP1 POP SWAP1 JUMP JUMPDEST PUSH1 0x9 PUSH0 SWAP1 SLOAD SWAP1 PUSH2 0x100 EXP SWAP1 DIV PUSH20 0xFFFFFFFFFFFFFFFFFFFFFFFFFFFFFFFFFFFFFFFF AND DUP2 JUMP JUMPDEST PUSH2 0x18F1 PUSH2 0x3278 JUMP JUMPDEST PUSH2 0x18F9 PUSH2 0x3552 JUMP JUMPDEST PUSH0 DUP2 GT PUSH2 0x193B JUMPI PUSH1 0x40 MLOAD PUSH32 0x8C379A000000000000000000000000000000000000000000000000000000000 DUP2 MSTORE PUSH1 0x4 ADD PUSH2 0x1932 SWAP1 PUSH2 0x49E3 JUMP JUMPDEST PUSH1 0x40 MLOAD DUP1 SWAP2 SUB SWAP1 REVERT JUMPDEST DUP1 PUSH1 0xE PUSH0 CALLER PUSH20 0xFFFFFFFFFFFFFFFFFFFFFFFFFFFFFFFFFFFFFFFF AND PUSH20 0xFFFFFFFFFFFFFFFFFFFFFFFFFFFFFFFFFFFFFFFF AND DUP2 MSTORE PUSH1 0x20 ADD SWAP1 DUP2 MSTORE PUSH1 0x20 ADD PUSH0 KECCAK256 SLOAD LT ISZERO PUSH2 0x19BB JUMPI PUSH1 0x40 MLOAD PUSH32 0x8C379A000000000000000000000000000000000000000000000000000000000 DUP2 MSTORE PUSH1 0x4 ADD PUSH2 0x19B2 SWAP1 PUSH2 0x4FB9 JUMP JUMPDEST PUSH1 0x40 MLOAD DUP1 SWAP2 SUB SWAP1 REVERT JUMPDEST PUSH2 0x19C4 CALLER PUSH2 0x361E JUMP JUMPDEST DUP1 PUSH1 0xE PUSH0 CALLER PUSH20 0xFFFFFFFFFFFFFFFFFFFFFFFFFFFFFFFFFFFFFFFF AND PUSH20 0xFFFFFFFFFFFFFFFFFFFFFFFFFFFFFFFFFFFFFFFF AND DUP2 MSTORE PUSH1 0x20 ADD SWAP1 DUP2 MSTORE PUSH1 0x20 ADD PUSH0 KECCAK256 PUSH0 DUP3 DUP3 SLOAD PUSH2 0x1A10 SWAP2 SWAP1 PUSH2 0x4DE4 JUMP JUMPDEST SWAP3 POP POP DUP2 SWAP1 SSTORE POP PUSH2 0x1A22 ADDRESS CALLER DUP4 PUSH2 0x3364 JUMP JUMPDEST CALLER PUSH20 0xFFFFFFFFFFFFFFFFFFFFFFFFFFFFFFFFFFFFFFFF AND PUSH32 0xF5BB82176FEB1B5E747E28471AA92156A04D9F3AB9F45F28E2D704232B93F75 DUP3 PUSH1 0x40 MLOAD PUSH2 0x1A68 SWAP2 SWAP1 PUSH2 0x3D8D JUMP JUMPDEST PUSH1 0x40 MLOAD DUP1 SWAP2 SUB SWAP1 LOG2 PUSH2 0x1A78 PUSH2 0x32C7 JUMP JUMPDEST POP JUMP JUMPDEST PUSH1 0x8 PUSH0 SWAP1 SLOAD SWAP1 PUSH2 0x100 EXP SWAP1 DIV PUSH20 0xFFFFFFFFFFFFFFFFFFFFFFFFFFFFFFFFFFFFFFFF AND DUP2 JUMP JUMPDEST PUSH1 0xB SLOAD DUP2 JUMP JUMPDEST PUSH0 PUSH0 PUSH0 DUP4 PUSH20 0xFFFFFFFFFFFFFFFFFFFFFFFFFFFFFFFFFFFFFFFF AND PUSH20 0xFFFFFFFFFFFFFFFFFFFFFFFFFFFFFFFFFFFFFFFF AND DUP2 MSTORE PUSH1 0x20 ADD SWAP1 DUP2 MSTORE PUSH1 0x20 ADD PUSH0 KECCAK256 SLOAD SWAP1 POP SWAP2 SWAP1 POP JUMP JUMPDEST PUSH2 0x1AF3 PUSH2 0x31D8 JUMP JUMPDEST PUSH2 0x1AFC PUSH0 PUSH2 0x3789 JUMP JUMPDEST JUMP JUMPDEST PUSH2 0x1B06 PUSH2 0x3278 JUMP JUMPDEST PUSH2 0x1B0E PUSH2 0x3552 JUMP JUMPDEST PUSH0 DUP2 GT PUSH2 0x1B50 JUMPI PUSH1 0x40 MLOAD PUSH32 0x8C379A000000000000000000000000000000000000000000000000000000000 DUP2 MSTORE PUSH1 0x4 ADD PUSH2 0x1B47 SWAP1 PUSH2 0x49E3 JUMP JUMPDEST PUSH1 0x40 MLOAD DUP1 SWAP2 SUB SWAP1 REVERT JUMPDEST PUSH2 0x1B5B CALLER ADDRESS DUP4 PUSH2 0x3364 JUMP JUMPDEST DUP1 PUSH1 0xE PUSH0 CALLER PUSH20 0xFFFFFFFFFFFFFFFFFFFFFFFFFFFFFFFFFFFFFFFF AND PUSH20 0xFFFFFFFFFFFFFFFFFFFFFFFFFFFFFFFFFFFFFFFF AND DUP2 MSTORE PUSH1 0x20 ADD SWAP1 DUP2 MSTORE PUSH1 0x20 ADD PUSH0 KECCAK256 PUSH0 DUP3 DUP3 SLOAD PUSH2 0x1BA7 SWAP2 SWAP1 PUSH2 0x4F15 JUMP JUMPDEST SWAP3 POP POP DUP2 SWAP1 SSTORE POP PUSH2 0x1BB7 CALLER PUSH2 0x361E JUMP JUMPDEST TIMESTAMP PUSH1 0x10 PUSH0 CALLER PUSH20 0xFFFFFFFFFFFFFFFFFFFFFFFFFFFFFFFFFFFFFFFF AND PUSH20 0xFFFFFFFFFFFFFFFFFFFFFFFFFFFFFFFFFFFFFFFF AND DUP2 MSTORE PUSH1 0x20 ADD SWAP1 DUP2 MSTORE PUSH1 0x20 ADD PUSH0 KECCAK256 DUP2 SWAP1 SSTORE POP CALLER PUSH20 0xFFFFFFFFFFFFFFFFFFFFFFFFFFFFFFFFFFFFFFFF AND PUSH32 0x9E71BC8EEA02A63969F509818F2DAFB9254532904319F9DBDA79B67BD34A5F3D DUP3 PUSH1 0x40 MLOAD PUSH2 0x1C3F SWAP2 SWAP1 PUSH2 0x3D8D JUMP JUMPDEST PUSH1 0x40 MLOAD DUP1 SWAP2 SUB SWAP1 LOG2 PUSH2 0x1C4F PUSH2 0x32C7 JUMP JUMPDEST POP JUMP JUMPDEST PUSH32 0x0 DUP2 JUMP JUMPDEST PUSH2 0x1C7E PUSH2 0x3278 JUMP JUMPDEST PUSH2 0x1C86 PUSH2 0x3552 JUMP JUMPDEST PUSH0 DUP2 GT PUSH2 0x1CC8 JUMPI PUSH1 0x40 MLOAD PUSH32 0x8C379A000000000000000000000000000000000000000000000000000000000 DUP2 MSTORE PUSH1 0x4 ADD PUSH2 0x1CBF SWAP1 PUSH2 0x49E3 JUMP JUMPDEST PUSH1 0x40 MLOAD DUP1 SWAP2 SUB SWAP1 REVERT JUMPDEST DUP1 PUSH1 0xA PUSH0 SWAP1 SLOAD SWAP1 PUSH2 0x100 EXP SWAP1 DIV PUSH20 0xFFFFFFFFFFFFFFFFFFFFFFFFFFFFFFFFFFFFFFFF AND PUSH20 0xFFFFFFFFFFFFFFFFFFFFFFFFFFFFFFFFFFFFFFFF AND PUSH4 0x70A08231 CALLER PUSH1 0x40 MLOAD DUP3 PUSH4 0xFFFFFFFF AND PUSH1 0xE0 SHL DUP2 MSTORE PUSH1 0x4 ADD PUSH2 0x1D23 SWAP2 SWAP1 PUSH2 0x4328 JUMP JUMPDEST PUSH1 0x20 PUSH1 0x40 MLOAD DUP1 DUP4 SUB DUP2 DUP7 GAS STATICCALL ISZERO DUP1 ISZERO PUSH2 0x1D3E JUMPI RETURNDATASIZE PUSH0 PUSH0 RETURNDATACOPY RETURNDATASIZE PUSH0 REVERT JUMPDEST POP POP POP POP PUSH1 0x40 MLOAD RETURNDATASIZE PUSH1 0x1F NOT PUSH1 0x1F DUP3 ADD AND DUP3 ADD DUP1 PUSH1 0x40 MSTORE POP DUP2 ADD SWAP1 PUSH2 0x1D62 SWAP2 SWAP1 PUSH2 0x4FEB JUMP JUMPDEST LT ISZERO PUSH2 0x1DA3 JUMPI PUSH1 0x40 MLOAD PUSH32 0x8C379A000000000000000000000000000000000000000000000000000000000 DUP2 MSTORE PUSH1 0x4 ADD PUSH2 0x1D9A SWAP1 PUSH2 0x5060 JUMP JUMPDEST PUSH1 0x40 MLOAD DUP1 SWAP2 SUB SWAP1 REVERT JUMPDEST PUSH0 DUP2 SWAP1 POP PUSH2 0x1DF5 CALLER ADDRESS DUP5 PUSH1 0xA PUSH0 SWAP1 SLOAD SWAP1 PUSH2 0x100 EXP SWAP1 DIV PUSH20 0xFFFFFFFFFFFFFFFFFFFFFFFFFFFFFFFFFFFFFFFF AND PUSH20 0xFFFFFFFFFFFFFFFFFFFFFFFFFFFFFFFFFFFFFFFF AND PUSH2 0x359C SWAP1 SWAP4 SWAP3 SWAP2 SWAP1 PUSH4 0xFFFFFFFF AND JUMP JUMPDEST PUSH2 0x1DFF CALLER DUP3 PUSH2 0x3454 JUMP JUMPDEST CALLER PUSH20 0xFFFFFFFFFFFFFFFFFFFFFFFFFFFFFFFFFFFFFFFF AND PUSH32 0x8FAFEBCAF9D154343DAD25669BFA277F4FBACD7AC6B0C4FED522580E040A0F33 DUP4 DUP4 PUSH1 0x40 MLOAD PUSH2 0x1E47 SWAP3 SWAP2 SWAP1 PUSH2 0x507E JUMP JUMPDEST PUSH1 0x40 MLOAD DUP1 SWAP2 SUB SWAP1 LOG2 POP PUSH2 0x1E58 PUSH2 0x32C7 JUMP JUMPDEST POP JUMP JUMPDEST PUSH0 PUSH1 0x5 PUSH0 SWAP1 SLOAD SWAP1 PUSH2 0x100 EXP SWAP1 DIV PUSH20 0xFFFFFFFFFFFFFFFFFFFFFFFFFFFFFFFFFFFFFFFF AND SWAP1 POP SWAP1 JUMP JUMPDEST PUSH1 0x60 PUSH1 0x4 DUP1 SLOAD PUSH2 0x1E92 SWAP1 PUSH2 0x44C0 JUMP JUMPDEST DUP1 PUSH1 0x1F ADD PUSH1 0x20 DUP1 SWAP2 DIV MUL PUSH1 0x20 ADD PUSH1 0x40 MLOAD SWAP1 DUP2 ADD PUSH1 0x40 MSTORE DUP1 SWAP3 SWAP2 SWAP1 DUP2 DUP2 MSTORE PUSH1 0x20 ADD DUP3 DUP1 SLOAD PUSH2 0x1EBE SWAP1 PUSH2 0x44C0 JUMP JUMPDEST DUP1 ISZERO PUSH2 0x1F09 JUMPI DUP1 PUSH1 0x1F LT PUSH2 0x1EE0 JUMPI PUSH2 0x100 DUP1 DUP4 SLOAD DIV MUL DUP4 MSTORE SWAP2 PUSH1 0x20 ADD SWAP2 PUSH2 0x1F09 JUMP JUMPDEST DUP3 ADD SWAP2 SWAP1 PUSH0 MSTORE PUSH1 0x20 PUSH0 KECCAK256 SWAP1 JUMPDEST DUP2 SLOAD DUP2 MSTORE SWAP1 PUSH1 0x1 ADD SWAP1 PUSH1 0x20 ADD DUP1 DUP4 GT PUSH2 0x1EEC JUMPI DUP3 SWAP1 SUB PUSH1 0x1F AND DUP3 ADD SWAP2 JUMPDEST POP POP POP POP POP SWAP1 POP SWAP1 JUMP JUMPDEST PUSH2 0x1F1B PUSH2 0x3278 JUMP JUMPDEST PUSH2 0x1F23 PUSH2 0x3552 JUMP JUMPDEST PUSH0 PUSH20 0xFFFFFFFFFFFFFFFFFFFFFFFFFFFFFFFFFFFFFFFF AND DUP3 PUSH20 0xFFFFFFFFFFFFFFFFFFFFFFFFFFFFFFFFFFFFFFFF AND SUB PUSH2 0x1F91 JUMPI PUSH1 0x40 MLOAD PUSH32 0x8C379A000000000000000000000000000000000000000000000000000000000 DUP2 MSTORE PUSH1 0x4 ADD PUSH2 0x1F88 SWAP1 PUSH2 0x4E8F JUMP JUMPDEST PUSH1 0x40 MLOAD DUP1 SWAP2 SUB SWAP1 REVERT JUMPDEST PUSH0 DUP2 GT PUSH2 0x1FD3 JUMPI PUSH1 0x40 MLOAD PUSH32 0x8C379A000000000000000000000000000000000000000000000000000000000 DUP2 MSTORE PUSH1 0x4 ADD PUSH2 0x1FCA SWAP1 PUSH2 0x49E3 JUMP JUMPDEST PUSH1 0x40 MLOAD DUP1 SWAP2 SUB SWAP1 REVERT JUMPDEST PUSH2 0x2000 CALLER ADDRESS DUP4 DUP6 PUSH20 0xFFFFFFFFFFFFFFFFFFFFFFFFFFFFFFFFFFFFFFFF AND PUSH2 0x359C SWAP1 SWAP4 SWAP3 SWAP2 SWAP1 PUSH4 0xFFFFFFFF AND JUMP JUMPDEST DUP2 PUSH20 0xFFFFFFFFFFFFFFFFFFFFFFFFFFFFFFFFFFFFFFFF AND CALLER PUSH20 0xFFFFFFFFFFFFFFFFFFFFFFFFFFFFFFFFFFFFFFFF AND PUSH32 0x4443CCEFFA8CEB24D29E02832F21AB488C147192D25858CB0B55DC492FF57EF4 DUP4 PUSH1 0x40 MLOAD PUSH2 0x205D SWAP2 SWAP1 PUSH2 0x3D8D JUMP JUMPDEST PUSH1 0x40 MLOAD DUP1 SWAP2 SUB SWAP1 LOG3 PUSH2 0x206D PUSH2 0x32C7 JUMP JUMPDEST POP POP JUMP JUMPDEST PUSH2 0x2079 PUSH2 0x3278 JUMP JUMPDEST PUSH2 0x2081 PUSH2 0x31D8 JUMP JUMPDEST PUSH0 PUSH20 0xFFFFFFFFFFFFFFFFFFFFFFFFFFFFFFFFFFFFFFFF AND DUP3 PUSH20 0xFFFFFFFFFFFFFFFFFFFFFFFFFFFFFFFFFFFFFFFF AND SUB PUSH2 0x20EF JUMPI PUSH1 0x40 MLOAD PUSH32 0x8C379A000000000000000000000000000000000000000000000000000000000 DUP2 MSTORE PUSH1 0x4 ADD PUSH2 0x20E6 SWAP1 PUSH2 0x4E8F JUMP JUMPDEST PUSH1 0x40 MLOAD DUP1 SWAP2 SUB SWAP1 REVERT JUMPDEST PUSH0 DUP2 GT PUSH2 0x2131 JUMPI PUSH1 0x40 MLOAD PUSH32 0x8C379A000000000000000000000000000000000000000000000000000000000 DUP2 MSTORE PUSH1 0x4 ADD PUSH2 0x2128 SWAP1 PUSH2 0x49E3 JUMP JUMPDEST PUSH1 0x40 MLOAD DUP1 SWAP2 SUB SWAP1 REVERT JUMPDEST PUSH2 0x215C CALLER DUP3 DUP5 PUSH20 0xFFFFFFFFFFFFFFFFFFFFFFFFFFFFFFFFFFFFFFFF AND PUSH2 0x384C SWAP1 SWAP3 SWAP2 SWAP1 PUSH4 0xFFFFFFFF AND JUMP JUMPDEST DUP2 PUSH20 0xFFFFFFFFFFFFFFFFFFFFFFFFFFFFFFFFFFFFFFFF AND CALLER PUSH20 0xFFFFFFFFFFFFFFFFFFFFFFFFFFFFFFFFFFFFFFFF AND PUSH32 0x31E3F58FBB760A4C31AE5C6416229FCA813390B5FA0DE533EE4CEF14B2B344DB DUP4 PUSH1 0x40 MLOAD PUSH2 0x21B9 SWAP2 SWAP1 PUSH2 0x3D8D JUMP JUMPDEST PUSH1 0x40 MLOAD DUP1 SWAP2 SUB SWAP1 LOG3 PUSH2 0x21C9 PUSH2 0x32C7 JUMP JUMPDEST POP POP JUMP JUMPDEST PUSH2 0x21D5 PUSH2 0x3278 JUMP JUMPDEST PUSH2 0x21DD PUSH2 0x3552 JUMP JUMPDEST PUSH0 PUSH20 0xFFFFFFFFFFFFFFFFFFFFFFFFFFFFFFFFFFFFFFFF AND DUP3 PUSH20 0xFFFFFFFFFFFFFFFFFFFFFFFFFFFFFFFFFFFFFFFF AND SUB PUSH2 0x224B JUMPI PUSH1 0x40 MLOAD PUSH32 0x8C379A000000000000000000000000000000000000000000000000000000000 DUP2 MSTORE PUSH1 0x4 ADD PUSH2 0x2242 SWAP1 PUSH2 0x4E8F JUMP JUMPDEST PUSH1 0x40 MLOAD DUP1 SWAP2 SUB SWAP1 REVERT JUMPDEST PUSH0 DUP2 GT PUSH2 0x228D JUMPI PUSH1 0x40 MLOAD PUSH32 0x8C379A000000000000000000000000000000000000000000000000000000000 DUP2 MSTORE PUSH1 0x4 ADD PUSH2 0x2284 SWAP1 PUSH2 0x49E3 JUMP JUMPDEST PUSH1 0x40 MLOAD DUP1 SWAP2 SUB SWAP1 REVERT JUMPDEST DUP1 PUSH1 0xC PUSH0 CALLER PUSH20 0xFFFFFFFFFFFFFFFFFFFFFFFFFFFFFFFFFFFFFFFF AND PUSH20 0xFFFFFFFFFFFFFFFFFFFFFFFFFFFFFFFFFFFFFFFF AND DUP2 MSTORE PUSH1 0x20 ADD SWAP1 DUP2 MSTORE PUSH1 0x20 ADD PUSH0 KECCAK256 SLOAD LT ISZERO PUSH2 0x230D JUMPI PUSH1 0x40 MLOAD PUSH32 0x8C379A000000000000000000000000000000000000000000000000000000000 DUP2 MSTORE PUSH1 0x4 ADD PUSH2 0x2304 SWAP1 PUSH2 0x50EF JUMP JUMPDEST PUSH1 0x40 MLOAD DUP1 SWAP2 SUB SWAP1 REVERT JUMPDEST PUSH0 PUSH2 0x3E8 PUSH1 0xB SLOAD DUP4 PUSH2 0x231F SWAP2 SWAP1 PUSH2 0x510D JUMP JUMPDEST PUSH2 0x2329 SWAP2 SWAP1 PUSH2 0x4717 JUMP JUMPDEST SWAP1 POP PUSH0 DUP2 DUP4 PUSH2 0x2338 SWAP2 SWAP1 PUSH2 0x4DE4 JUMP JUMPDEST SWAP1 POP DUP3 PUSH1 0xC PUSH0 CALLER PUSH20 0xFFFFFFFFFFFFFFFFFFFFFFFFFFFFFFFFFFFFFFFF AND PUSH20 0xFFFFFFFFFFFFFFFFFFFFFFFFFFFFFFFFFFFFFFFF AND DUP2 MSTORE PUSH1 0x20 ADD SWAP1 DUP2 MSTORE PUSH1 0x20 ADD PUSH0 KECCAK256 PUSH0 DUP3 DUP3 SLOAD PUSH2 0x2386 SWAP2 SWAP1 PUSH2 0x4DE4 JUMP JUMPDEST SWAP3 POP POP DUP2 SWAP1 SSTORE POP PUSH2 0x23B8 CALLER DUP3 DUP7 PUSH20 0xFFFFFFFFFFFFFFFFFFFFFFFFFFFFFFFFFFFFFFFF AND PUSH2 0x384C SWAP1 SWAP3 SWAP2 SWAP1 PUSH4 0xFFFFFFFF AND JUMP JUMPDEST PUSH2 0x2404 PUSH1 0x9 PUSH0 SWAP1 SLOAD SWAP1 PUSH2 0x100 EXP SWAP1 DIV PUSH20 0xFFFFFFFFFFFFFFFFFFFFFFFFFFFFFFFFFFFFFFFF AND DUP4 DUP7 PUSH20 0xFFFFFFFFFFFFFFFFFFFFFFFFFFFFFFFFFFFFFFFF AND PUSH2 0x384C SWAP1 SWAP3 SWAP2 SWAP1 PUSH4 0xFFFFFFFF AND JUMP JUMPDEST CALLER PUSH20 0xFFFFFFFFFFFFFFFFFFFFFFFFFFFFFFFFFFFFFFFF AND PUSH32 0x70516E69D9B3069FF3184583D867F7A832772E850BA89B554AE06FF752474F9E DUP3 DUP7 PUSH1 0x40 MLOAD PUSH2 0x244C SWAP3 SWAP2 SWAP1 PUSH2 0x4F48 JUMP JUMPDEST PUSH1 0x40 MLOAD DUP1 SWAP2 SUB SWAP1 LOG2 POP POP PUSH2 0x245E PUSH2 0x32C7 JUMP JUMPDEST POP POP JUMP JUMPDEST PUSH0 PUSH0 PUSH2 0x246C PUSH2 0x325F JUMP JUMPDEST SWAP1 POP PUSH2 0x2479 DUP2 DUP6 DUP6 PUSH2 0x3364 JUMP JUMPDEST PUSH1 0x1 SWAP2 POP POP SWAP3 SWAP2 POP POP JUMP JUMPDEST PUSH1 0xA PUSH0 SWAP1 SLOAD SWAP1 PUSH2 0x100 EXP SWAP1 DIV PUSH20 0xFFFFFFFFFFFFFFFFFFFFFFFFFFFFFFFFFFFFFFFF AND DUP2 JUMP JUMPDEST PUSH2 0x24B1 PUSH2 0x31D8 JUMP JUMPDEST PUSH0 PUSH20 0xFFFFFFFFFFFFFFFFFFFFFFFFFFFFFFFFFFFFFFFF AND DUP2 PUSH20 0xFFFFFFFFFFFFFFFFFFFFFFFFFFFFFFFFFFFFFFFF AND SUB PUSH2 0x251F JUMPI PUSH1 0x40 MLOAD PUSH32 0x8C379A000000000000000000000000000000000000000000000000000000000 DUP2 MSTORE PUSH1 0x4 ADD PUSH2 0x2516 SWAP1 PUSH2 0x5198 JUMP JUMPDEST PUSH1 0x40 MLOAD DUP1 SWAP2 SUB SWAP1 REVERT JUMPDEST PUSH0 DUP3 GT PUSH2 0x2561 JUMPI PUSH1 0x40 MLOAD PUSH32 0x8C379A000000000000000000000000000000000000000000000000000000000 DUP2 MSTORE PUSH1 0x4 ADD PUSH2 0x2558 SWAP1 PUSH2 0x49E3 JUMP JUMPDEST PUSH1 0x40 MLOAD DUP1 SWAP2 SUB SWAP1 REVERT JUMPDEST PUSH1 0x7 PUSH1 0x1 SWAP1 SLOAD SWAP1 PUSH2 0x100 EXP SWAP1 DIV PUSH20 0xFFFFFFFFFFFFFFFFFFFFFFFFFFFFFFFFFFFFFFFF AND PUSH20 0xFFFFFFFFFFFFFFFFFFFFFFFFFFFFFFFFFFFFFFFF AND PUSH4 0x7E9216CA DUP5 DUP4 PUSH1 0x40 MLOAD DUP4 PUSH4 0xFFFFFFFF AND PUSH1 0xE0 SHL DUP2 MSTORE PUSH1 0x4 ADD PUSH2 0x25BE SWAP3 SWAP2 SWAP1 PUSH2 0x51D6 JUMP JUMPDEST PUSH0 PUSH1 0x40 MLOAD DUP1 DUP4 SUB DUP2 PUSH0 DUP8 DUP1 EXTCODESIZE ISZERO DUP1 ISZERO PUSH2 0x25D5 JUMPI PUSH0 PUSH0 REVERT JUMPDEST POP GAS CALL ISZERO DUP1 ISZERO PUSH2 0x25E7 JUMPI RETURNDATASIZE PUSH0 PUSH0 RETURNDATACOPY RETURNDATASIZE PUSH0 REVERT JUMPDEST POP POP POP POP DUP1 PUSH20 0xFFFFFFFFFFFFFFFFFFFFFFFFFFFFFFFFFFFFFFFF AND PUSH32 0x89882AD382A3742D4DB24E4DABC5000C5852AED762904DB28442E4E1630A1D07 DUP4 CHAINID PUSH1 0x40 MLOAD PUSH2 0x2633 SWAP3 SWAP2 SWAP1 PUSH2 0x507E JUMP JUMPDEST PUSH1 0x40 MLOAD DUP1 SWAP2 SUB SWAP1 LOG2 POP POP POP JUMP JUMPDEST PUSH1 0xD DUP1 SLOAD SWAP1 POP DUP2 LT PUSH2 0x2687 JUMPI PUSH1 0x40 MLOAD PUSH32 0x8C379A000000000000000000000000000000000000000000000000000000000 DUP2 MSTORE PUSH1 0x4 ADD PUSH2 0x267E SWAP1 PUSH2 0x460A JUMP JUMPDEST PUSH1 0x40 MLOAD DUP1 SWAP2 SUB SWAP1 REVERT JUMPDEST PUSH0 PUSH1 0xD DUP3 DUP2 SLOAD DUP2 LT PUSH2 0x269C JUMPI PUSH2 0x269B PUSH2 0x4628 JUMP JUMPDEST JUMPDEST SWAP1 PUSH0 MSTORE PUSH1 0x20 PUSH0 KECCAK256 SWAP1 PUSH1 0x5 MUL ADD SWAP1 POP DUP1 PUSH1 0x2 ADD PUSH0 CALLER PUSH20 0xFFFFFFFFFFFFFFFFFFFFFFFFFFFFFFFFFFFFFFFF AND PUSH20 0xFFFFFFFFFFFFFFFFFFFFFFFFFFFFFFFFFFFFFFFF AND DUP2 MSTORE PUSH1 0x20 ADD SWAP1 DUP2 MSTORE PUSH1 0x20 ADD PUSH0 KECCAK256 PUSH0 SWAP1 SLOAD SWAP1 PUSH2 0x100 EXP SWAP1 DIV PUSH1 0xFF AND ISZERO PUSH2 0x2736 JUMPI PUSH1 0x40 MLOAD PUSH32 0x8C379A000000000000000000000000000000000000000000000000000000000 DUP2 MSTORE PUSH1 0x4 ADD PUSH2 0x272D SWAP1 PUSH2 0x5247 JUMP JUMPDEST PUSH1 0x40 MLOAD DUP1 SWAP2 SUB SWAP1 REVERT JUMPDEST PUSH0 PUSH2 0x2740 CALLER PUSH2 0x1AA6 JUMP JUMPDEST SWAP1 POP PUSH0 DUP2 GT PUSH2 0x2784 JUMPI PUSH1 0x40 MLOAD PUSH32 0x8C379A000000000000000000000000000000000000000000000000000000000 DUP2 MSTORE PUSH1 0x4 ADD PUSH2 0x277B SWAP1 PUSH2 0x52AF JUMP JUMPDEST PUSH1 0x40 MLOAD DUP1 SWAP2 SUB SWAP1 REVERT JUMPDEST PUSH1 0x1 DUP3 PUSH1 0x2 ADD PUSH0 CALLER PUSH20 0xFFFFFFFFFFFFFFFFFFFFFFFFFFFFFFFFFFFFFFFF AND PUSH20 0xFFFFFFFFFFFFFFFFFFFFFFFFFFFFFFFFFFFFFFFF AND DUP2 MSTORE PUSH1 0x20 ADD SWAP1 DUP2 MSTORE PUSH1 0x20 ADD PUSH0 KECCAK256 PUSH0 PUSH2 0x100 EXP DUP2 SLOAD DUP2 PUSH1 0xFF MUL NOT AND SWAP1 DUP4 ISZERO ISZERO MUL OR SWAP1 SSTORE POP DUP1 DUP3 PUSH1 0x1 ADD PUSH0 DUP3 DUP3 SLOAD PUSH2 0x27EE SWAP2 SWAP1 PUSH2 0x4F15 JUMP JUMPDEST SWAP3 POP POP DUP2 SWAP1 SSTORE POP CALLER PUSH20 0xFFFFFFFFFFFFFFFFFFFFFFFFFFFFFFFFFFFFFFFF AND PUSH32 0x30B0F8DCD86A031EDDB071F91882EDEAC8173663BA775713B677B42B51BE44B DUP5 PUSH1 0x40 MLOAD PUSH2 0x283B SWAP2 SWAP1 PUSH2 0x3D8D JUMP JUMPDEST PUSH1 0x40 MLOAD DUP1 SWAP2 SUB SWAP1 LOG2 POP POP POP JUMP JUMPDEST PUSH1 0xC PUSH1 0x20 MSTORE DUP1 PUSH0 MSTORE PUSH1 0x40 PUSH0 KECCAK256 PUSH0 SWAP2 POP SWAP1 POP SLOAD DUP2 JUMP JUMPDEST PUSH0 PUSH2 0x2866 PUSH2 0x38CB JUMP JUMPDEST SWAP1 POP PUSH0 DUP2 PUSH0 ADD PUSH1 0x8 SWAP1 SLOAD SWAP1 PUSH2 0x100 EXP SWAP1 DIV PUSH1 0xFF AND ISZERO SWAP1 POP PUSH0 DUP3 PUSH0 ADD PUSH0 SWAP1 SLOAD SWAP1 PUSH2 0x100 EXP SWAP1 DIV PUSH8 0xFFFFFFFFFFFFFFFF AND SWAP1 POP PUSH0 PUSH0 DUP3 PUSH8 0xFFFFFFFFFFFFFFFF AND EQ DUP1 ISZERO PUSH2 0x28AE JUMPI POP DUP3 JUMPDEST SWAP1 POP PUSH0 PUSH1 0x1 DUP4 PUSH8 0xFFFFFFFFFFFFFFFF AND EQ DUP1 ISZERO PUSH2 0x28E1 JUMPI POP PUSH0 ADDRESS PUSH20 0xFFFFFFFFFFFFFFFFFFFFFFFFFFFFFFFFFFFFFFFF AND EXTCODESIZE EQ JUMPDEST SWAP1 POP DUP2 ISZERO DUP1 ISZERO PUSH2 0x28EF JUMPI POP DUP1 ISZERO JUMPDEST ISZERO PUSH2 0x2926 JUMPI PUSH1 0x40 MLOAD PUSH32 0xF92EE8A900000000000000000000000000000000000000000000000000000000 DUP2 MSTORE PUSH1 0x4 ADD PUSH1 0x40 MLOAD DUP1 SWAP2 SUB SWAP1 REVERT JUMPDEST PUSH1 0x1 DUP6 PUSH0 ADD PUSH0 PUSH2 0x100 EXP DUP2 SLOAD DUP2 PUSH8 0xFFFFFFFFFFFFFFFF MUL NOT AND SWAP1 DUP4 PUSH8 0xFFFFFFFFFFFFFFFF AND MUL OR SWAP1 SSTORE POP DUP4 ISZERO PUSH2 0x2973 JUMPI PUSH1 0x1 DUP6 PUSH0 ADD PUSH1 0x8 PUSH2 0x100 EXP DUP2 SLOAD DUP2 PUSH1 0xFF MUL NOT AND SWAP1 DUP4 ISZERO ISZERO MUL OR SWAP1 SSTORE POP JUMPDEST PUSH0 PUSH20 0xFFFFFFFFFFFFFFFFFFFFFFFFFFFFFFFFFFFFFFFF AND DUP9 PUSH20 0xFFFFFFFFFFFFFFFFFFFFFFFFFFFFFFFFFFFFFFFF AND SUB PUSH2 0x29E1 JUMPI PUSH1 0x40 MLOAD PUSH32 0x8C379A000000000000000000000000000000000000000000000000000000000 DUP2 MSTORE PUSH1 0x4 ADD PUSH2 0x29D8 SWAP1 PUSH2 0x5317 JUMP JUMPDEST PUSH1 0x40 MLOAD DUP1 SWAP2 SUB SWAP1 REVERT JUMPDEST PUSH0 PUSH20 0xFFFFFFFFFFFFFFFFFFFFFFFFFFFFFFFFFFFFFFFF AND DUP8 PUSH20 0xFFFFFFFFFFFFFFFFFFFFFFFFFFFFFFFFFFFFFFFF AND SUB PUSH2 0x2A4F JUMPI PUSH1 0x40 MLOAD PUSH32 0x8C379A000000000000000000000000000000000000000000000000000000000 DUP2 MSTORE PUSH1 0x4 ADD PUSH2 0x2A46 SWAP1 PUSH2 0x537F JUMP JUMPDEST PUSH1 0x40 MLOAD DUP1 SWAP2 SUB SWAP1 REVERT JUMPDEST PUSH0 PUSH20 0xFFFFFFFFFFFFFFFFFFFFFFFFFFFFFFFFFFFFFFFF AND DUP7 PUSH20 0xFFFFFFFFFFFFFFFFFFFFFFFFFFFFFFFFFFFFFFFF AND SUB PUSH2 0x2ABD JUMPI PUSH1 0x40 MLOAD PUSH32 0x8C379A000000000000000000000000000000000000000000000000000000000 DUP2 MSTORE PUSH1 0x4 ADD PUSH2 0x2AB4 SWAP1 PUSH2 0x45A2 JUMP JUMPDEST PUSH1 0x40 MLOAD DUP1 SWAP2 SUB SWAP1 REVERT JUMPDEST DUP8 PUSH1 0xA PUSH0 PUSH2 0x100 EXP DUP2 SLOAD DUP2 PUSH20 0xFFFFFFFFFFFFFFFFFFFFFFFFFFFFFFFFFFFFFFFF MUL NOT AND SWAP1 DUP4 PUSH20 0xFFFFFFFFFFFFFFFFFFFFFFFFFFFFFFFFFFFFFFFF AND MUL OR SWAP1 SSTORE POP DUP7 PUSH1 0x9 PUSH0 PUSH2 0x100 EXP DUP2 SLOAD DUP2 PUSH20 0xFFFFFFFFFFFFFFFFFFFFFFFFFFFFFFFFFFFFFFFF MUL NOT AND SWAP1 DUP4 PUSH20 0xFFFFFFFFFFFFFFFFFFFFFFFFFFFFFFFFFFFFFFFF AND MUL OR SWAP1 SSTORE POP DUP6 PUSH1 0x7 PUSH1 0x1 PUSH2 0x100 EXP DUP2 SLOAD DUP2 PUSH20 0xFFFFFFFFFFFFFFFFFFFFFFFFFFFFFFFFFFFFFFFF MUL NOT AND SWAP1 DUP4 PUSH20 0xFFFFFFFFFFFFFFFFFFFFFFFFFFFFFFFFFFFFFFFF AND MUL OR SWAP1 SSTORE POP DUP4 ISZERO PUSH2 0x2BD8 JUMPI PUSH0 DUP6 PUSH0 ADD PUSH1 0x8 PUSH2 0x100 EXP DUP2 SLOAD DUP2 PUSH1 0xFF MUL NOT AND SWAP1 DUP4 ISZERO ISZERO MUL OR SWAP1 SSTORE POP PUSH32 0xC7F505B2F371AE2175EE4913F4499E1F2633A7B5936321EED1CDAEB6115181D2 PUSH1 0x1 PUSH1 0x40 MLOAD PUSH2 0x2BCF SWAP2 SWAP1 PUSH2 0x53E9 JUMP JUMPDEST PUSH1 0x40 MLOAD DUP1 SWAP2 SUB SWAP1 LOG1 JUMPDEST POP POP POP POP POP POP POP POP JUMP JUMPDEST PUSH2 0x2BEA PUSH2 0x3278 JUMP JUMPDEST PUSH2 0x2BF2 PUSH2 0x3552 JUMP JUMPDEST PUSH0 PUSH20 0xFFFFFFFFFFFFFFFFFFFFFFFFFFFFFFFFFFFFFFFF AND PUSH1 0x7 PUSH1 0x1 SWAP1 SLOAD SWAP1 PUSH2 0x100 EXP SWAP1 DIV PUSH20 0xFFFFFFFFFFFFFFFFFFFFFFFFFFFFFFFFFFFFFFFF AND PUSH20 0xFFFFFFFFFFFFFFFFFFFFFFFFFFFFFFFFFFFFFFFF AND SUB PUSH2 0x2C82 JUMPI PUSH1 0x40 MLOAD PUSH32 0x8C379A000000000000000000000000000000000000000000000000000000000 DUP2 MSTORE PUSH1 0x4 ADD PUSH2 0x2C79 SWAP1 PUSH2 0x544C JUMP JUMPDEST PUSH1 0x40 MLOAD DUP1 SWAP2 SUB SWAP1 REVERT JUMPDEST DUP2 PUSH1 0xA PUSH0 SWAP1 SLOAD SWAP1 PUSH2 0x100 EXP SWAP1 DIV PUSH20 0xFFFFFFFFFFFFFFFFFFFFFFFFFFFFFFFFFFFFFFFF AND PUSH20 0xFFFFFFFFFFFFFFFFFFFFFFFFFFFFFFFFFFFFFFFF AND PUSH4 0x70A08231 CALLER PUSH1 0x40 MLOAD DUP3 PUSH4 0xFFFFFFFF AND PUSH1 0xE0 SHL DUP2 MSTORE PUSH1 0x4 ADD PUSH2 0x2CDD SWAP2 SWAP1 PUSH2 0x4328 JUMP JUMPDEST PUSH1 0x20 PUSH1 0x40 MLOAD DUP1 DUP4 SUB DUP2 DUP7 GAS STATICCALL ISZERO DUP1 ISZERO PUSH2 0x2CF8 JUMPI RETURNDATASIZE PUSH0 PUSH0 RETURNDATACOPY RETURNDATASIZE PUSH0 REVERT JUMPDEST POP POP POP POP PUSH1 0x40 MLOAD RETURNDATASIZE PUSH1 0x1F NOT PUSH1 0x1F DUP3 ADD AND DUP3 ADD DUP1 PUSH1 0x40 MSTORE POP DUP2 ADD SWAP1 PUSH2 0x2D1C SWAP2 SWAP1 PUSH2 0x4FEB JUMP JUMPDEST LT ISZERO PUSH2 0x2D5D JUMPI PUSH1 0x40 MLOAD PUSH32 0x8C379A000000000000000000000000000000000000000000000000000000000 DUP2 MSTORE PUSH1 0x4 ADD PUSH2 0x2D54 SWAP1 PUSH2 0x54B4 JUMP JUMPDEST PUSH1 0x40 MLOAD DUP1 SWAP2 SUB SWAP1 REVERT JUMPDEST PUSH2 0x2DAB CALLER ADDRESS DUP5 PUSH1 0xA PUSH0 SWAP1 SLOAD SWAP1 PUSH2 0x100 EXP SWAP1 DIV PUSH20 0xFFFFFFFFFFFFFFFFFFFFFFFFFFFFFFFFFFFFFFFF AND PUSH20 0xFFFFFFFFFFFFFFFFFFFFFFFFFFFFFFFFFFFFFFFF AND PUSH2 0x359C SWAP1 SWAP4 SWAP3 SWAP2 SWAP1 PUSH4 0xFFFFFFFF AND JUMP JUMPDEST PUSH0 PUSH1 0x40 MLOAD DUP1 PUSH1 0x60 ADD PUSH1 0x40 MSTORE DUP1 DUP4 PUSH20 0xFFFFFFFFFFFFFFFFFFFFFFFFFFFFFFFFFFFFFFFF AND DUP2 MSTORE PUSH1 0x20 ADD DUP5 DUP2 MSTORE PUSH1 0x20 ADD CALLER DUP6 TIMESTAMP PUSH1 0x40 MLOAD PUSH1 0x20 ADD PUSH2 0x2DEE SWAP4 SWAP3 SWAP2 SWAP1 PUSH2 0x5537 JUMP JUMPDEST PUSH1 0x40 MLOAD PUSH1 0x20 DUP2 DUP4 SUB SUB DUP2 MSTORE SWAP1 PUSH1 0x40 MSTORE DUP1 MLOAD SWAP1 PUSH1 0x20 ADD KECCAK256 DUP2 MSTORE POP SWAP1 POP PUSH1 0x7 PUSH1 0x1 SWAP1 SLOAD SWAP1 PUSH2 0x100 EXP SWAP1 DIV PUSH20 0xFFFFFFFFFFFFFFFFFFFFFFFFFFFFFFFFFFFFFFFF AND PUSH20 0xFFFFFFFFFFFFFFFFFFFFFFFFFFFFFFFFFFFFFFFF AND PUSH4 0x4018A87E DUP6 CALLER DUP5 PUSH1 0x40 MLOAD DUP5 PUSH4 0xFFFFFFFF AND PUSH1 0xE0 SHL DUP2 MSTORE PUSH1 0x4 ADD PUSH2 0x2E68 SWAP4 SWAP3 SWAP2 SWAP1 PUSH2 0x55E9 JUMP JUMPDEST PUSH0 PUSH1 0x40 MLOAD DUP1 DUP4 SUB DUP2 PUSH0 DUP8 DUP1 EXTCODESIZE ISZERO DUP1 ISZERO PUSH2 0x2E7F JUMPI PUSH0 PUSH0 REVERT JUMPDEST POP GAS CALL ISZERO DUP1 ISZERO PUSH2 0x2E91 JUMPI RETURNDATASIZE PUSH0 PUSH0 RETURNDATACOPY RETURNDATASIZE PUSH0 REVERT JUMPDEST POP POP POP POP CALLER PUSH20 0xFFFFFFFFFFFFFFFFFFFFFFFFFFFFFFFFFFFFFFFF AND PUSH32 0xD741E738A23FD18A03A26522320D9FC6CAC1FED483E215EA9150FBC2FC43385D DUP5 CHAINID PUSH1 0x40 MLOAD PUSH2 0x2EDD SWAP3 SWAP2 SWAP1 PUSH2 0x507E JUMP JUMPDEST PUSH1 0x40 MLOAD DUP1 SWAP2 SUB SWAP1 LOG2 POP PUSH2 0x2EEE PUSH2 0x32C7 JUMP JUMPDEST POP POP POP JUMP JUMPDEST PUSH2 0x2EFB PUSH2 0x3278 JUMP JUMPDEST PUSH2 0x2F03 PUSH2 0x3552 JUMP JUMPDEST PUSH0 PUSH1 0xF PUSH0 CALLER PUSH20 0xFFFFFFFFFFFFFFFFFFFFFFFFFFFFFFFFFFFFFFFF AND PUSH20 0xFFFFFFFFFFFFFFFFFFFFFFFFFFFFFFFFFFFFFFFF AND DUP2 MSTORE PUSH1 0x20 ADD SWAP1 DUP2 MSTORE PUSH1 0x20 ADD PUSH0 KECCAK256 SLOAD SWAP1 POP PUSH0 DUP2 GT PUSH2 0x2F86 JUMPI PUSH1 0x40 MLOAD PUSH32 0x8C379A000000000000000000000000000000000000000000000000000000000 DUP2 MSTORE PUSH1 0x4 ADD PUSH2 0x2F7D SWAP1 PUSH2 0x5668 JUMP JUMPDEST PUSH1 0x40 MLOAD DUP1 SWAP2 SUB SWAP1 REVERT JUMPDEST PUSH0 PUSH1 0xF PUSH0 CALLER PUSH20 0xFFFFFFFFFFFFFFFFFFFFFFFFFFFFFFFFFFFFFFFF AND PUSH20 0xFFFFFFFFFFFFFFFFFFFFFFFFFFFFFFFFFFFFFFFF AND DUP2 MSTORE PUSH1 0x20 ADD SWAP1 DUP2 MSTORE PUSH1 0x20 ADD PUSH0 KECCAK256 DUP2 SWAP1 SSTORE POP PUSH2 0x2FD2 CALLER DUP3 PUSH2 0x3454 JUMP JUMPDEST CALLER PUSH20 0xFFFFFFFFFFFFFFFFFFFFFFFFFFFFFFFFFFFFFFFF AND PUSH32 0x1D3EEE4CA001CFF39EEC6EC7615AACF2F2BD61791273830728BA00CCBD6E1337 DUP3 PUSH1 0x40 MLOAD PUSH2 0x3018 SWAP2 SWAP1 PUSH2 0x3D8D JUMP JUMPDEST PUSH1 0x40 MLOAD DUP1 SWAP2 SUB SWAP1 LOG2 POP PUSH2 0x3029 PUSH2 0x32C7 JUMP JUMPDEST JUMP JUMPDEST PUSH1 0x7 PUSH1 0x1 SWAP1 SLOAD SWAP1 PUSH2 0x100 EXP SWAP1 DIV PUSH20 0xFFFFFFFFFFFFFFFFFFFFFFFFFFFFFFFFFFFFFFFF AND DUP2 JUMP JUMPDEST PUSH0 PUSH1 0xC PUSH0 DUP4 PUSH20 0xFFFFFFFFFFFFFFFFFFFFFFFFFFFFFFFFFFFFFFFF AND PUSH20 0xFFFFFFFFFFFFFFFFFFFFFFFFFFFFFFFFFFFFFFFF AND DUP2 MSTORE PUSH1 0x20 ADD SWAP1 DUP2 MSTORE PUSH1 0x20 ADD PUSH0 KECCAK256 SLOAD SWAP1 POP SWAP2 SWAP1 POP JUMP JUMPDEST PUSH0 PUSH1 0x1 PUSH0 DUP5 PUSH20 0xFFFFFFFFFFFFFFFFFFFFFFFFFFFFFFFFFFFFFFFF AND PUSH20 0xFFFFFFFFFFFFFFFFFFFFFFFFFFFFFFFFFFFFFFFF AND DUP2 MSTORE PUSH1 0x20 ADD SWAP1 DUP2 MSTORE PUSH1 0x20 ADD PUSH0 KECCAK256 PUSH0 DUP4 PUSH20 0xFFFFFFFFFFFFFFFFFFFFFFFFFFFFFFFFFFFFFFFF AND PUSH20 0xFFFFFFFFFFFFFFFFFFFFFFFFFFFFFFFFFFFFFFFF AND DUP2 MSTORE PUSH1 0x20 ADD SWAP1 DUP2 MSTORE PUSH1 0x20 ADD PUSH0 KECCAK256 SLOAD SWAP1 POP SWAP3 SWAP2 POP POP JUMP JUMPDEST PUSH1 0x10 PUSH1 0x20 MSTORE DUP1 PUSH0 MSTORE PUSH1 0x40 PUSH0 KECCAK256 PUSH0 SWAP2 POP SWAP1 POP SLOAD DUP2 JUMP JUMPDEST PUSH2 0x3136 PUSH2 0x31D8 JUMP JUMPDEST PUSH0 PUSH20 0xFFFFFFFFFFFFFFFFFFFFFFFFFFFFFFFFFFFFFFFF AND DUP2 PUSH20 0xFFFFFFFFFFFFFFFFFFFFFFFFFFFFFFFFFFFFFFFF AND SUB PUSH2 0x31A6 JUMPI PUSH0 PUSH1 0x40 MLOAD PUSH32 0x1E4FBDF700000000000000000000000000000000000000000000000000000000 DUP2 MSTORE PUSH1 0x4 ADD PUSH2 0x319D SWAP2 SWAP1 PUSH2 0x4328 JUMP JUMPDEST PUSH1 0x40 MLOAD DUP1 SWAP2 SUB SWAP1 REVERT JUMPDEST PUSH2 0x31AF DUP2 PUSH2 0x3789 JUMP JUMPDEST POP JUMP JUMPDEST PUSH0 PUSH2 0x31BC DUP3 PUSH2 0x1AA6 JUMP JUMPDEST SWAP1 POP SWAP2 SWAP1 POP JUMP JUMPDEST PUSH1 0xE PUSH1 0x20 MSTORE DUP1 PUSH0 MSTORE PUSH1 0x40 PUSH0 KECCAK256 PUSH0 SWAP2 POP SWAP1 POP SLOAD DUP2 JUMP JUMPDEST PUSH2 0x31E0 PUSH2 0x325F JUMP JUMPDEST PUSH20 0xFFFFFFFFFFFFFFFFFFFFFFFFFFFFFFFFFFFFFFFF AND PUSH2 0x31FE PUSH2 0x1E5B JUMP JUMPDEST PUSH20 0xFFFFFFFFFFFFFFFFFFFFFFFFFFFFFFFFFFFFFFFF AND EQ PUSH2 0x325D JUMPI PUSH2 0x3221 PUSH2 0x325F JUMP JUMPDEST PUSH1 0x40 MLOAD PUSH32 0x118CDAA700000000000000000000000000000000000000000000000000000000 DUP2 MSTORE PUSH1 0x4 ADD PUSH2 0x3254 SWAP2 SWAP1 PUSH2 0x4328 JUMP JUMPDEST PUSH1 0x40 MLOAD DUP1 SWAP2 SUB SWAP1 REVERT JUMPDEST JUMP JUMPDEST PUSH0 CALLER SWAP1 POP SWAP1 JUMP JUMPDEST PUSH2 0x3273 DUP4 DUP4 DUP4 PUSH1 0x1 PUSH2 0x38F2 JUMP JUMPDEST POP POP POP JUMP JUMPDEST PUSH1 0x2 PUSH1 0x6 SLOAD SUB PUSH2 0x32BD JUMPI PUSH1 0x40 MLOAD PUSH32 0x8C379A000000000000000000000000000000000000000000000000000000000 DUP2 MSTORE PUSH1 0x4 ADD PUSH2 0x32B4 SWAP1 PUSH2 0x56D0 JUMP JUMPDEST PUSH1 0x40 MLOAD DUP1 SWAP2 SUB SWAP1 REVERT JUMPDEST PUSH1 0x2 PUSH1 0x6 DUP2 SWAP1 SSTORE POP JUMP JUMPDEST PUSH1 0x1 PUSH1 0x6 DUP2 SWAP1 SSTORE POP JUMP JUMPDEST PUSH0 PUSH2 0x32DC DUP5 DUP5 PUSH2 0x3097 JUMP JUMPDEST SWAP1 POP PUSH32 0xFFFFFFFFFFFFFFFFFFFFFFFFFFFFFFFFFFFFFFFFFFFFFFFFFFFFFFFFFFFFFFFF DUP2 LT ISZERO PUSH2 0x335E JUMPI DUP2 DUP2 LT ISZERO PUSH2 0x334F JUMPI DUP3 DUP2 DUP4 PUSH1 0x40 MLOAD PUSH32 0xFB8F41B200000000000000000000000000000000000000000000000000000000 DUP2 MSTORE PUSH1 0x4 ADD PUSH2 0x3346 SWAP4 SWAP3 SWAP2 SWAP1 PUSH2 0x56EE JUMP JUMPDEST PUSH1 0x40 MLOAD DUP1 SWAP2 SUB SWAP1 REVERT JUMPDEST PUSH2 0x335D DUP5 DUP5 DUP5 DUP5 SUB PUSH0 PUSH2 0x38F2 JUMP JUMPDEST JUMPDEST POP POP POP POP JUMP JUMPDEST PUSH0 PUSH20 0xFFFFFFFFFFFFFFFFFFFFFFFFFFFFFFFFFFFFFFFF AND DUP4 PUSH20 0xFFFFFFFFFFFFFFFFFFFFFFFFFFFFFFFFFFFFFFFF AND SUB PUSH2 0x33D4 JUMPI PUSH0 PUSH1 0x40 MLOAD PUSH32 0x96C6FD1E00000000000000000000000000000000000000000000000000000000 DUP2 MSTORE PUSH1 0x4 ADD PUSH2 0x33CB SWAP2 SWAP1 PUSH2 0x4328 JUMP JUMPDEST PUSH1 0x40 MLOAD DUP1 SWAP2 SUB SWAP1 REVERT JUMPDEST PUSH0 PUSH20 0xFFFFFFFFFFFFFFFFFFFFFFFFFFFFFFFFFFFFFFFF AND DUP3 PUSH20 0xFFFFFFFFFFFFFFFFFFFFFFFFFFFFFFFFFFFFFFFF AND SUB PUSH2 0x3444 JUMPI PUSH0 PUSH1 0x40 MLOAD PUSH32 0xEC442F0500000000000000000000000000000000000000000000000000000000 DUP2 MSTORE PUSH1 0x4 ADD PUSH2 0x343B SWAP2 SWAP1 PUSH2 0x4328 JUMP JUMPDEST PUSH1 0x40 MLOAD DUP1 SWAP2 SUB SWAP1 REVERT JUMPDEST PUSH2 0x344F DUP4 DUP4 DUP4 PUSH2 0x3AC1 JUMP JUMPDEST POP POP POP JUMP JUMPDEST PUSH0 PUSH20 0xFFFFFFFFFFFFFFFFFFFFFFFFFFFFFFFFFFFFFFFF AND DUP3 PUSH20 0xFFFFFFFFFFFFFFFFFFFFFFFFFFFFFFFFFFFFFFFF AND SUB PUSH2 0x34C4 JUMPI PUSH0 PUSH1 0x40 MLOAD PUSH32 0xEC442F0500000000000000000000000000000000000000000000000000000000 DUP2 MSTORE PUSH1 0x4 ADD PUSH2 0x34BB SWAP2 SWAP1 PUSH2 0x4328 JUMP JUMPDEST PUSH1 0x40 MLOAD DUP1 SWAP2 SUB SWAP1 REVERT JUMPDEST PUSH2 0x34CF PUSH0 DUP4 DUP4 PUSH2 0x3AC1 JUMP JUMPDEST POP POP JUMP JUMPDEST PUSH0 PUSH20 0xFFFFFFFFFFFFFFFFFFFFFFFFFFFFFFFFFFFFFFFF AND DUP3 PUSH20 0xFFFFFFFFFFFFFFFFFFFFFFFFFFFFFFFFFFFFFFFF AND SUB PUSH2 0x3543 JUMPI PUSH0 PUSH1 0x40 MLOAD PUSH32 0x96C6FD1E00000000000000000000000000000000000000000000000000000000 DUP2 MSTORE PUSH1 0x4 ADD PUSH2 0x353A SWAP2 SWAP1 PUSH2 0x4328 JUMP JUMPDEST PUSH1 0x40 MLOAD DUP1 SWAP2 SUB SWAP1 REVERT JUMPDEST PUSH2 0x354E DUP3 PUSH0 DUP4 PUSH2 0x3AC1 JUMP JUMPDEST POP POP JUMP JUMPDEST PUSH2 0x355A PUSH2 0x18AF JUMP JUMPDEST ISZERO PUSH2 0x359A JUMPI PUSH1 0x40 MLOAD PUSH32 0x8C379A000000000000000000000000000000000000000000000000000000000 DUP2 MSTORE PUSH1 0x4 ADD PUSH2 0x3591 SWAP1 PUSH2 0x576D JUMP JUMPDEST PUSH1 0x40 MLOAD DUP1 SWAP2 SUB SWAP1 REVERT JUMPDEST JUMP JUMPDEST PUSH2 0x3618 DUP5 DUP6 PUSH20 0xFFFFFFFFFFFFFFFFFFFFFFFFFFFFFFFFFFFFFFFF AND PUSH4 0x23B872DD DUP7 DUP7 DUP7 PUSH1 0x40 MLOAD PUSH1 0x24 ADD PUSH2 0x35D1 SWAP4 SWAP3 SWAP2 SWAP1 PUSH2 0x578B JUMP JUMPDEST PUSH1 0x40 MLOAD PUSH1 0x20 DUP2 DUP4 SUB SUB DUP2 MSTORE SWAP1 PUSH1 0x40 MSTORE SWAP2 POP PUSH1 0xE0 SHL PUSH1 0x20 DUP3 ADD DUP1 MLOAD PUSH28 0xFFFFFFFFFFFFFFFFFFFFFFFFFFFFFFFFFFFFFFFFFFFFFFFFFFFFFFFF DUP4 DUP2 DUP4 AND OR DUP4 MSTORE POP POP POP POP PUSH2 0x3CDA JUMP JUMPDEST POP POP POP POP JUMP JUMPDEST PUSH0 PUSH8 0xDE0B6B3A7640000 PUSH1 0x10 PUSH0 DUP5 PUSH20 0xFFFFFFFFFFFFFFFFFFFFFFFFFFFFFFFFFFFFFFFF AND PUSH20 0xFFFFFFFFFFFFFFFFFFFFFFFFFFFFFFFFFFFFFFFF AND DUP2 MSTORE PUSH1 0x20 ADD SWAP1 DUP2 MSTORE PUSH1 0x20 ADD PUSH0 KECCAK256 SLOAD TIMESTAMP PUSH2 0x3671 SWAP2 SWAP1 PUSH2 0x4DE4 JUMP JUMPDEST PUSH32 0x0 PUSH1 0xE PUSH0 DUP7 PUSH20 0xFFFFFFFFFFFFFFFFFFFFFFFFFFFFFFFFFFFFFFFF AND PUSH20 0xFFFFFFFFFFFFFFFFFFFFFFFFFFFFFFFFFFFFFFFF AND DUP2 MSTORE PUSH1 0x20 ADD SWAP1 DUP2 MSTORE PUSH1 0x20 ADD PUSH0 KECCAK256 SLOAD PUSH2 0x36DA SWAP2 SWAP1 PUSH2 0x510D JUMP JUMPDEST PUSH2 0x36E4 SWAP2 SWAP1 PUSH2 0x510D JUMP JUMPDEST PUSH2 0x36EE SWAP2 SWAP1 PUSH2 0x4717 JUMP JUMPDEST SWAP1 POP DUP1 PUSH1 0xF PUSH0 DUP5 PUSH20 0xFFFFFFFFFFFFFFFFFFFFFFFFFFFFFFFFFFFFFFFF AND PUSH20 0xFFFFFFFFFFFFFFFFFFFFFFFFFFFFFFFFFFFFFFFF AND DUP2 MSTORE PUSH1 0x20 ADD SWAP1 DUP2 MSTORE PUSH1 0x20 ADD PUSH0 KECCAK256 PUSH0 DUP3 DUP3 SLOAD PUSH2 0x373C SWAP2 SWAP1 PUSH2 0x4F15 JUMP JUMPDEST SWAP3 POP POP DUP2 SWAP1 SSTORE POP TIMESTAMP PUSH1 0x10 PUSH0 DUP5 PUSH20 0xFFFFFFFFFFFFFFFFFFFFFFFFFFFFFFFFFFFFFFFF AND PUSH20 0xFFFFFFFFFFFFFFFFFFFFFFFFFFFFFFFFFFFFFFFF AND DUP2 MSTORE PUSH1 0x20 ADD SWAP1 DUP2 MSTORE PUSH1 0x20 ADD PUSH0 KECCAK256 DUP2 SWAP1 SSTORE POP POP POP JUMP JUMPDEST PUSH0 PUSH1 0x5 PUSH0 SWAP1 SLOAD SWAP1 PUSH2 0x100 EXP SWAP1 DIV PUSH20 0xFFFFFFFFFFFFFFFFFFFFFFFFFFFFFFFFFFFFFFFF AND SWAP1 POP DUP2 PUSH1 0x5 PUSH0 PUSH2 0x100 EXP DUP2 SLOAD DUP2 PUSH20 0xFFFFFFFFFFFFFFFFFFFFFFFFFFFFFFFFFFFFFFFF MUL NOT AND SWAP1 DUP4 PUSH20 0xFFFFFFFFFFFFFFFFFFFFFFFFFFFFFFFFFFFFFFFF AND MUL OR SWAP1 SSTORE POP DUP2 PUSH20 0xFFFFFFFFFFFFFFFFFFFFFFFFFFFFFFFFFFFFFFFF AND DUP2 PUSH20 0xFFFFFFFFFFFFFFFFFFFFFFFFFFFFFFFFFFFFFFFF AND PUSH32 0x8BE0079C531659141344CD1FD0A4F28419497F9722A3DAAFE3B4186F6B6457E0 PUSH1 0x40 MLOAD PUSH1 0x40 MLOAD DUP1 SWAP2 SUB SWAP1 LOG3 POP POP JUMP JUMPDEST PUSH2 0x38C6 DUP4 DUP5 PUSH20 0xFFFFFFFFFFFFFFFFFFFFFFFFFFFFFFFFFFFFFFFF AND PUSH4 0xA9059CBB DUP6 DUP6 PUSH1 0x40 MLOAD PUSH1 0x24 ADD PUSH2 0x387F SWAP3 SWAP2 SWAP1 PUSH2 0x57C0 JUMP JUMPDEST PUSH1 0x40 MLOAD PUSH1 0x20 DUP2 DUP4 SUB SUB DUP2 MSTORE SWAP1 PUSH1 0x40 MSTORE SWAP2 POP PUSH1 0xE0 SHL PUSH1 0x20 DUP3 ADD DUP1 MLOAD PUSH28 0xFFFFFFFFFFFFFFFFFFFFFFFFFFFFFFFFFFFFFFFFFFFFFFFFFFFFFFFF DUP4 DUP2 DUP4 AND OR DUP4 MSTORE POP POP POP POP PUSH2 0x3CDA JUMP JUMPDEST POP POP POP JUMP JUMPDEST PUSH0 PUSH32 0xF0C57E16840DF040F15088DC2F81FE391C3923BEC73E23A9662EFC9C229C6A00 SWAP1 POP SWAP1 JUMP JUMPDEST PUSH0 PUSH20 0xFFFFFFFFFFFFFFFFFFFFFFFFFFFFFFFFFFFFFFFF AND DUP5 PUSH20 0xFFFFFFFFFFFFFFFFFFFFFFFFFFFFFFFFFFFFFFFF AND SUB PUSH2 0x3962 JUMPI PUSH0 PUSH1 0x40 MLOAD PUSH32 0xE602DF0500000000000000000000000000000000000000000000000000000000 DUP2 MSTORE PUSH1 0x4 ADD PUSH2 0x3959 SWAP2 SWAP1 PUSH2 0x4328 JUMP JUMPDEST PUSH1 0x40 MLOAD DUP1 SWAP2 SUB SWAP1 REVERT JUMPDEST PUSH0 PUSH20 0xFFFFFFFFFFFFFFFFFFFFFFFFFFFFFFFFFFFFFFFF AND DUP4 PUSH20 0xFFFFFFFFFFFFFFFFFFFFFFFFFFFFFFFFFFFFFFFF AND SUB PUSH2 0x39D2 JUMPI PUSH0 PUSH1 0x40 MLOAD PUSH32 0x94280D6200000000000000000000000000000000000000000000000000000000 DUP2 MSTORE PUSH1 0x4 ADD PUSH2 0x39C9 SWAP2 SWAP1 PUSH2 0x4328 JUMP JUMPDEST PUSH1 0x40 MLOAD DUP1 SWAP2 SUB SWAP1 REVERT JUMPDEST DUP2 PUSH1 0x1 PUSH0 DUP7 PUSH20 0xFFFFFFFFFFFFFFFFFFFFFFFFFFFFFFFFFFFFFFFF AND PUSH20 0xFFFFFFFFFFFFFFFFFFFFFFFFFFFFFFFFFFFFFFFF AND DUP2 MSTORE PUSH1 0x20 ADD SWAP1 DUP2 MSTORE PUSH1 0x20 ADD PUSH0 KECCAK256 PUSH0 DUP6 PUSH20 0xFFFFFFFFFFFFFFFFFFFFFFFFFFFFFFFFFFFFFFFF AND PUSH20 0xFFFFFFFFFFFFFFFFFFFFFFFFFFFFFFFFFFFFFFFF AND DUP2 MSTORE PUSH1 0x20 ADD SWAP1 DUP2 MSTORE PUSH1 0x20 ADD PUSH0 KECCAK256 DUP2 SWAP1 SSTORE POP DUP1 ISZERO PUSH2 0x3ABB JUMPI DUP3 PUSH20 0xFFFFFFFFFFFFFFFFFFFFFFFFFFFFFFFFFFFFFFFF AND DUP5 PUSH20 0xFFFFFFFFFFFFFFFFFFFFFFFFFFFFFFFFFFFFFFFF AND PUSH32 0x8C5BE1E5EBEC7D5BD14F71427D1E84F3DD0314C0F7B2291E5B200AC8C7C3B925 DUP5 PUSH1 0x40 MLOAD PUSH2 0x3AB2 SWAP2 SWAP1 PUSH2 0x3D8D JUMP JUMPDEST PUSH1 0x40 MLOAD DUP1 SWAP2 SUB SWAP1 LOG3 JUMPDEST POP POP POP POP JUMP JUMPDEST PUSH0 PUSH20 0xFFFFFFFFFFFFFFFFFFFFFFFFFFFFFFFFFFFFFFFF AND DUP4 PUSH20 0xFFFFFFFFFFFFFFFFFFFFFFFFFFFFFFFFFFFFFFFF AND SUB PUSH2 0x3B11 JUMPI DUP1 PUSH1 0x2 PUSH0 DUP3 DUP3 SLOAD PUSH2 0x3B05 SWAP2 SWAP1 PUSH2 0x4F15 JUMP JUMPDEST SWAP3 POP POP DUP2 SWAP1 SSTORE POP PUSH2 0x3BDF JUMP JUMPDEST PUSH0 PUSH0 PUSH0 DUP6 PUSH20 0xFFFFFFFFFFFFFFFFFFFFFFFFFFFFFFFFFFFFFFFF AND PUSH20 0xFFFFFFFFFFFFFFFFFFFFFFFFFFFFFFFFFFFFFFFF AND DUP2 MSTORE PUSH1 0x20 ADD SWAP1 DUP2 MSTORE PUSH1 0x20 ADD PUSH0 KECCAK256 SLOAD SWAP1 POP DUP2 DUP2 LT ISZERO PUSH2 0x3B9A JUMPI DUP4 DUP2 DUP4 PUSH1 0x40 MLOAD PUSH32 0xE450D38C00000000000000000000000000000000000000000000000000000000 DUP2 MSTORE PUSH1 0x4 ADD PUSH2 0x3B91 SWAP4 SWAP3 SWAP2 SWAP1 PUSH2 0x56EE JUMP JUMPDEST PUSH1 0x40 MLOAD DUP1 SWAP2 SUB SWAP1 REVERT JUMPDEST DUP2 DUP2 SUB PUSH0 PUSH0 DUP7 PUSH20 0xFFFFFFFFFFFFFFFFFFFFFFFFFFFFFFFFFFFFFFFF AND PUSH20 0xFFFFFFFFFFFFFFFFFFFFFFFFFFFFFFFFFFFFFFFF AND DUP2 MSTORE PUSH1 0x20 ADD SWAP1 DUP2 MSTORE PUSH1 0x20 ADD PUSH0 KECCAK256 DUP2 SWAP1 SSTORE POP POP JUMPDEST PUSH0 PUSH20 0xFFFFFFFFFFFFFFFFFFFFFFFFFFFFFFFFFFFFFFFF AND DUP3 PUSH20 0xFFFFFFFFFFFFFFFFFFFFFFFFFFFFFFFFFFFFFFFF AND SUB PUSH2 0x3C26 JUMPI DUP1 PUSH1 0x2 PUSH0 DUP3 DUP3 SLOAD SUB SWAP3 POP POP DUP2 SWAP1 SSTORE POP PUSH2 0x3C70 JUMP JUMPDEST DUP1 PUSH0 PUSH0 DUP5 PUSH20 0xFFFFFFFFFFFFFFFFFFFFFFFFFFFFFFFFFFFFFFFF AND PUSH20 0xFFFFFFFFFFFFFFFFFFFFFFFFFFFFFFFFFFFFFFFF AND DUP2 MSTORE PUSH1 0x20 ADD SWAP1 DUP2 MSTORE PUSH1 0x20 ADD PUSH0 KECCAK256 PUSH0 DUP3 DUP3 SLOAD ADD SWAP3 POP POP DUP2 SWAP1 SSTORE POP JUMPDEST DUP2 PUSH20 0xFFFFFFFFFFFFFFFFFFFFFFFFFFFFFFFFFFFFFFFF AND DUP4 PUSH20 0xFFFFFFFFFFFFFFFFFFFFFFFFFFFFFFFFFFFFFFFF AND PUSH32 0xDDF252AD1BE2C89B69C2B068FC378DAA952BA7F163C4A11628F55A4DF523B3EF DUP4 PUSH1 0x40 MLOAD PUSH2 0x3CCD SWAP2 SWAP1 PUSH2 0x3D8D JUMP JUMPDEST PUSH1 0x40 MLOAD DUP1 SWAP2 SUB SWAP1 LOG3 POP POP POP JUMP JUMPDEST PUSH0 PUSH0 PUSH1 0x20 PUSH0 DUP5 MLOAD PUSH1 0x20 DUP7 ADD PUSH0 DUP9 GAS CALL DUP1 PUSH2 0x3CF9 JUMPI PUSH1 0x40 MLOAD RETURNDATASIZE PUSH0 DUP3 RETURNDATACOPY RETURNDATASIZE DUP2 REVERT JUMPDEST RETURNDATASIZE SWAP3 POP PUSH0 MLOAD SWAP2 POP POP PUSH0 DUP3 EQ PUSH2 0x3D12 JUMPI PUSH1 0x1 DUP2 EQ ISZERO PUSH2 0x3D2D JUMP JUMPDEST PUSH0 DUP5 PUSH20 0xFFFFFFFFFFFFFFFFFFFFFFFFFFFFFFFFFFFFFFFF AND EXTCODESIZE EQ JUMPDEST ISZERO PUSH2 0x3D6F JUMPI DUP4 PUSH1 0x40 MLOAD PUSH32 0x5274AFE700000000000000000000000000000000000000000000000000000000 DUP2 MSTORE PUSH1 0x4 ADD PUSH2 0x3D66 SWAP2 SWAP1 PUSH2 0x4328 JUMP JUMPDEST PUSH1 0x40 MLOAD DUP1 SWAP2 SUB SWAP1 REVERT JUMPDEST POP POP POP POP JUMP JUMPDEST PUSH0 DUP2 SWAP1 POP SWAP2 SWAP1 POP JUMP JUMPDEST PUSH2 0x3D87 DUP2 PUSH2 0x3D75 JUMP JUMPDEST DUP3 MSTORE POP POP JUMP JUMPDEST PUSH0 PUSH1 0x20 DUP3 ADD SWAP1 POP PUSH2 0x3DA0 PUSH0 DUP4 ADD DUP5 PUSH2 0x3D7E JUMP JUMPDEST SWAP3 SWAP2 POP POP JUMP JUMPDEST PUSH0 PUSH1 0x40 MLOAD SWAP1 POP SWAP1 JUMP JUMPDEST PUSH0 PUSH0 REVERT JUMPDEST PUSH0 PUSH0 REVERT JUMPDEST PUSH2 0x3DC0 DUP2 PUSH2 0x3D75 JUMP JUMPDEST DUP2 EQ PUSH2 0x3DCA JUMPI PUSH0 PUSH0 REVERT JUMPDEST POP JUMP JUMPDEST PUSH0 DUP2 CALLDATALOAD SWAP1 POP PUSH2 0x3DDB DUP2 PUSH2 0x3DB7 JUMP JUMPDEST SWAP3 SWAP2 POP POP JUMP JUMPDEST PUSH0 PUSH1 0x20 DUP3 DUP5 SUB SLT ISZERO PUSH2 0x3DF6 JUMPI PUSH2 0x3DF5 PUSH2 0x3DAF JUMP JUMPDEST JUMPDEST PUSH0 PUSH2 0x3E03 DUP5 DUP3 DUP6 ADD PUSH2 0x3DCD JUMP JUMPDEST SWAP2 POP POP SWAP3 SWAP2 POP POP JUMP JUMPDEST PUSH0 DUP2 MLOAD SWAP1 POP SWAP2 SWAP1 POP JUMP JUMPDEST PUSH0 DUP3 DUP3 MSTORE PUSH1 0x20 DUP3 ADD SWAP1 POP SWAP3 SWAP2 POP POP JUMP JUMPDEST DUP3 DUP2 DUP4 MCOPY PUSH0 DUP4 DUP4 ADD MSTORE POP POP POP JUMP JUMPDEST PUSH0 PUSH1 0x1F NOT PUSH1 0x1F DUP4 ADD AND SWAP1 POP SWAP2 SWAP1 POP JUMP JUMPDEST PUSH0 PUSH2 0x3E4E DUP3 PUSH2 0x3E0C JUMP JUMPDEST PUSH2 0x3E58 DUP2 DUP6 PUSH2 0x3E16 JUMP JUMPDEST SWAP4 POP PUSH2 0x3E68 DUP2 DUP6 PUSH1 0x20 DUP7 ADD PUSH2 0x3E26 JUMP JUMPDEST PUSH2 0x3E71 DUP2 PUSH2 0x3E34 JUMP JUMPDEST DUP5 ADD SWAP2 POP POP SWAP3 SWAP2 POP POP JUMP JUMPDEST PUSH0 DUP2 ISZERO ISZERO SWAP1 POP SWAP2 SWAP1 POP JUMP JUMPDEST PUSH2 0x3E90 DUP2 PUSH2 0x3E7C JUMP JUMPDEST DUP3 MSTORE POP POP JUMP JUMPDEST PUSH0 PUSH20 0xFFFFFFFFFFFFFFFFFFFFFFFFFFFFFFFFFFFFFFFF DUP3 AND SWAP1 POP SWAP2 SWAP1 POP JUMP JUMPDEST PUSH0 PUSH2 0x3EBF DUP3 PUSH2 0x3E96 JUMP JUMPDEST SWAP1 POP SWAP2 SWAP1 POP JUMP JUMPDEST PUSH2 0x3ECF DUP2 PUSH2 0x3EB5 JUMP JUMPDEST DUP3 MSTORE POP POP JUMP JUMPDEST PUSH0 DUP2 MLOAD SWAP1 POP SWAP2 SWAP1 POP JUMP JUMPDEST PUSH0 DUP3 DUP3 MSTORE PUSH1 0x20 DUP3 ADD SWAP1 POP SWAP3 SWAP2 POP POP JUMP JUMPDEST PUSH0 PUSH2 0x3EF9 DUP3 PUSH2 0x3ED5 JUMP JUMPDEST PUSH2 0x3F03 DUP2 DUP6 PUSH2 0x3EDF JUMP JUMPDEST SWAP4 POP PUSH2 0x3F13 DUP2 DUP6 PUSH1 0x20 DUP7 ADD PUSH2 0x3E26 JUMP JUMPDEST PUSH2 0x3F1C DUP2 PUSH2 0x3E34 JUMP JUMPDEST DUP5 ADD SWAP2 POP POP SWAP3 SWAP2 POP POP JUMP JUMPDEST PUSH0 PUSH1 0xA0 DUP3 ADD SWAP1 POP DUP2 DUP2 SUB PUSH0 DUP4 ADD MSTORE PUSH2 0x3F3F DUP2 DUP9 PUSH2 0x3E44 JUMP JUMPDEST SWAP1 POP PUSH2 0x3F4E PUSH1 0x20 DUP4 ADD DUP8 PUSH2 0x3D7E JUMP JUMPDEST PUSH2 0x3F5B PUSH1 0x40 DUP4 ADD DUP7 PUSH2 0x3E87 JUMP JUMPDEST PUSH2 0x3F68 PUSH1 0x60 DUP4 ADD DUP6 PUSH2 0x3EC6 JUMP JUMPDEST DUP2 DUP2 SUB PUSH1 0x80 DUP4 ADD MSTORE PUSH2 0x3F7A DUP2 DUP5 PUSH2 0x3EEF JUMP JUMPDEST SWAP1 POP SWAP7 SWAP6 POP POP POP POP POP POP JUMP JUMPDEST PUSH2 0x3F8F DUP2 PUSH2 0x3EB5 JUMP JUMPDEST DUP2 EQ PUSH2 0x3F99 JUMPI PUSH0 PUSH0 REVERT JUMPDEST POP JUMP JUMPDEST PUSH0 DUP2 CALLDATALOAD SWAP1 POP PUSH2 0x3FAA DUP2 PUSH2 0x3F86 JUMP JUMPDEST SWAP3 SWAP2 POP POP JUMP JUMPDEST PUSH0 PUSH1 0x20 DUP3 DUP5 SUB SLT ISZERO PUSH2 0x3FC5 JUMPI PUSH2 0x3FC4 PUSH2 0x3DAF JUMP JUMPDEST JUMPDEST PUSH0 PUSH2 0x3FD2 DUP5 DUP3 DUP6 ADD PUSH2 0x3F9C JUMP JUMPDEST SWAP2 POP POP SWAP3 SWAP2 POP POP JUMP JUMPDEST PUSH0 PUSH1 0x20 DUP3 ADD SWAP1 POP DUP2 DUP2 SUB PUSH0 DUP4 ADD MSTORE PUSH2 0x3FF3 DUP2 DUP5 PUSH2 0x3E44 JUMP JUMPDEST SWAP1 POP SWAP3 SWAP2 POP POP JUMP JUMPDEST PUSH0 PUSH0 PUSH1 0x40 DUP4 DUP6 SUB SLT ISZERO PUSH2 0x4011 JUMPI PUSH2 0x4010 PUSH2 0x3DAF JUMP JUMPDEST JUMPDEST PUSH0 PUSH2 0x401E DUP6 DUP3 DUP7 ADD PUSH2 0x3F9C JUMP JUMPDEST SWAP3 POP POP PUSH1 0x20 PUSH2 0x402F DUP6 DUP3 DUP7 ADD PUSH2 0x3DCD JUMP JUMPDEST SWAP2 POP POP SWAP3 POP SWAP3 SWAP1 POP JUMP JUMPDEST PUSH0 PUSH1 0x20 DUP3 ADD SWAP1 POP PUSH2 0x404C PUSH0 DUP4 ADD DUP5 PUSH2 0x3E87 JUMP JUMPDEST SWAP3 SWAP2 POP POP JUMP JUMPDEST PUSH0 PUSH0 PUSH0 PUSH1 0x60 DUP5 DUP7 SUB SLT ISZERO PUSH2 0x4069 JUMPI PUSH2 0x4068 PUSH2 0x3DAF JUMP JUMPDEST JUMPDEST PUSH0 PUSH2 0x4076 DUP7 DUP3 DUP8 ADD PUSH2 0x3F9C JUMP JUMPDEST SWAP4 POP POP PUSH1 0x20 PUSH2 0x4087 DUP7 DUP3 DUP8 ADD PUSH2 0x3F9C JUMP JUMPDEST SWAP3 POP POP PUSH1 0x40 PUSH2 0x4098 DUP7 DUP3 DUP8 ADD PUSH2 0x3DCD JUMP JUMPDEST SWAP2 POP POP SWAP3 POP SWAP3 POP SWAP3 JUMP JUMPDEST PUSH0 PUSH0 REVERT JUMPDEST PUSH0 PUSH0 REVERT JUMPDEST PUSH32 0x4E487B7100000000000000000000000000000000000000000000000000000000 PUSH0 MSTORE PUSH1 0x41 PUSH1 0x4 MSTORE PUSH1 0x24 PUSH0 REVERT JUMPDEST PUSH2 0x40E0 DUP3 PUSH2 0x3E34 JUMP JUMPDEST DUP2 ADD DUP2 DUP2 LT PUSH8 0xFFFFFFFFFFFFFFFF DUP3 GT OR ISZERO PUSH2 0x40FF JUMPI PUSH2 0x40FE PUSH2 0x40AA JUMP JUMPDEST JUMPDEST DUP1 PUSH1 0x40 MSTORE POP POP POP JUMP JUMPDEST PUSH0 PUSH2 0x4111 PUSH2 0x3DA6 JUMP JUMPDEST SWAP1 POP PUSH2 0x411D DUP3 DUP3 PUSH2 0x40D7 JUMP JUMPDEST SWAP2 SWAP1 POP JUMP JUMPDEST PUSH0 PUSH8 0xFFFFFFFFFFFFFFFF DUP3 GT ISZERO PUSH2 0x413C JUMPI PUSH2 0x413B PUSH2 0x40AA JUMP JUMPDEST JUMPDEST PUSH2 0x4145 DUP3 PUSH2 0x3E34 JUMP JUMPDEST SWAP1 POP PUSH1 0x20 DUP2 ADD SWAP1 POP SWAP2 SWAP1 POP JUMP JUMPDEST DUP3 DUP2 DUP4 CALLDATACOPY PUSH0 DUP4 DUP4 ADD MSTORE POP POP POP JUMP JUMPDEST PUSH0 PUSH2 0x4172 PUSH2 0x416D DUP5 PUSH2 0x4122 JUMP JUMPDEST PUSH2 0x4108 JUMP JUMPDEST SWAP1 POP DUP3 DUP2 MSTORE PUSH1 0x20 DUP2 ADD DUP5 DUP5 DUP5 ADD GT ISZERO PUSH2 0x418E JUMPI PUSH2 0x418D PUSH2 0x40A6 JUMP JUMPDEST JUMPDEST PUSH2 0x4199 DUP5 DUP3 DUP6 PUSH2 0x4152 JUMP JUMPDEST POP SWAP4 SWAP3 POP POP POP JUMP JUMPDEST PUSH0 DUP3 PUSH1 0x1F DUP4 ADD SLT PUSH2 0x41B5 JUMPI PUSH2 0x41B4 PUSH2 0x40A2 JUMP JUMPDEST JUMPDEST DUP2 CALLDATALOAD PUSH2 0x41C5 DUP5 DUP3 PUSH1 0x20 DUP7 ADD PUSH2 0x4160 JUMP JUMPDEST SWAP2 POP POP SWAP3 SWAP2 POP POP JUMP JUMPDEST PUSH0 PUSH8 0xFFFFFFFFFFFFFFFF DUP3 GT ISZERO PUSH2 0x41E8 JUMPI PUSH2 0x41E7 PUSH2 0x40AA JUMP JUMPDEST JUMPDEST PUSH2 0x41F1 DUP3 PUSH2 0x3E34 JUMP JUMPDEST SWAP1 POP PUSH1 0x20 DUP2 ADD SWAP1 POP SWAP2 SWAP1 POP JUMP JUMPDEST PUSH0 PUSH2 0x4210 PUSH2 0x420B DUP5 PUSH2 0x41CE JUMP JUMPDEST PUSH2 0x4108 JUMP JUMPDEST SWAP1 POP DUP3 DUP2 MSTORE PUSH1 0x20 DUP2 ADD DUP5 DUP5 DUP5 ADD GT ISZERO PUSH2 0x422C JUMPI PUSH2 0x422B PUSH2 0x40A6 JUMP JUMPDEST JUMPDEST PUSH2 0x4237 DUP5 DUP3 DUP6 PUSH2 0x4152 JUMP JUMPDEST POP SWAP4 SWAP3 POP POP POP JUMP JUMPDEST PUSH0 DUP3 PUSH1 0x1F DUP4 ADD SLT PUSH2 0x4253 JUMPI PUSH2 0x4252 PUSH2 0x40A2 JUMP JUMPDEST JUMPDEST DUP2 CALLDATALOAD PUSH2 0x4263 DUP5 DUP3 PUSH1 0x20 DUP7 ADD PUSH2 0x41FE JUMP JUMPDEST SWAP2 POP POP SWAP3 SWAP2 POP POP JUMP JUMPDEST PUSH0 PUSH0 PUSH0 PUSH1 0x60 DUP5 DUP7 SUB SLT ISZERO PUSH2 0x4283 JUMPI PUSH2 0x4282 PUSH2 0x3DAF JUMP JUMPDEST JUMPDEST PUSH0 DUP5 ADD CALLDATALOAD PUSH8 0xFFFFFFFFFFFFFFFF DUP2 GT ISZERO PUSH2 0x42A0 JUMPI PUSH2 0x429F PUSH2 0x3DB3 JUMP JUMPDEST JUMPDEST PUSH2 0x42AC DUP7 DUP3 DUP8 ADD PUSH2 0x41A1 JUMP JUMPDEST SWAP4 POP POP PUSH1 0x20 PUSH2 0x42BD DUP7 DUP3 DUP8 ADD PUSH2 0x3F9C JUMP JUMPDEST SWAP3 POP POP PUSH1 0x40 DUP5 ADD CALLDATALOAD PUSH8 0xFFFFFFFFFFFFFFFF DUP2 GT ISZERO PUSH2 0x42DE JUMPI PUSH2 0x42DD PUSH2 0x3DB3 JUMP JUMPDEST JUMPDEST PUSH2 0x42EA DUP7 DUP3 DUP8 ADD PUSH2 0x423F JUMP JUMPDEST SWAP2 POP POP SWAP3 POP SWAP3 POP SWAP3 JUMP JUMPDEST PUSH0 PUSH1 0xFF DUP3 AND SWAP1 POP SWAP2 SWAP1 POP JUMP JUMPDEST PUSH2 0x4309 DUP2 PUSH2 0x42F4 JUMP JUMPDEST DUP3 MSTORE POP POP JUMP JUMPDEST PUSH0 PUSH1 0x20 DUP3 ADD SWAP1 POP PUSH2 0x4322 PUSH0 DUP4 ADD DUP5 PUSH2 0x4300 JUMP JUMPDEST SWAP3 SWAP2 POP POP JUMP JUMPDEST PUSH0 PUSH1 0x20 DUP3 ADD SWAP1 POP PUSH2 0x433B PUSH0 DUP4 ADD DUP5 PUSH2 0x3EC6 JUMP JUMPDEST SWAP3 SWAP2 POP POP JUMP JUMPDEST PUSH0 PUSH0 PUSH0 PUSH1 0x60 DUP5 DUP7 SUB SLT ISZERO PUSH2 0x4358 JUMPI PUSH2 0x4357 PUSH2 0x3DAF JUMP JUMPDEST JUMPDEST PUSH0 PUSH2 0x4365 DUP7 DUP3 DUP8 ADD PUSH2 0x3DCD JUMP JUMPDEST SWAP4 POP POP PUSH1 0x20 PUSH2 0x4376 DUP7 DUP3 DUP8 ADD PUSH2 0x3DCD JUMP JUMPDEST SWAP3 POP POP PUSH1 0x40 PUSH2 0x4387 DUP7 DUP3 DUP8 ADD PUSH2 0x3F9C JUMP JUMPDEST SWAP2 POP POP SWAP3 POP SWAP3 POP SWAP3 JUMP JUMPDEST PUSH0 PUSH0 PUSH0 PUSH1 0x60 DUP5 DUP7 SUB SLT ISZERO PUSH2 0x43A8 JUMPI PUSH2 0x43A7 PUSH2 0x3DAF JUMP JUMPDEST JUMPDEST PUSH0 PUSH2 0x43B5 DUP7 DUP3 DUP8 ADD PUSH2 0x3F9C JUMP JUMPDEST SWAP4 POP POP PUSH1 0x20 PUSH2 0x43C6 DUP7 DUP3 DUP8 ADD PUSH2 0x3F9C JUMP JUMPDEST SWAP3 POP POP PUSH1 0x40 PUSH2 0x43D7 DUP7 DUP3 DUP8 ADD PUSH2 0x3F9C JUMP JUMPDEST SWAP2 POP POP SWAP3 POP SWAP3 POP SWAP3 JUMP JUMPDEST PUSH0 DUP2 SWAP1 POP SWAP2 SWAP1 POP JUMP JUMPDEST PUSH0 PUSH2 0x4404 PUSH2 0x43FF PUSH2 0x43FA DUP5 PUSH2 0x3E96 JUMP JUMPDEST PUSH2 0x43E1 JUMP JUMPDEST PUSH2 0x3E96 JUMP JUMPDEST SWAP1 POP SWAP2 SWAP1 POP JUMP JUMPDEST PUSH0 PUSH2 0x4415 DUP3 PUSH2 0x43EA JUMP JUMPDEST SWAP1 POP SWAP2 SWAP1 POP JUMP JUMPDEST PUSH0 PUSH2 0x4426 DUP3 PUSH2 0x440B JUMP JUMPDEST SWAP1 POP SWAP2 SWAP1 POP JUMP JUMPDEST PUSH2 0x4436 DUP2 PUSH2 0x441C JUMP JUMPDEST DUP3 MSTORE POP POP JUMP JUMPDEST PUSH0 PUSH1 0x20 DUP3 ADD SWAP1 POP PUSH2 0x444F PUSH0 DUP4 ADD DUP5 PUSH2 0x442D JUMP JUMPDEST SWAP3 SWAP2 POP POP JUMP JUMPDEST PUSH0 PUSH0 PUSH1 0x40 DUP4 DUP6 SUB SLT ISZERO PUSH2 0x446B JUMPI PUSH2 0x446A PUSH2 0x3DAF JUMP JUMPDEST JUMPDEST PUSH0 PUSH2 0x4478 DUP6 DUP3 DUP7 ADD PUSH2 0x3F9C JUMP JUMPDEST SWAP3 POP POP PUSH1 0x20 PUSH2 0x4489 DUP6 DUP3 DUP7 ADD PUSH2 0x3F9C JUMP JUMPDEST SWAP2 POP POP SWAP3 POP SWAP3 SWAP1 POP JUMP JUMPDEST PUSH32 0x4E487B7100000000000000000000000000000000000000000000000000000000 PUSH0 MSTORE PUSH1 0x22 PUSH1 0x4 MSTORE PUSH1 0x24 PUSH0 REVERT JUMPDEST PUSH0 PUSH1 0x2 DUP3 DIV SWAP1 POP PUSH1 0x1 DUP3 AND DUP1 PUSH2 0x44D7 JUMPI PUSH1 0x7F DUP3 AND SWAP2 POP JUMPDEST PUSH1 0x20 DUP3 LT DUP2 SUB PUSH2 0x44EA JUMPI PUSH2 0x44E9 PUSH2 0x4493 JUMP JUMPDEST JUMPDEST POP SWAP2 SWAP1 POP JUMP JUMPDEST PUSH32 0x496E76616C6964206C697175696469747920706F6F6C20616464726573730000 PUSH0 DUP3 ADD MSTORE POP JUMP JUMPDEST PUSH0 PUSH2 0x4524 PUSH1 0x1E DUP4 PUSH2 0x3E16 JUMP JUMPDEST SWAP2 POP PUSH2 0x452F DUP3 PUSH2 0x44F0 JUMP JUMPDEST PUSH1 0x20 DUP3 ADD SWAP1 POP SWAP2 SWAP1 POP JUMP JUMPDEST PUSH0 PUSH1 0x20 DUP3 ADD SWAP1 POP DUP2 DUP2 SUB PUSH0 DUP4 ADD MSTORE PUSH2 0x4551 DUP2 PUSH2 0x4518 JUMP JUMPDEST SWAP1 POP SWAP2 SWAP1 POP JUMP JUMPDEST PUSH32 0x496E76616C69642062726964676520636F6E7472616374206164647265737300 PUSH0 DUP3 ADD MSTORE POP JUMP JUMPDEST PUSH0 PUSH2 0x458C PUSH1 0x1F DUP4 PUSH2 0x3E16 JUMP JUMPDEST SWAP2 POP PUSH2 0x4597 DUP3 PUSH2 0x4558 JUMP JUMPDEST PUSH1 0x20 DUP3 ADD SWAP1 POP SWAP2 SWAP1 POP JUMP JUMPDEST PUSH0 PUSH1 0x20 DUP3 ADD SWAP1 POP DUP2 DUP2 SUB PUSH0 DUP4 ADD MSTORE PUSH2 0x45B9 DUP2 PUSH2 0x4580 JUMP JUMPDEST SWAP1 POP SWAP2 SWAP1 POP JUMP JUMPDEST PUSH32 0x496E76616C69642070726F706F73616C20494400000000000000000000000000 PUSH0 DUP3 ADD MSTORE POP JUMP JUMPDEST PUSH0 PUSH2 0x45F4 PUSH1 0x13 DUP4 PUSH2 0x3E16 JUMP JUMPDEST SWAP2 POP PUSH2 0x45FF DUP3 PUSH2 0x45C0 JUMP JUMPDEST PUSH1 0x20 DUP3 ADD SWAP1 POP SWAP2 SWAP1 POP JUMP JUMPDEST PUSH0 PUSH1 0x20 DUP3 ADD SWAP1 POP DUP2 DUP2 SUB PUSH0 DUP4 ADD MSTORE PUSH2 0x4621 DUP2 PUSH2 0x45E8 JUMP JUMPDEST SWAP1 POP SWAP2 SWAP1 POP JUMP JUMPDEST PUSH32 0x4E487B7100000000000000000000000000000000000000000000000000000000 PUSH0 MSTORE PUSH1 0x32 PUSH1 0x4 MSTORE PUSH1 0x24 PUSH0 REVERT JUMPDEST PUSH32 0x50726F706F73616C20616C726561647920657865637574656400000000000000 PUSH0 DUP3 ADD MSTORE POP JUMP JUMPDEST PUSH0 PUSH2 0x4689 PUSH1 0x19 DUP4 PUSH2 0x3E16 JUMP JUMPDEST SWAP2 POP PUSH2 0x4694 DUP3 PUSH2 0x4655 JUMP JUMPDEST PUSH1 0x20 DUP3 ADD SWAP1 POP SWAP2 SWAP1 POP JUMP JUMPDEST PUSH0 PUSH1 0x20 DUP3 ADD SWAP1 POP DUP2 DUP2 SUB PUSH0 DUP4 ADD MSTORE PUSH2 0x46B6 DUP2 PUSH2 0x467D JUMP JUMPDEST SWAP1 POP SWAP2 SWAP1 POP JUMP JUMPDEST PUSH32 0x4E487B7100000000000000000000000000000000000000000000000000000000 PUSH0 MSTORE PUSH1 0x12 PUSH1 0x4 MSTORE PUSH1 0x24 PUSH0 REVERT JUMPDEST PUSH32 0x4E487B7100000000000000000000000000000000000000000000000000000000 PUSH0 MSTORE PUSH1 0x11 PUSH1 0x4 MSTORE PUSH1 0x24 PUSH0 REVERT JUMPDEST PUSH0 PUSH2 0x4721 DUP3 PUSH2 0x3D75 JUMP JUMPDEST SWAP2 POP PUSH2 0x472C DUP4 PUSH2 0x3D75 JUMP JUMPDEST SWAP3 POP DUP3 PUSH2 0x473C JUMPI PUSH2 0x473B PUSH2 0x46BD JUMP JUMPDEST JUMPDEST DUP3 DUP3 DIV SWAP1 POP SWAP3 SWAP2 POP POP JUMP JUMPDEST PUSH32 0x496E73756666696369656E7420766F7465730000000000000000000000000000 PUSH0 DUP3 ADD MSTORE POP JUMP JUMPDEST PUSH0 PUSH2 0x477B PUSH1 0x12 DUP4 PUSH2 0x3E16 JUMP JUMPDEST SWAP2 POP PUSH2 0x4786 DUP3 PUSH2 0x4747 JUMP JUMPDEST PUSH1 0x20 DUP3 ADD SWAP1 POP SWAP2 SWAP1 POP JUMP JUMPDEST PUSH0 PUSH1 0x20 DUP3 ADD SWAP1 POP DUP2 DUP2 SUB PUSH0 DUP4 ADD MSTORE PUSH2 0x47A8 DUP2 PUSH2 0x476F JUMP JUMPDEST SWAP1 POP SWAP2 SWAP1 POP JUMP JUMPDEST PUSH32 0x496E76616C696420746172676574206164647265737300000000000000000000 PUSH0 DUP3 ADD MSTORE POP JUMP JUMPDEST PUSH0 PUSH2 0x47E3 PUSH1 0x16 DUP4 PUSH2 0x3E16 JUMP JUMPDEST SWAP2 POP PUSH2 0x47EE DUP3 PUSH2 0x47AF JUMP JUMPDEST PUSH1 0x20 DUP3 ADD SWAP1 POP SWAP2 SWAP1 POP JUMP JUMPDEST PUSH0 PUSH1 0x20 DUP3 ADD SWAP1 POP DUP2 DUP2 SUB PUSH0 DUP4 ADD MSTORE PUSH2 0x4810 DUP2 PUSH2 0x47D7 JUMP JUMPDEST SWAP1 POP SWAP2 SWAP1 POP JUMP JUMPDEST PUSH32 0x496E76616C696420646174610000000000000000000000000000000000000000 PUSH0 DUP3 ADD MSTORE POP JUMP JUMPDEST PUSH0 PUSH2 0x484B PUSH1 0xC DUP4 PUSH2 0x3E16 JUMP JUMPDEST SWAP2 POP PUSH2 0x4856 DUP3 PUSH2 0x4817 JUMP JUMPDEST PUSH1 0x20 DUP3 ADD SWAP1 POP SWAP2 SWAP1 POP JUMP JUMPDEST PUSH0 PUSH1 0x20 DUP3 ADD SWAP1 POP DUP2 DUP2 SUB PUSH0 DUP4 ADD MSTORE PUSH2 0x4878 DUP2 PUSH2 0x483F JUMP JUMPDEST SWAP1 POP SWAP2 SWAP1 POP JUMP JUMPDEST PUSH0 DUP2 SWAP1 POP SWAP3 SWAP2 POP POP JUMP JUMPDEST PUSH0 DUP2 SWAP1 POP DUP2 PUSH0 MSTORE PUSH1 0x20 PUSH0 KECCAK256 SWAP1 POP SWAP2 SWAP1 POP JUMP JUMPDEST PUSH0 DUP2 SLOAD PUSH2 0x48A7 DUP2 PUSH2 0x44C0 JUMP JUMPDEST PUSH2 0x48B1 DUP2 DUP7 PUSH2 0x487F JUMP JUMPDEST SWAP5 POP PUSH1 0x1 DUP3 AND PUSH0 DUP2 EQ PUSH2 0x48CB JUMPI PUSH1 0x1 DUP2 EQ PUSH2 0x48E0 JUMPI PUSH2 0x4912 JUMP JUMPDEST PUSH1 0xFF NOT DUP4 AND DUP7 MSTORE DUP2 ISZERO ISZERO DUP3 MUL DUP7 ADD SWAP4 POP PUSH2 0x4912 JUMP JUMPDEST PUSH2 0x48E9 DUP6 PUSH2 0x4889 JUMP JUMPDEST PUSH0 JUMPDEST DUP4 DUP2 LT ISZERO PUSH2 0x490A JUMPI DUP2 SLOAD DUP2 DUP10 ADD MSTORE PUSH1 0x1 DUP3 ADD SWAP2 POP PUSH1 0x20 DUP2 ADD SWAP1 POP PUSH2 0x48EB JUMP JUMPDEST DUP4 DUP9 ADD SWAP6 POP POP POP JUMPDEST POP POP POP SWAP3 SWAP2 POP POP JUMP JUMPDEST PUSH0 PUSH2 0x4926 DUP3 DUP5 PUSH2 0x489B JUMP JUMPDEST SWAP2 POP DUP2 SWAP1 POP SWAP3 SWAP2 POP POP JUMP JUMPDEST PUSH32 0x50726F706F73616C20657865637574696F6E206661696C656400000000000000 PUSH0 DUP3 ADD MSTORE POP JUMP JUMPDEST PUSH0 PUSH2 0x4965 PUSH1 0x19 DUP4 PUSH2 0x3E16 JUMP JUMPDEST SWAP2 POP PUSH2 0x4970 DUP3 PUSH2 0x4931 JUMP JUMPDEST PUSH1 0x20 DUP3 ADD SWAP1 POP SWAP2 SWAP1 POP JUMP JUMPDEST PUSH0 PUSH1 0x20 DUP3 ADD SWAP1 POP DUP2 DUP2 SUB PUSH0 DUP4 ADD MSTORE PUSH2 0x4992 DUP2 PUSH2 0x4959 JUMP JUMPDEST SWAP1 POP SWAP2 SWAP1 POP JUMP JUMPDEST PUSH32 0x416D6F756E74206D7573742062652067726561746572207468616E207A65726F PUSH0 DUP3 ADD MSTORE POP JUMP JUMPDEST PUSH0 PUSH2 0x49CD PUSH1 0x20 DUP4 PUSH2 0x3E16 JUMP JUMPDEST SWAP2 POP PUSH2 0x49D8 DUP3 PUSH2 0x4999 JUMP JUMPDEST PUSH1 0x20 DUP3 ADD SWAP1 POP SWAP2 SWAP1 POP JUMP JUMPDEST PUSH0 PUSH1 0x20 DUP3 ADD SWAP1 POP DUP2 DUP2 SUB PUSH0 DUP4 ADD MSTORE PUSH2 0x49FA DUP2 PUSH2 0x49C1 JUMP JUMPDEST SWAP1 POP SWAP2 SWAP1 POP JUMP JUMPDEST PUSH32 0x496E73756666696369656E7420424E422062616C616E63650000000000000000 PUSH0 DUP3 ADD MSTORE POP JUMP JUMPDEST PUSH0 PUSH2 0x4A35 PUSH1 0x18 DUP4 PUSH2 0x3E16 JUMP JUMPDEST SWAP2 POP PUSH2 0x4A40 DUP3 PUSH2 0x4A01 JUMP JUMPDEST PUSH1 0x20 DUP3 ADD SWAP1 POP SWAP2 SWAP1 POP JUMP JUMPDEST PUSH0 PUSH1 0x20 DUP3 ADD SWAP1 POP DUP2 DUP2 SUB PUSH0 DUP4 ADD MSTORE PUSH2 0x4A62 DUP2 PUSH2 0x4A29 JUMP JUMPDEST SWAP1 POP SWAP2 SWAP1 POP JUMP JUMPDEST PUSH0 DUP2 SWAP1 POP DUP2 PUSH0 MSTORE PUSH1 0x20 PUSH0 KECCAK256 SWAP1 POP SWAP2 SWAP1 POP JUMP JUMPDEST PUSH0 PUSH1 0x20 PUSH1 0x1F DUP4 ADD DIV SWAP1 POP SWAP2 SWAP1 POP JUMP JUMPDEST PUSH0 DUP3 DUP3 SHL SWAP1 POP SWAP3 SWAP2 POP POP JUMP JUMPDEST PUSH0 PUSH1 0x8 DUP4 MUL PUSH2 0x4AC5 PUSH32 0xFFFFFFFFFFFFFFFFFFFFFFFFFFFFFFFFFFFFFFFFFFFFFFFFFFFFFFFFFFFFFFFF DUP3 PUSH2 0x4A8A JUMP JUMPDEST PUSH2 0x4ACF DUP7 DUP4 PUSH2 0x4A8A JUMP JUMPDEST SWAP6 POP DUP1 NOT DUP5 AND SWAP4 POP DUP1 DUP7 AND DUP5 OR SWAP3 POP POP POP SWAP4 SWAP3 POP POP POP JUMP JUMPDEST PUSH0 PUSH2 0x4B01 PUSH2 0x4AFC PUSH2 0x4AF7 DUP5 PUSH2 0x3D75 JUMP JUMPDEST PUSH2 0x43E1 JUMP JUMPDEST PUSH2 0x3D75 JUMP JUMPDEST SWAP1 POP SWAP2 SWAP1 POP JUMP JUMPDEST PUSH0 DUP2 SWAP1 POP SWAP2 SWAP1 POP JUMP JUMPDEST PUSH2 0x4B1A DUP4 PUSH2 0x4AE7 JUMP JUMPDEST PUSH2 0x4B2E PUSH2 0x4B26 DUP3 PUSH2 0x4B08 JUMP JUMPDEST DUP5 DUP5 SLOAD PUSH2 0x4A96 JUMP JUMPDEST DUP3 SSTORE POP POP POP POP JUMP JUMPDEST PUSH0 PUSH0 SWAP1 POP SWAP1 JUMP JUMPDEST PUSH2 0x4B45 PUSH2 0x4B36 JUMP JUMPDEST PUSH2 0x4B50 DUP2 DUP5 DUP5 PUSH2 0x4B11 JUMP JUMPDEST POP POP POP JUMP JUMPDEST JUMPDEST DUP2 DUP2 LT ISZERO PUSH2 0x4B73 JUMPI PUSH2 0x4B68 PUSH0 DUP3 PUSH2 0x4B3D JUMP JUMPDEST PUSH1 0x1 DUP2 ADD SWAP1 POP PUSH2 0x4B56 JUMP JUMPDEST POP POP JUMP JUMPDEST PUSH1 0x1F DUP3 GT ISZERO PUSH2 0x4BB8 JUMPI PUSH2 0x4B89 DUP2 PUSH2 0x4A69 JUMP JUMPDEST PUSH2 0x4B92 DUP5 PUSH2 0x4A7B JUMP JUMPDEST DUP2 ADD PUSH1 0x20 DUP6 LT ISZERO PUSH2 0x4BA1 JUMPI DUP2 SWAP1 POP JUMPDEST PUSH2 0x4BB5 PUSH2 0x4BAD DUP6 PUSH2 0x4A7B JUMP JUMPDEST DUP4 ADD DUP3 PUSH2 0x4B55 JUMP JUMPDEST POP POP JUMPDEST POP POP POP JUMP JUMPDEST PUSH0 DUP3 DUP3 SHR SWAP1 POP SWAP3 SWAP2 POP POP JUMP JUMPDEST PUSH0 PUSH2 0x4BD8 PUSH0 NOT DUP5 PUSH1 0x8 MUL PUSH2 0x4BBD JUMP JUMPDEST NOT DUP1 DUP4 AND SWAP2 POP POP SWAP3 SWAP2 POP POP JUMP JUMPDEST PUSH0 PUSH2 0x4BF0 DUP4 DUP4 PUSH2 0x4BC9 JUMP JUMPDEST SWAP2 POP DUP3 PUSH1 0x2 MUL DUP3 OR SWAP1 POP SWAP3 SWAP2 POP POP JUMP JUMPDEST PUSH2 0x4C09 DUP3 PUSH2 0x3E0C JUMP JUMPDEST PUSH8 0xFFFFFFFFFFFFFFFF DUP2 GT ISZERO PUSH2 0x4C22 JUMPI PUSH2 0x4C21 PUSH2 0x40AA JUMP JUMPDEST JUMPDEST PUSH2 0x4C2C DUP3 SLOAD PUSH2 0x44C0 JUMP JUMPDEST PUSH2 0x4C37 DUP3 DUP3 DUP6 PUSH2 0x4B77 JUMP JUMPDEST PUSH0 PUSH1 0x20 SWAP1 POP PUSH1 0x1F DUP4 GT PUSH1 0x1 DUP2 EQ PUSH2 0x4C68 JUMPI PUSH0 DUP5 ISZERO PUSH2 0x4C56 JUMPI DUP3 DUP8 ADD MLOAD SWAP1 POP JUMPDEST PUSH2 0x4C60 DUP6 DUP3 PUSH2 0x4BE5 JUMP JUMPDEST DUP7 SSTORE POP PUSH2 0x4CC7 JUMP JUMPDEST PUSH1 0x1F NOT DUP5 AND PUSH2 0x4C76 DUP7 PUSH2 0x4A69 JUMP JUMPDEST PUSH0 JUMPDEST DUP3 DUP2 LT ISZERO PUSH2 0x4C9D JUMPI DUP5 DUP10 ADD MLOAD DUP3 SSTORE PUSH1 0x1 DUP3 ADD SWAP2 POP PUSH1 0x20 DUP6 ADD SWAP5 POP PUSH1 0x20 DUP2 ADD SWAP1 POP PUSH2 0x4C78 JUMP JUMPDEST DUP7 DUP4 LT ISZERO PUSH2 0x4CBA JUMPI DUP5 DUP10 ADD MLOAD PUSH2 0x4CB6 PUSH1 0x1F DUP10 AND DUP3 PUSH2 0x4BC9 JUMP JUMPDEST DUP4 SSTORE POP JUMPDEST PUSH1 0x1 PUSH1 0x2 DUP9 MUL ADD DUP9 SSTORE POP POP POP JUMPDEST POP POP POP POP POP POP JUMP JUMPDEST PUSH1 0x1F DUP3 GT ISZERO PUSH2 0x4D10 JUMPI PUSH2 0x4CE1 DUP2 PUSH2 0x4889 JUMP JUMPDEST PUSH2 0x4CEA DUP5 PUSH2 0x4A7B JUMP JUMPDEST DUP2 ADD PUSH1 0x20 DUP6 LT ISZERO PUSH2 0x4CF9 JUMPI DUP2 SWAP1 POP JUMPDEST PUSH2 0x4D0D PUSH2 0x4D05 DUP6 PUSH2 0x4A7B JUMP JUMPDEST DUP4 ADD DUP3 PUSH2 0x4B55 JUMP JUMPDEST POP POP JUMPDEST POP POP POP JUMP JUMPDEST PUSH2 0x4D1E DUP3 PUSH2 0x3ED5 JUMP JUMPDEST PUSH8 0xFFFFFFFFFFFFFFFF DUP2 GT ISZERO PUSH2 0x4D37 JUMPI PUSH2 0x4D36 PUSH2 0x40AA JUMP JUMPDEST JUMPDEST PUSH2 0x4D41 DUP3 SLOAD PUSH2 0x44C0 JUMP JUMPDEST PUSH2 0x4D4C DUP3 DUP3 DUP6 PUSH2 0x4CCF JUMP JUMPDEST PUSH0 PUSH1 0x20 SWAP1 POP PUSH1 0x1F DUP4 GT PUSH1 0x1 DUP2 EQ PUSH2 0x4D7D JUMPI PUSH0 DUP5 ISZERO PUSH2 0x4D6B JUMPI DUP3 DUP8 ADD MLOAD SWAP1 POP JUMPDEST PUSH2 0x4D75 DUP6 DUP3 PUSH2 0x4BE5 JUMP JUMPDEST DUP7 SSTORE POP PUSH2 0x4DDC JUMP JUMPDEST PUSH1 0x1F NOT DUP5 AND PUSH2 0x4D8B DUP7 PUSH2 0x4889 JUMP JUMPDEST PUSH0 JUMPDEST DUP3 DUP2 LT ISZERO PUSH2 0x4DB2 JUMPI DUP5 DUP10 ADD MLOAD DUP3 SSTORE PUSH1 0x1 DUP3 ADD SWAP2 POP PUSH1 0x20 DUP6 ADD SWAP5 POP PUSH1 0x20 DUP2 ADD SWAP1 POP PUSH2 0x4D8D JUMP JUMPDEST DUP7 DUP4 LT ISZERO PUSH2 0x4DCF JUMPI DUP5 DUP10 ADD MLOAD PUSH2 0x4DCB PUSH1 0x1F DUP10 AND DUP3 PUSH2 0x4BC9 JUMP JUMPDEST DUP4 SSTORE POP JUMPDEST PUSH1 0x1 PUSH1 0x2 DUP9 MUL ADD DUP9 SSTORE POP POP POP JUMPDEST POP POP POP POP POP POP JUMP JUMPDEST PUSH0 PUSH2 0x4DEE DUP3 PUSH2 0x3D75 JUMP JUMPDEST SWAP2 POP PUSH2 0x4DF9 DUP4 PUSH2 0x3D75 JUMP JUMPDEST SWAP3 POP DUP3 DUP3 SUB SWAP1 POP DUP2 DUP2 GT ISZERO PUSH2 0x4E11 JUMPI PUSH2 0x4E10 PUSH2 0x46EA JUMP JUMPDEST JUMPDEST SWAP3 SWAP2 POP POP JUMP JUMPDEST PUSH0 PUSH1 0x40 DUP3 ADD SWAP1 POP PUSH2 0x4E2A PUSH0 DUP4 ADD DUP6 PUSH2 0x3D7E JUMP JUMPDEST DUP2 DUP2 SUB PUSH1 0x20 DUP4 ADD MSTORE PUSH2 0x4E3C DUP2 DUP5 PUSH2 0x3E44 JUMP JUMPDEST SWAP1 POP SWAP4 SWAP3 POP POP POP JUMP JUMPDEST PUSH32 0x496E76616C696420746F6B656E20616464726573730000000000000000000000 PUSH0 DUP3 ADD MSTORE POP JUMP JUMPDEST PUSH0 PUSH2 0x4E79 PUSH1 0x15 DUP4 PUSH2 0x3E16 JUMP JUMPDEST SWAP2 POP PUSH2 0x4E84 DUP3 PUSH2 0x4E45 JUMP JUMPDEST PUSH1 0x20 DUP3 ADD SWAP1 POP SWAP2 SWAP1 POP JUMP JUMPDEST PUSH0 PUSH1 0x20 DUP3 ADD SWAP1 POP DUP2 DUP2 SUB PUSH0 DUP4 ADD MSTORE PUSH2 0x4EA6 DUP2 PUSH2 0x4E6D JUMP JUMPDEST SWAP1 POP SWAP2 SWAP1 POP JUMP JUMPDEST PUSH32 0x4C697175696469747920706F6F6C206E6F742073657400000000000000000000 PUSH0 DUP3 ADD MSTORE POP JUMP JUMPDEST PUSH0 PUSH2 0x4EE1 PUSH1 0x16 DUP4 PUSH2 0x3E16 JUMP JUMPDEST SWAP2 POP PUSH2 0x4EEC DUP3 PUSH2 0x4EAD JUMP JUMPDEST PUSH1 0x20 DUP3 ADD SWAP1 POP SWAP2 SWAP1 POP JUMP JUMPDEST PUSH0 PUSH1 0x20 DUP3 ADD SWAP1 POP DUP2 DUP2 SUB PUSH0 DUP4 ADD MSTORE PUSH2 0x4F0E DUP2 PUSH2 0x4ED5 JUMP JUMPDEST SWAP1 POP SWAP2 SWAP1 POP JUMP JUMPDEST PUSH0 PUSH2 0x4F1F DUP3 PUSH2 0x3D75 JUMP JUMPDEST SWAP2 POP PUSH2 0x4F2A DUP4 PUSH2 0x3D75 JUMP JUMPDEST SWAP3 POP DUP3 DUP3 ADD SWAP1 POP DUP1 DUP3 GT ISZERO PUSH2 0x4F42 JUMPI PUSH2 0x4F41 PUSH2 0x46EA JUMP JUMPDEST JUMPDEST SWAP3 SWAP2 POP POP JUMP JUMPDEST PUSH0 PUSH1 0x40 DUP3 ADD SWAP1 POP PUSH2 0x4F5B PUSH0 DUP4 ADD DUP6 PUSH2 0x3D7E JUMP JUMPDEST PUSH2 0x4F68 PUSH1 0x20 DUP4 ADD DUP5 PUSH2 0x3EC6 JUMP JUMPDEST SWAP4 SWAP3 POP POP POP JUMP JUMPDEST PUSH32 0x496E73756666696369656E74207374616B656420616D6F756E74000000000000 PUSH0 DUP3 ADD MSTORE POP JUMP JUMPDEST PUSH0 PUSH2 0x4FA3 PUSH1 0x1A DUP4 PUSH2 0x3E16 JUMP JUMPDEST SWAP2 POP PUSH2 0x4FAE DUP3 PUSH2 0x4F6F JUMP JUMPDEST PUSH1 0x20 DUP3 ADD SWAP1 POP SWAP2 SWAP1 POP JUMP JUMPDEST PUSH0 PUSH1 0x20 DUP3 ADD SWAP1 POP DUP2 DUP2 SUB PUSH0 DUP4 ADD MSTORE PUSH2 0x4FD0 DUP2 PUSH2 0x4F97 JUMP JUMPDEST SWAP1 POP SWAP2 SWAP1 POP JUMP JUMPDEST PUSH0 DUP2 MLOAD SWAP1 POP PUSH2 0x4FE5 DUP2 PUSH2 0x3DB7 JUMP JUMPDEST SWAP3 SWAP2 POP POP JUMP JUMPDEST PUSH0 PUSH1 0x20 DUP3 DUP5 SUB SLT ISZERO PUSH2 0x5000 JUMPI PUSH2 0x4FFF PUSH2 0x3DAF JUMP JUMPDEST JUMPDEST PUSH0 PUSH2 0x500D DUP5 DUP3 DUP6 ADD PUSH2 0x4FD7 JUMP JUMPDEST SWAP2 POP POP SWAP3 SWAP2 POP POP JUMP JUMPDEST PUSH32 0x496E73756666696369656E7420737461626C65636F696E2062616C616E636500 PUSH0 DUP3 ADD MSTORE POP JUMP JUMPDEST PUSH0 PUSH2 0x504A PUSH1 0x1F DUP4 PUSH2 0x3E16 JUMP JUMPDEST SWAP2 POP PUSH2 0x5055 DUP3 PUSH2 0x5016 JUMP JUMPDEST PUSH1 0x20 DUP3 ADD SWAP1 POP SWAP2 SWAP1 POP JUMP JUMPDEST PUSH0 PUSH1 0x20 DUP3 ADD SWAP1 POP DUP2 DUP2 SUB PUSH0 DUP4 ADD MSTORE PUSH2 0x5077 DUP2 PUSH2 0x503E JUMP JUMPDEST SWAP1 POP SWAP2 SWAP1 POP JUMP JUMPDEST PUSH0 PUSH1 0x40 DUP3 ADD SWAP1 POP PUSH2 0x5091 PUSH0 DUP4 ADD DUP6 PUSH2 0x3D7E JUMP JUMPDEST PUSH2 0x509E PUSH1 0x20 DUP4 ADD DUP5 PUSH2 0x3D7E JUMP JUMPDEST SWAP4 SWAP3 POP POP POP JUMP JUMPDEST PUSH32 0x496E73756666696369656E74206C697175696469747900000000000000000000 PUSH0 DUP3 ADD MSTORE POP JUMP JUMPDEST PUSH0 PUSH2 0x50D9 PUSH1 0x16 DUP4 PUSH2 0x3E16 JUMP JUMPDEST SWAP2 POP PUSH2 0x50E4 DUP3 PUSH2 0x50A5 JUMP JUMPDEST PUSH1 0x20 DUP3 ADD SWAP1 POP SWAP2 SWAP1 POP JUMP JUMPDEST PUSH0 PUSH1 0x20 DUP3 ADD SWAP1 POP DUP2 DUP2 SUB PUSH0 DUP4 ADD MSTORE PUSH2 0x5106 DUP2 PUSH2 0x50CD JUMP JUMPDEST SWAP1 POP SWAP2 SWAP1 POP JUMP JUMPDEST PUSH0 PUSH2 0x5117 DUP3 PUSH2 0x3D75 JUMP JUMPDEST SWAP2 POP PUSH2 0x5122 DUP4 PUSH2 0x3D75 JUMP JUMPDEST SWAP3 POP DUP3 DUP3 MUL PUSH2 0x5130 DUP2 PUSH2 0x3D75 JUMP JUMPDEST SWAP2 POP DUP3 DUP3 DIV DUP5 EQ DUP4 ISZERO OR PUSH2 0x5147 JUMPI PUSH2 0x5146 PUSH2 0x46EA JUMP JUMPDEST JUMPDEST POP SWAP3 SWAP2 POP POP JUMP JUMPDEST PUSH32 0x496E76616C696420726563697069656E74206164647265737300000000000000 PUSH0 DUP3 ADD MSTORE POP JUMP JUMPDEST PUSH0 PUSH2 0x5182 PUSH1 0x19 DUP4 PUSH2 0x3E16 JUMP JUMPDEST SWAP2 POP PUSH2 0x518D DUP3 PUSH2 0x514E JUMP JUMPDEST PUSH1 0x20 DUP3 ADD SWAP1 POP SWAP2 SWAP1 POP JUMP JUMPDEST PUSH0 PUSH1 0x20 DUP3 ADD SWAP1 POP DUP2 DUP2 SUB PUSH0 DUP4 ADD MSTORE PUSH2 0x51AF DUP2 PUSH2 0x5176 JUMP JUMPDEST SWAP1 POP SWAP2 SWAP1 POP JUMP JUMPDEST PUSH0 PUSH2 0x51C0 DUP3 PUSH2 0x3E96 JUMP JUMPDEST SWAP1 POP SWAP2 SWAP1 POP JUMP JUMPDEST PUSH2 0x51D0 DUP2 PUSH2 0x51B6 JUMP JUMPDEST DUP3 MSTORE POP POP JUMP JUMPDEST PUSH0 PUSH1 0x40 DUP3 ADD SWAP1 POP PUSH2 0x51E9 PUSH0 DUP4 ADD DUP6 PUSH2 0x3D7E JUMP JUMPDEST PUSH2 0x51F6 PUSH1 0x20 DUP4 ADD DUP5 PUSH2 0x51C7 JUMP JUMPDEST SWAP4 SWAP3 POP POP POP JUMP JUMPDEST PUSH32 0x596F75206861766520616C726561647920766F74656400000000000000000000 PUSH0 DUP3 ADD MSTORE POP JUMP JUMPDEST PUSH0 PUSH2 0x5231 PUSH1 0x16 DUP4 PUSH2 0x3E16 JUMP JUMPDEST SWAP2 POP PUSH2 0x523C DUP3 PUSH2 0x51FD JUMP JUMPDEST PUSH1 0x20 DUP3 ADD SWAP1 POP SWAP2 SWAP1 POP JUMP JUMPDEST PUSH0 PUSH1 0x20 DUP3 ADD SWAP1 POP DUP2 DUP2 SUB PUSH0 DUP4 ADD MSTORE PUSH2 0x525E DUP2 PUSH2 0x5225 JUMP JUMPDEST SWAP1 POP SWAP2 SWAP1 POP JUMP JUMPDEST PUSH32 0x4E6F20766F74696E6720706F7765720000000000000000000000000000000000 PUSH0 DUP3 ADD MSTORE POP JUMP JUMPDEST PUSH0 PUSH2 0x5299 PUSH1 0xF DUP4 PUSH2 0x3E16 JUMP JUMPDEST SWAP2 POP PUSH2 0x52A4 DUP3 PUSH2 0x5265 JUMP JUMPDEST PUSH1 0x20 DUP3 ADD SWAP1 POP SWAP2 SWAP1 POP JUMP JUMPDEST PUSH0 PUSH1 0x20 DUP3 ADD SWAP1 POP DUP2 DUP2 SUB PUSH0 DUP4 ADD MSTORE PUSH2 0x52C6 DUP2 PUSH2 0x528D JUMP JUMPDEST SWAP1 POP SWAP2 SWAP1 POP JUMP JUMPDEST PUSH32 0x496E76616C696420737461626C6520746F6B656E206164647265737300000000 PUSH0 DUP3 ADD MSTORE POP JUMP JUMPDEST PUSH0 PUSH2 0x5301 PUSH1 0x1C DUP4 PUSH2 0x3E16 JUMP JUMPDEST SWAP2 POP PUSH2 0x530C DUP3 PUSH2 0x52CD JUMP JUMPDEST PUSH1 0x20 DUP3 ADD SWAP1 POP SWAP2 SWAP1 POP JUMP JUMPDEST PUSH0 PUSH1 0x20 DUP3 ADD SWAP1 POP DUP2 DUP2 SUB PUSH0 DUP4 ADD MSTORE PUSH2 0x532E DUP2 PUSH2 0x52F5 JUMP JUMPDEST SWAP1 POP SWAP2 SWAP1 POP JUMP JUMPDEST PUSH32 0x496E76616C6964206465706C6F7965722077616C6C6574206164647265737300 PUSH0 DUP3 ADD MSTORE POP JUMP JUMPDEST PUSH0 PUSH2 0x5369 PUSH1 0x1F DUP4 PUSH2 0x3E16 JUMP JUMPDEST SWAP2 POP PUSH2 0x5374 DUP3 PUSH2 0x5335 JUMP JUMPDEST PUSH1 0x20 DUP3 ADD SWAP1 POP SWAP2 SWAP1 POP JUMP JUMPDEST PUSH0 PUSH1 0x20 DUP3 ADD SWAP1 POP DUP2 DUP2 SUB PUSH0 DUP4 ADD MSTORE PUSH2 0x5396 DUP2 PUSH2 0x535D JUMP JUMPDEST SWAP1 POP SWAP2 SWAP1 POP JUMP JUMPDEST PUSH0 DUP2 SWAP1 POP SWAP2 SWAP1 POP JUMP JUMPDEST PUSH0 PUSH8 0xFFFFFFFFFFFFFFFF DUP3 AND SWAP1 POP SWAP2 SWAP1 POP JUMP JUMPDEST PUSH0 PUSH2 0x53D3 PUSH2 0x53CE PUSH2 0x53C9 DUP5 PUSH2 0x539D JUMP JUMPDEST PUSH2 0x43E1 JUMP JUMPDEST PUSH2 0x53A6 JUMP JUMPDEST SWAP1 POP SWAP2 SWAP1 POP JUMP JUMPDEST PUSH2 0x53E3 DUP2 PUSH2 0x53B9 JUMP JUMPDEST DUP3 MSTORE POP POP JUMP JUMPDEST PUSH0 PUSH1 0x20 DUP3 ADD SWAP1 POP PUSH2 0x53FC PUSH0 DUP4 ADD DUP5 PUSH2 0x53DA JUMP JUMPDEST SWAP3 SWAP2 POP POP JUMP JUMPDEST PUSH32 0x42726964676520636F6E7472616374206E6F7420736574000000000000000000 PUSH0 DUP3 ADD MSTORE POP JUMP JUMPDEST PUSH0 PUSH2 0x5436 PUSH1 0x17 DUP4 PUSH2 0x3E16 JUMP JUMPDEST SWAP2 POP PUSH2 0x5441 DUP3 PUSH2 0x5402 JUMP JUMPDEST PUSH1 0x20 DUP3 ADD SWAP1 POP SWAP2 SWAP1 POP JUMP JUMPDEST PUSH0 PUSH1 0x20 DUP3 ADD SWAP1 POP DUP2 DUP2 SUB PUSH0 DUP4 ADD MSTORE PUSH2 0x5463 DUP2 PUSH2 0x542A JUMP JUMPDEST SWAP1 POP SWAP2 SWAP1 POP JUMP JUMPDEST PUSH32 0x496E73756666696369656E742062616C616E6365000000000000000000000000 PUSH0 DUP3 ADD MSTORE POP JUMP JUMPDEST PUSH0 PUSH2 0x549E PUSH1 0x14 DUP4 PUSH2 0x3E16 JUMP JUMPDEST SWAP2 POP PUSH2 0x54A9 DUP3 PUSH2 0x546A JUMP JUMPDEST PUSH1 0x20 DUP3 ADD SWAP1 POP SWAP2 SWAP1 POP JUMP JUMPDEST PUSH0 PUSH1 0x20 DUP3 ADD SWAP1 POP DUP2 DUP2 SUB PUSH0 DUP4 ADD MSTORE PUSH2 0x54CB DUP2 PUSH2 0x5492 JUMP JUMPDEST SWAP1 POP SWAP2 SWAP1 POP JUMP JUMPDEST PUSH0 DUP2 PUSH1 0x60 SHL SWAP1 POP SWAP2 SWAP1 POP JUMP JUMPDEST PUSH0 PUSH2 0x54E8 DUP3 PUSH2 0x54D2 JUMP JUMPDEST SWAP1 POP SWAP2 SWAP1 POP JUMP JUMPDEST PUSH0 PUSH2 0x54F9 DUP3 PUSH2 0x54DE JUMP JUMPDEST SWAP1 POP SWAP2 SWAP1 POP JUMP JUMPDEST PUSH2 0x5511 PUSH2 0x550C DUP3 PUSH2 0x3EB5 JUMP JUMPDEST PUSH2 0x54EF JUMP JUMPDEST DUP3 MSTORE POP POP JUMP JUMPDEST PUSH0 DUP2 SWAP1 POP SWAP2 SWAP1 POP JUMP JUMPDEST PUSH2 0x5531 PUSH2 0x552C DUP3 PUSH2 0x3D75 JUMP JUMPDEST PUSH2 0x5517 JUMP JUMPDEST DUP3 MSTORE POP POP JUMP JUMPDEST PUSH0 PUSH2 0x5542 DUP3 DUP7 PUSH2 0x5500 JUMP JUMPDEST PUSH1 0x14 DUP3 ADD SWAP2 POP PUSH2 0x5552 DUP3 DUP6 PUSH2 0x5520 JUMP JUMPDEST PUSH1 0x20 DUP3 ADD SWAP2 POP PUSH2 0x5562 DUP3 DUP5 PUSH2 0x5520 JUMP JUMPDEST PUSH1 0x20 DUP3 ADD SWAP2 POP DUP2 SWAP1 POP SWAP5 SWAP4 POP POP POP POP JUMP JUMPDEST PUSH2 0x557C DUP2 PUSH2 0x3EB5 JUMP JUMPDEST DUP3 MSTORE POP POP JUMP JUMPDEST PUSH2 0x558B DUP2 PUSH2 0x3D75 JUMP JUMPDEST DUP3 MSTORE POP POP JUMP JUMPDEST PUSH0 DUP2 SWAP1 POP SWAP2 SWAP1 POP JUMP JUMPDEST PUSH2 0x55A3 DUP2 PUSH2 0x5591 JUMP JUMPDEST DUP3 MSTORE POP POP JUMP JUMPDEST PUSH1 0x60 DUP3 ADD PUSH0 DUP3 ADD MLOAD PUSH2 0x55BD PUSH0 DUP6 ADD DUP3 PUSH2 0x5573 JUMP JUMPDEST POP PUSH1 0x20 DUP3 ADD MLOAD PUSH2 0x55D0 PUSH1 0x20 DUP6 ADD DUP3 PUSH2 0x5582 JUMP JUMPDEST POP PUSH1 0x40 DUP3 ADD MLOAD PUSH2 0x55E3 PUSH1 0x40 DUP6 ADD DUP3 PUSH2 0x559A JUMP JUMPDEST POP POP POP POP JUMP JUMPDEST PUSH0 PUSH1 0xA0 DUP3 ADD SWAP1 POP PUSH2 0x55FC PUSH0 DUP4 ADD DUP7 PUSH2 0x3D7E JUMP JUMPDEST PUSH2 0x5609 PUSH1 0x20 DUP4 ADD DUP6 PUSH2 0x51C7 JUMP JUMPDEST PUSH2 0x5616 PUSH1 0x40 DUP4 ADD DUP5 PUSH2 0x55A9 JUMP JUMPDEST SWAP5 SWAP4 POP POP POP POP JUMP JUMPDEST PUSH32 0x4E6F207265776172647320746F20776974686472617700000000000000000000 PUSH0 DUP3 ADD MSTORE POP JUMP JUMPDEST PUSH0 PUSH2 0x5652 PUSH1 0x16 DUP4 PUSH2 0x3E16 JUMP JUMPDEST SWAP2 POP PUSH2 0x565D DUP3 PUSH2 0x561E JUMP JUMPDEST PUSH1 0x20 DUP3 ADD SWAP1 POP SWAP2 SWAP1 POP JUMP JUMPDEST PUSH0 PUSH1 0x20 DUP3 ADD SWAP1 POP DUP2 DUP2 SUB PUSH0 DUP4 ADD MSTORE PUSH2 0x567F DUP2 PUSH2 0x5646 JUMP JUMPDEST SWAP1 POP SWAP2 SWAP1 POP JUMP JUMPDEST PUSH32 0x5265656E7472616E637947756172643A207265656E7472616E742063616C6C00 PUSH0 DUP3 ADD MSTORE POP JUMP JUMPDEST PUSH0 PUSH2 0x56BA PUSH1 0x1F DUP4 PUSH2 0x3E16 JUMP JUMPDEST SWAP2 POP PUSH2 0x56C5 DUP3 PUSH2 0x5686 JUMP JUMPDEST PUSH1 0x20 DUP3 ADD SWAP1 POP SWAP2 SWAP1 POP JUMP JUMPDEST PUSH0 PUSH1 0x20 DUP3 ADD SWAP1 POP DUP2 DUP2 SUB PUSH0 DUP4 ADD MSTORE PUSH2 0x56E7 DUP2 PUSH2 0x56AE JUMP JUMPDEST SWAP1 POP SWAP2 SWAP1 POP JUMP JUMPDEST PUSH0 PUSH1 0x60 DUP3 ADD SWAP1 POP PUSH2 0x5701 PUSH0 DUP4 ADD DUP7 PUSH2 0x3EC6 JUMP JUMPDEST PUSH2 0x570E PUSH1 0x20 DUP4 ADD DUP6 PUSH2 0x3D7E JUMP JUMPDEST PUSH2 0x571B PUSH1 0x40 DUP4 ADD DUP5 PUSH2 0x3D7E JUMP JUMPDEST SWAP5 SWAP4 POP POP POP POP JUMP JUMPDEST PUSH32 0x5061757361626C653A2070617573656400000000000000000000000000000000 PUSH0 DUP3 ADD MSTORE POP JUMP JUMPDEST PUSH0 PUSH2 0x5757 PUSH1 0x10 DUP4 PUSH2 0x3E16 JUMP JUMPDEST SWAP2 POP PUSH2 0x5762 DUP3 PUSH2 0x5723 JUMP JUMPDEST PUSH1 0x20 DUP3 ADD SWAP1 POP SWAP2 SWAP1 POP JUMP JUMPDEST PUSH0 PUSH1 0x20 DUP3 ADD SWAP1 POP DUP2 DUP2 SUB PUSH0 DUP4 ADD MSTORE PUSH2 0x5784 DUP2 PUSH2 0x574B JUMP JUMPDEST SWAP1 POP SWAP2 SWAP1 POP JUMP JUMPDEST PUSH0 PUSH1 0x60 DUP3 ADD SWAP1 POP PUSH2 0x579E PUSH0 DUP4 ADD DUP7 PUSH2 0x3EC6 JUMP JUMPDEST PUSH2 0x57AB PUSH1 0x20 DUP4 ADD DUP6 PUSH2 0x3EC6 JUMP JUMPDEST PUSH2 0x57B8 PUSH1 0x40 DUP4 ADD DUP5 PUSH2 0x3D7E JUMP JUMPDEST SWAP5 SWAP4 POP POP POP POP JUMP JUMPDEST PUSH0 PUSH1 0x40 DUP3 ADD SWAP1 POP PUSH2 0x57D3 PUSH0 DUP4 ADD DUP6 PUSH2 0x3EC6 JUMP JUMPDEST PUSH2 0x57E0 PUSH1 0x20 DUP4 ADD DUP5 PUSH2 0x3D7E JUMP JUMPDEST SWAP4 SWAP3 POP POP POP JUMP INVALID LOG2 PUSH5 0x6970667358 0x22 SLT KECCAK256 SWAP3 SHL 0xD9 0xE2 SWAP8 STOP SWAP3 0xEB ADDMOD PUSH28 0x45DD1B0CB2D49BA565A346940AB207014272496F94A664736F6C6343 STOP ADDMOD SHR STOP CALLER "
		},
		"gasEstimates": {
			"creation": {
				"codeDepositCost": "4511400",
				"executionCost": "infinite",
				"totalCost": "infinite"
			},
			"external": {
				"": "1811",
				"addLiquidity(address,uint256)": "infinite",
				"allowance(address,address)": "infinite",
				"approve(address,uint256)": "infinite",
				"balanceOf(address)": "2961",
				"bridgeContract()": "infinite",
				"burn(uint256)": "infinite",
				"createProposal(string,address,bytes)": "infinite",
				"decimals()": "384",
				"deployerWallet()": "2553",
				"depositERC20(address,uint256)": "infinite",
				"executeProposal(uint256)": "infinite",
				"getBalance(address)": "3002",
				"getUserLiquidity(address)": "2873",
				"initialize(address,address,address)": "infinite",
				"lastRewardTimestamp(address)": "2890",
				"liquidityFeeOnRemove()": "2536",
				"liquidityPool()": "2597",
				"lockTokensForCrossChain(uint256,uint256,address)": "infinite",
				"mint(address,uint256)": "infinite",
				"name()": "infinite",
				"owner()": "2627",
				"paused()": "2607",
				"proposals(uint256)": "infinite",
				"purchaseTokens(uint256)": "infinite",
				"removeLiquidity(address,uint256)": "infinite",
				"renounceOwnership()": "infinite",
				"rewardRate()": "infinite",
				"rewards(address)": "2915",
				"setBridgeContract(address)": "infinite",
				"setLiquidityPool(address)": "infinite",
				"stableToken()": "2641",
				"stakeTokens(uint256)": "infinite",
				"stakedAmount(address)": "2956",
				"symbol()": "infinite",
				"totalSupply()": "2544",
				"transfer(address,uint256)": "infinite",
				"transferFrom(address,address,uint256)": "infinite",
				"transferOwnership(address)": "infinite",
				"unlockTokens(uint256,uint256,address)": "infinite",
				"unstakeTokens(uint256)": "infinite",
				"userLiquidity(address)": "2869",
				"voteOnProposal(uint256)": "infinite",
				"withdrawBNB(uint256)": "infinite",
				"withdrawERC20(address,uint256)": "infinite",
				"withdrawRewards()": "infinite"
			},
			"internal": {
				"_distributeRewards(address)": "infinite"
			}
		},
		"methodIdentifiers": {
			"addLiquidity(address,uint256)": "56688700",
			"allowance(address,address)": "dd62ed3e",
			"approve(address,uint256)": "095ea7b3",
			"balanceOf(address)": "70a08231",
			"bridgeContract()": "cd596583",
			"burn(uint256)": "42966c68",
			"createProposal(string,address,bytes)": "2821ff26",
			"decimals()": "313ce567",
			"deployerWallet()": "5d60c7be",
			"depositERC20(address,uint256)": "97feb926",
			"executeProposal(uint256)": "0d61b519",
			"getBalance(address)": "f8b2cb4f",
			"getUserLiquidity(address)": "dbbdd935",
			"initialize(address,address,address)": "c0c53b8b",
			"lastRewardTimestamp(address)": "ec9c9f89",
			"liquidityFeeOnRemove()": "6c3b451d",
			"liquidityPool()": "665a11ca",
			"lockTokensForCrossChain(uint256,uint256,address)": "c3a386d3",
			"mint(address,uint256)": "40c10f19",
			"name()": "06fdde03",
			"owner()": "8da5cb5b",
			"paused()": "5c975abb",
			"proposals(uint256)": "013cf08b",
			"purchaseTokens(uint256)": "7b97008d",
			"removeLiquidity(address,uint256)": "a201ccf6",
			"renounceOwnership()": "715018a6",
			"rewardRate()": "7b0a47ee",
			"rewards(address)": "0700037d",
			"setBridgeContract(address)": "0b26cf66",
			"setLiquidityPool(address)": "01877020",
			"stableToken()": "a9d75b2b",
			"stakeTokens(uint256)": "7547c7a3",
			"stakedAmount(address)": "f9931855",
			"symbol()": "95d89b41",
			"totalSupply()": "18160ddd",
			"transfer(address,uint256)": "a9059cbb",
			"transferFrom(address,address,uint256)": "23b872dd",
			"transferOwnership(address)": "f2fde38b",
			"unlockTokens(uint256,uint256,address)": "aa852a1a",
			"unstakeTokens(uint256)": "608e4dd0",
			"userLiquidity(address)": "ba4c28c3",
			"voteOnProposal(uint256)": "add68edc",
			"withdrawBNB(uint256)": "127f4b2e",
			"withdrawERC20(address,uint256)": "a1db9782",
			"withdrawRewards()": "c7b8981c"
		}
	},
	"abi": [
		{
			"inputs": [
				{
					"internalType": "address",
					"name": "_stableToken",
					"type": "address"
				},
				{
					"internalType": "address",
					"name": "_deployerWallet",
					"type": "address"
				},
				{
					"internalType": "uint256",
					"name": "_rewardRate",
					"type": "uint256"
				},
				{
					"internalType": "address",
					"name": "_bridgeContract",
					"type": "address"
				}
			],
			"stateMutability": "nonpayable",
			"type": "constructor"
		},
		{
			"inputs": [
				{
					"internalType": "address",
					"name": "spender",
					"type": "address"
				},
				{
					"internalType": "uint256",
					"name": "allowance",
					"type": "uint256"
				},
				{
					"internalType": "uint256",
					"name": "needed",
					"type": "uint256"
				}
			],
			"name": "ERC20InsufficientAllowance",
			"type": "error"
		},
		{
			"inputs": [
				{
					"internalType": "address",
					"name": "sender",
					"type": "address"
				},
				{
					"internalType": "uint256",
					"name": "balance",
					"type": "uint256"
				},
				{
					"internalType": "uint256",
					"name": "needed",
					"type": "uint256"
				}
			],
			"name": "ERC20InsufficientBalance",
			"type": "error"
		},
		{
			"inputs": [
				{
					"internalType": "address",
					"name": "approver",
					"type": "address"
				}
			],
			"name": "ERC20InvalidApprover",
			"type": "error"
		},
		{
			"inputs": [
				{
					"internalType": "address",
					"name": "receiver",
					"type": "address"
				}
			],
			"name": "ERC20InvalidReceiver",
			"type": "error"
		},
		{
			"inputs": [
				{
					"internalType": "address",
					"name": "sender",
					"type": "address"
				}
			],
			"name": "ERC20InvalidSender",
			"type": "error"
		},
		{
			"inputs": [
				{
					"internalType": "address",
					"name": "spender",
					"type": "address"
				}
			],
			"name": "ERC20InvalidSpender",
			"type": "error"
		},
		{
			"inputs": [],
			"name": "InvalidInitialization",
			"type": "error"
		},
		{
			"inputs": [],
			"name": "NotInitializing",
			"type": "error"
		},
		{
			"inputs": [
				{
					"internalType": "address",
					"name": "owner",
					"type": "address"
				}
			],
			"name": "OwnableInvalidOwner",
			"type": "error"
		},
		{
			"inputs": [
				{
					"internalType": "address",
					"name": "account",
					"type": "address"
				}
			],
			"name": "OwnableUnauthorizedAccount",
			"type": "error"
		},
		{
			"inputs": [
				{
					"internalType": "address",
					"name": "token",
					"type": "address"
				}
			],
			"name": "SafeERC20FailedOperation",
			"type": "error"
		},
		{
			"anonymous": false,
			"inputs": [
				{
					"indexed": true,
					"internalType": "address",
					"name": "owner",
					"type": "address"
				},
				{
					"indexed": true,
					"internalType": "address",
					"name": "spender",
					"type": "address"
				},
				{
					"indexed": false,
					"internalType": "uint256",
					"name": "value",
					"type": "uint256"
				}
			],
			"name": "Approval",
			"type": "event"
		},
		{
			"anonymous": false,
			"inputs": [
				{
					"indexed": true,
					"internalType": "address",
					"name": "newBridgeContract",
					"type": "address"
				}
			],
			"name": "BridgeContractUpdated",
			"type": "event"
		},
		{
			"anonymous": false,
			"inputs": [
				{
					"indexed": true,
					"internalType": "address",
					"name": "sender",
					"type": "address"
				},
				{
					"indexed": true,
					"internalType": "address",
					"name": "tokenAddress",
					"type": "address"
				},
				{
					"indexed": false,
					"internalType": "uint256",
					"name": "amount",
					"type": "uint256"
				}
			],
			"name": "DepositedERC20",
			"type": "event"
		},
		{
			"anonymous": false,
			"inputs": [
				{
					"indexed": true,
					"internalType": "address",
					"name": "sender",
					"type": "address"
				},
				{
					"indexed": false,
					"internalType": "uint256",
					"name": "amount",
					"type": "uint256"
				}
			],
			"name": "FallbackCalled",
			"type": "event"
		},
		{
			"anonymous": false,
			"inputs": [
				{
					"indexed": false,
					"internalType": "uint64",
					"name": "version",
					"type": "uint64"
				}
			],
			"name": "Initialized",
			"type": "event"
		},
		{
			"anonymous": false,
			"inputs": [
				{
					"indexed": true,
					"internalType": "address",
					"name": "user",
					"type": "address"
				},
				{
					"indexed": false,
					"internalType": "uint256",
					"name": "amount",
					"type": "uint256"
				},
				{
					"indexed": false,
					"internalType": "address",
					"name": "token",
					"type": "address"
				}
			],
			"name": "LiquidityAdded",
			"type": "event"
		},
		{
			"anonymous": false,
			"inputs": [
				{
					"indexed": true,
					"internalType": "address",
					"name": "newLiquidityPool",
					"type": "address"
				}
			],
			"name": "LiquidityPoolUpdated",
			"type": "event"
		},
		{
			"anonymous": false,
			"inputs": [
				{
					"indexed": true,
					"internalType": "address",
					"name": "user",
					"type": "address"
				},
				{
					"indexed": false,
					"internalType": "uint256",
					"name": "amount",
					"type": "uint256"
				},
				{
					"indexed": false,
					"internalType": "address",
					"name": "token",
					"type": "address"
				}
			],
			"name": "LiquidityRemoved",
			"type": "event"
		},
		{
			"anonymous": false,
			"inputs": [
				{
					"indexed": true,
					"internalType": "address",
					"name": "previousOwner",
					"type": "address"
				},
				{
					"indexed": true,
					"internalType": "address",
					"name": "newOwner",
					"type": "address"
				}
			],
			"name": "OwnershipTransferred",
			"type": "event"
		},
		{
			"anonymous": false,
			"inputs": [
				{
					"indexed": false,
					"internalType": "address",
					"name": "account",
					"type": "address"
				}
			],
			"name": "Paused",
			"type": "event"
		},
		{
			"anonymous": false,
			"inputs": [
				{
					"indexed": false,
					"internalType": "uint256",
					"name": "proposalId",
					"type": "uint256"
				},
				{
					"indexed": false,
					"internalType": "string",
					"name": "description",
					"type": "string"
				}
			],
			"name": "ProposalCreated",
			"type": "event"
		},
		{
			"anonymous": false,
			"inputs": [
				{
					"indexed": false,
					"internalType": "uint256",
					"name": "proposalId",
					"type": "uint256"
				}
			],
			"name": "ProposalExecuted",
			"type": "event"
		},
		{
			"anonymous": false,
			"inputs": [
				{
					"indexed": true,
					"internalType": "address",
					"name": "sender",
					"type": "address"
				},
				{
					"indexed": false,
					"internalType": "uint256",
					"name": "amount",
					"type": "uint256"
				}
			],
			"name": "ReceivedBNB",
			"type": "event"
		},
		{
			"anonymous": false,
			"inputs": [
				{
					"indexed": true,
					"internalType": "address",
					"name": "user",
					"type": "address"
				},
				{
					"indexed": false,
					"internalType": "uint256",
					"name": "amount",
					"type": "uint256"
				}
			],
			"name": "RewardWithdrawn",
			"type": "event"
		},
		{
			"anonymous": false,
			"inputs": [
				{
					"indexed": true,
					"internalType": "address",
					"name": "user",
					"type": "address"
				},
				{
					"indexed": false,
					"internalType": "uint256",
					"name": "amount",
					"type": "uint256"
				}
			],
			"name": "Staked",
			"type": "event"
		},
		{
			"anonymous": false,
			"inputs": [
				{
					"indexed": true,
					"internalType": "address",
					"name": "user",
					"type": "address"
				},
				{
					"indexed": false,
					"internalType": "uint256",
					"name": "amount",
					"type": "uint256"
				},
				{
					"indexed": false,
					"internalType": "uint256",
					"name": "targetChainId",
					"type": "uint256"
				}
			],
			"name": "TokensLocked",
			"type": "event"
		},
		{
			"anonymous": false,
			"inputs": [
				{
					"indexed": true,
					"internalType": "address",
					"name": "user",
					"type": "address"
				},
				{
					"indexed": false,
					"internalType": "uint256",
					"name": "amountIn",
					"type": "uint256"
				},
				{
					"indexed": false,
					"internalType": "uint256",
					"name": "amountOut",
					"type": "uint256"
				}
			],
			"name": "TokensPurchased",
			"type": "event"
		},
		{
			"anonymous": false,
			"inputs": [
				{
					"indexed": true,
					"internalType": "address",
					"name": "user",
					"type": "address"
				},
				{
					"indexed": false,
					"internalType": "uint256",
					"name": "amount",
					"type": "uint256"
				},
				{
					"indexed": false,
					"internalType": "uint256",
					"name": "sourceChainId",
					"type": "uint256"
				}
			],
			"name": "TokensUnlocked",
			"type": "event"
		},
		{
			"anonymous": false,
			"inputs": [
				{
					"indexed": true,
					"internalType": "address",
					"name": "from",
					"type": "address"
				},
				{
					"indexed": true,
					"internalType": "address",
					"name": "to",
					"type": "address"
				},
				{
					"indexed": false,
					"internalType": "uint256",
					"name": "value",
					"type": "uint256"
				}
			],
			"name": "Transfer",
			"type": "event"
		},
		{
			"anonymous": false,
			"inputs": [
				{
					"indexed": false,
					"internalType": "address",
					"name": "account",
					"type": "address"
				}
			],
			"name": "Unpaused",
			"type": "event"
		},
		{
			"anonymous": false,
			"inputs": [
				{
					"indexed": true,
					"internalType": "address",
					"name": "user",
					"type": "address"
				},
				{
					"indexed": false,
					"internalType": "uint256",
					"name": "amount",
					"type": "uint256"
				}
			],
			"name": "Unstaked",
			"type": "event"
		},
		{
			"anonymous": false,
			"inputs": [
				{
					"indexed": false,
					"internalType": "uint256",
					"name": "proposalId",
					"type": "uint256"
				},
				{
					"indexed": true,
					"internalType": "address",
					"name": "voter",
					"type": "address"
				}
			],
			"name": "Voted",
			"type": "event"
		},
		{
			"anonymous": false,
			"inputs": [
				{
					"indexed": true,
					"internalType": "address",
					"name": "sender",
					"type": "address"
				},
				{
					"indexed": false,
					"internalType": "uint256",
					"name": "amount",
					"type": "uint256"
				}
			],
			"name": "WithdrawnBNB",
			"type": "event"
		},
		{
			"anonymous": false,
			"inputs": [
				{
					"indexed": true,
					"internalType": "address",
					"name": "sender",
					"type": "address"
				},
				{
					"indexed": true,
					"internalType": "address",
					"name": "tokenAddress",
					"type": "address"
				},
				{
					"indexed": false,
					"internalType": "uint256",
					"name": "amount",
					"type": "uint256"
				}
			],
			"name": "WithdrawnERC20",
			"type": "event"
		},
		{
			"stateMutability": "payable",
			"type": "fallback"
		},
		{
			"inputs": [
				{
					"internalType": "address",
					"name": "token",
					"type": "address"
				},
				{
					"internalType": "uint256",
					"name": "amount",
					"type": "uint256"
				}
			],
			"name": "addLiquidity",
			"outputs": [],
			"stateMutability": "nonpayable",
			"type": "function"
		},
		{
			"inputs": [
				{
					"internalType": "address",
					"name": "owner",
					"type": "address"
				},
				{
					"internalType": "address",
					"name": "spender",
					"type": "address"
				}
			],
			"name": "allowance",
			"outputs": [
				{
					"internalType": "uint256",
					"name": "",
					"type": "uint256"
				}
			],
			"stateMutability": "view",
			"type": "function"
		},
		{
			"inputs": [
				{
					"internalType": "address",
					"name": "spender",
					"type": "address"
				},
				{
					"internalType": "uint256",
					"name": "value",
					"type": "uint256"
				}
			],
			"name": "approve",
			"outputs": [
				{
					"internalType": "bool",
					"name": "",
					"type": "bool"
				}
			],
			"stateMutability": "nonpayable",
			"type": "function"
		},
		{
			"inputs": [
				{
					"internalType": "address",
					"name": "account",
					"type": "address"
				}
			],
			"name": "balanceOf",
			"outputs": [
				{
					"internalType": "uint256",
					"name": "",
					"type": "uint256"
				}
			],
			"stateMutability": "view",
			"type": "function"
		},
		{
			"inputs": [],
			"name": "bridgeContract",
			"outputs": [
				{
					"internalType": "contract TokenBridge",
					"name": "",
					"type": "address"
				}
			],
			"stateMutability": "view",
			"type": "function"
		},
		{
			"inputs": [
				{
					"internalType": "uint256",
					"name": "amount",
					"type": "uint256"
				}
			],
			"name": "burn",
			"outputs": [],
			"stateMutability": "nonpayable",
			"type": "function"
		},
		{
			"inputs": [
				{
					"internalType": "string",
					"name": "description",
					"type": "string"
				},
				{
					"internalType": "address",
					"name": "target",
					"type": "address"
				},
				{
					"internalType": "bytes",
					"name": "data",
					"type": "bytes"
				}
			],
			"name": "createProposal",
			"outputs": [],
			"stateMutability": "nonpayable",
			"type": "function"
		},
		{
			"inputs": [],
			"name": "decimals",
			"outputs": [
				{
					"internalType": "uint8",
					"name": "",
					"type": "uint8"
				}
			],
			"stateMutability": "view",
			"type": "function"
		},
		{
			"inputs": [],
			"name": "deployerWallet",
			"outputs": [
				{
					"internalType": "address",
					"name": "",
					"type": "address"
				}
			],
			"stateMutability": "view",
			"type": "function"
		},
		{
			"inputs": [
				{
					"internalType": "address",
					"name": "tokenAddress",
					"type": "address"
				},
				{
					"internalType": "uint256",
					"name": "amount",
					"type": "uint256"
				}
			],
			"name": "depositERC20",
			"outputs": [],
			"stateMutability": "nonpayable",
			"type": "function"
		},
		{
			"inputs": [
				{
					"internalType": "uint256",
					"name": "proposalId",
					"type": "uint256"
				}
			],
			"name": "executeProposal",
			"outputs": [],
			"stateMutability": "nonpayable",
			"type": "function"
		},
		{
			"inputs": [
				{
					"internalType": "address",
					"name": "user",
					"type": "address"
				}
			],
			"name": "getBalance",
			"outputs": [
				{
					"internalType": "uint256",
					"name": "",
					"type": "uint256"
				}
			],
			"stateMutability": "view",
			"type": "function"
		},
		{
			"inputs": [
				{
					"internalType": "address",
					"name": "user",
					"type": "address"
				}
			],
			"name": "getUserLiquidity",
			"outputs": [
				{
					"internalType": "uint256",
					"name": "",
					"type": "uint256"
				}
			],
			"stateMutability": "view",
			"type": "function"
		},
		{
			"inputs": [
				{
					"internalType": "address",
					"name": "_stableToken",
					"type": "address"
				},
				{
					"internalType": "address",
					"name": "_deployerWallet",
					"type": "address"
				},
				{
					"internalType": "address",
					"name": "_bridgeContract",
					"type": "address"
				}
			],
			"name": "initialize",
			"outputs": [],
			"stateMutability": "nonpayable",
			"type": "function"
		},
		{
			"inputs": [
				{
					"internalType": "address",
					"name": "",
					"type": "address"
				}
			],
			"name": "lastRewardTimestamp",
			"outputs": [
				{
					"internalType": "uint256",
					"name": "",
					"type": "uint256"
				}
			],
			"stateMutability": "view",
			"type": "function"
		},
		{
			"inputs": [],
			"name": "liquidityFeeOnRemove",
			"outputs": [
				{
					"internalType": "uint256",
					"name": "",
					"type": "uint256"
				}
			],
			"stateMutability": "view",
			"type": "function"
		},
		{
			"inputs": [],
			"name": "liquidityPool",
			"outputs": [
				{
					"internalType": "address",
					"name": "",
					"type": "address"
				}
			],
			"stateMutability": "view",
			"type": "function"
		},
		{
			"inputs": [
				{
					"internalType": "uint256",
					"name": "_tokenID",
					"type": "uint256"
				},
				{
					"internalType": "uint256",
					"name": "amount",
					"type": "uint256"
				},
				{
					"internalType": "address",
					"name": "recipient",
					"type": "address"
				}
			],
			"name": "lockTokensForCrossChain",
			"outputs": [],
			"stateMutability": "nonpayable",
			"type": "function"
		},
		{
			"inputs": [
				{
					"internalType": "address",
					"name": "to",
					"type": "address"
				},
				{
					"internalType": "uint256",
					"name": "amount",
					"type": "uint256"
				}
			],
			"name": "mint",
			"outputs": [],
			"stateMutability": "nonpayable",
			"type": "function"
		},
		{
			"inputs": [],
			"name": "name",
			"outputs": [
				{
					"internalType": "string",
					"name": "",
					"type": "string"
				}
			],
			"stateMutability": "view",
			"type": "function"
		},
		{
			"inputs": [],
			"name": "owner",
			"outputs": [
				{
					"internalType": "address",
					"name": "",
					"type": "address"
				}
			],
			"stateMutability": "view",
			"type": "function"
		},
		{
			"inputs": [],
			"name": "paused",
			"outputs": [
				{
					"internalType": "bool",
					"name": "",
					"type": "bool"
				}
			],
			"stateMutability": "view",
			"type": "function"
		},
		{
			"inputs": [
				{
					"internalType": "uint256",
					"name": "",
					"type": "uint256"
				}
			],
			"name": "proposals",
			"outputs": [
				{
					"internalType": "string",
					"name": "description",
					"type": "string"
				},
				{
					"internalType": "uint256",
					"name": "voteCount",
					"type": "uint256"
				},
				{
					"internalType": "bool",
					"name": "executed",
					"type": "bool"
				},
				{
					"internalType": "address",
					"name": "target",
					"type": "address"
				},
				{
					"internalType": "bytes",
					"name": "data",
					"type": "bytes"
				}
			],
			"stateMutability": "view",
			"type": "function"
		},
		{
			"inputs": [
				{
					"internalType": "uint256",
					"name": "amountIn",
					"type": "uint256"
				}
			],
			"name": "purchaseTokens",
			"outputs": [],
			"stateMutability": "nonpayable",
			"type": "function"
		},
		{
			"inputs": [
				{
					"internalType": "address",
					"name": "token",
					"type": "address"
				},
				{
					"internalType": "uint256",
					"name": "amount",
					"type": "uint256"
				}
			],
			"name": "removeLiquidity",
			"outputs": [],
			"stateMutability": "nonpayable",
			"type": "function"
		},
		{
			"inputs": [],
			"name": "renounceOwnership",
			"outputs": [],
			"stateMutability": "nonpayable",
			"type": "function"
		},
		{
			"inputs": [],
			"name": "rewardRate",
			"outputs": [
				{
					"internalType": "uint256",
					"name": "",
					"type": "uint256"
				}
			],
			"stateMutability": "view",
			"type": "function"
		},
		{
			"inputs": [
				{
					"internalType": "address",
					"name": "",
					"type": "address"
				}
			],
			"name": "rewards",
			"outputs": [
				{
					"internalType": "uint256",
					"name": "",
					"type": "uint256"
				}
			],
			"stateMutability": "view",
			"type": "function"
		},
		{
			"inputs": [
				{
					"internalType": "address",
					"name": "_bridgeContract",
					"type": "address"
				}
			],
			"name": "setBridgeContract",
			"outputs": [],
			"stateMutability": "nonpayable",
			"type": "function"
		},
		{
			"inputs": [
				{
					"internalType": "address",
					"name": "_liquidityPool",
					"type": "address"
				}
			],
			"name": "setLiquidityPool",
			"outputs": [],
			"stateMutability": "nonpayable",
			"type": "function"
		},
		{
			"inputs": [],
			"name": "stableToken",
			"outputs": [
				{
					"internalType": "address",
					"name": "",
					"type": "address"
				}
			],
			"stateMutability": "view",
			"type": "function"
		},
		{
			"inputs": [
				{
					"internalType": "uint256",
					"name": "amount",
					"type": "uint256"
				}
			],
			"name": "stakeTokens",
			"outputs": [],
			"stateMutability": "nonpayable",
			"type": "function"
		},
		{
			"inputs": [
				{
					"internalType": "address",
					"name": "",
					"type": "address"
				}
			],
			"name": "stakedAmount",
			"outputs": [
				{
					"internalType": "uint256",
					"name": "",
					"type": "uint256"
				}
			],
			"stateMutability": "view",
			"type": "function"
		},
		{
			"inputs": [],
			"name": "symbol",
			"outputs": [
				{
					"internalType": "string",
					"name": "",
					"type": "string"
				}
			],
			"stateMutability": "view",
			"type": "function"
		},
		{
			"inputs": [],
			"name": "totalSupply",
			"outputs": [
				{
					"internalType": "uint256",
					"name": "",
					"type": "uint256"
				}
			],
			"stateMutability": "view",
			"type": "function"
		},
		{
			"inputs": [
				{
					"internalType": "address",
					"name": "to",
					"type": "address"
				},
				{
					"internalType": "uint256",
					"name": "value",
					"type": "uint256"
				}
			],
			"name": "transfer",
			"outputs": [
				{
					"internalType": "bool",
					"name": "",
					"type": "bool"
				}
			],
			"stateMutability": "nonpayable",
			"type": "function"
		},
		{
			"inputs": [
				{
					"internalType": "address",
					"name": "from",
					"type": "address"
				},
				{
					"internalType": "address",
					"name": "to",
					"type": "address"
				},
				{
					"internalType": "uint256",
					"name": "value",
					"type": "uint256"
				}
			],
			"name": "transferFrom",
			"outputs": [
				{
					"internalType": "bool",
					"name": "",
					"type": "bool"
				}
			],
			"stateMutability": "nonpayable",
			"type": "function"
		},
		{
			"inputs": [
				{
					"internalType": "address",
					"name": "newOwner",
					"type": "address"
				}
			],
			"name": "transferOwnership",
			"outputs": [],
			"stateMutability": "nonpayable",
			"type": "function"
		},
		{
			"inputs": [
				{
					"internalType": "uint256",
					"name": "_tokenID",
					"type": "uint256"
				},
				{
					"internalType": "uint256",
					"name": "amount",
					"type": "uint256"
				},
				{
					"internalType": "address",
					"name": "recipient",
					"type": "address"
				}
			],
			"name": "unlockTokens",
			"outputs": [],
			"stateMutability": "nonpayable",
			"type": "function"
		},
		{
			"inputs": [
				{
					"internalType": "uint256",
					"name": "amount",
					"type": "uint256"
				}
			],
			"name": "unstakeTokens",
			"outputs": [],
			"stateMutability": "nonpayable",
			"type": "function"
		},
		{
			"inputs": [
				{
					"internalType": "address",
					"name": "",
					"type": "address"
				}
			],
			"name": "userLiquidity",
			"outputs": [
				{
					"internalType": "uint256",
					"name": "",
					"type": "uint256"
				}
			],
			"stateMutability": "view",
			"type": "function"
		},
		{
			"inputs": [
				{
					"internalType": "uint256",
					"name": "proposalId",
					"type": "uint256"
				}
			],
			"name": "voteOnProposal",
			"outputs": [],
			"stateMutability": "nonpayable",
			"type": "function"
		},
		{
			"inputs": [
				{
					"internalType": "uint256",
					"name": "amount",
					"type": "uint256"
				}
			],
			"name": "withdrawBNB",
			"outputs": [],
			"stateMutability": "nonpayable",
			"type": "function"
		},
		{
			"inputs": [
				{
					"internalType": "address",
					"name": "tokenAddress",
					"type": "address"
				},
				{
					"internalType": "uint256",
					"name": "amount",
					"type": "uint256"
				}
			],
			"name": "withdrawERC20",
			"outputs": [],
			"stateMutability": "nonpayable",
			"type": "function"
		},
		{
			"inputs": [],
			"name": "withdrawRewards",
			"outputs": [],
			"stateMutability": "nonpayable",
			"type": "function"
		},
		{
			"stateMutability": "payable",
			"type": "receive"
		}
	]
}